{
  "_format": "hh-sol-artifact-1",
  "contractName": "erc721Dynamic",
  "sourceName": "contracts/erc721Dynamic.sol",
  "abi": [
    {
      "inputs": [
        {
          "internalType": "address",
          "name": "marketplaceAddress",
          "type": "address"
        },
        {
          "internalType": "contract SharedNFTLogic",
          "name": "_sharedNFTLogic",
          "type": "address"
        }
      ],
      "stateMutability": "nonpayable",
      "type": "constructor"
    },
    {
      "anonymous": false,
      "inputs": [
        {
          "indexed": true,
          "internalType": "address",
          "name": "owner",
          "type": "address"
        },
        {
          "indexed": true,
          "internalType": "address",
          "name": "approved",
          "type": "address"
        },
        {
          "indexed": true,
          "internalType": "uint256",
          "name": "tokenId",
          "type": "uint256"
        }
      ],
      "name": "Approval",
      "type": "event"
    },
    {
      "anonymous": false,
      "inputs": [
        {
          "indexed": true,
          "internalType": "address",
          "name": "owner",
          "type": "address"
        },
        {
          "indexed": true,
          "internalType": "address",
          "name": "operator",
          "type": "address"
        },
        {
          "indexed": false,
          "internalType": "bool",
          "name": "approved",
          "type": "bool"
        }
      ],
      "name": "ApprovalForAll",
      "type": "event"
    },
    {
      "anonymous": false,
      "inputs": [
        {
          "indexed": false,
          "internalType": "uint256",
          "name": "price",
          "type": "uint256"
        },
        {
          "indexed": false,
          "internalType": "address",
          "name": "owner",
          "type": "address"
        }
      ],
      "name": "EditionSold",
      "type": "event"
    },
    {
      "anonymous": false,
      "inputs": [
        {
          "indexed": true,
          "internalType": "address",
          "name": "previousOwner",
          "type": "address"
        },
        {
          "indexed": true,
          "internalType": "address",
          "name": "newOwner",
          "type": "address"
        }
      ],
      "name": "OwnershipTransferred",
      "type": "event"
    },
    {
      "anonymous": false,
      "inputs": [
        {
          "indexed": false,
          "internalType": "uint256",
          "name": "amount",
          "type": "uint256"
        }
      ],
      "name": "PriceChanged",
      "type": "event"
    },
    {
      "anonymous": false,
      "inputs": [
        {
          "indexed": true,
          "internalType": "address",
          "name": "from",
          "type": "address"
        },
        {
          "indexed": true,
          "internalType": "address",
          "name": "to",
          "type": "address"
        },
        {
          "indexed": true,
          "internalType": "uint256",
          "name": "tokenId",
          "type": "uint256"
        }
      ],
      "name": "Transfer",
      "type": "event"
    },
    {
      "inputs": [
        {
          "internalType": "address",
          "name": "to",
          "type": "address"
        },
        {
          "internalType": "uint256",
          "name": "tokenId",
          "type": "uint256"
        }
      ],
      "name": "approve",
      "outputs": [],
      "stateMutability": "nonpayable",
      "type": "function"
    },
    {
      "inputs": [
        {
          "internalType": "address",
          "name": "owner",
          "type": "address"
        }
      ],
      "name": "balanceOf",
      "outputs": [
        {
          "internalType": "uint256",
          "name": "",
          "type": "uint256"
        }
      ],
      "stateMutability": "view",
      "type": "function"
    },
    {
      "inputs": [],
      "name": "baseURI",
      "outputs": [
        {
          "internalType": "string",
          "name": "",
          "type": "string"
        }
      ],
      "stateMutability": "view",
      "type": "function"
    },
    {
      "inputs": [
        {
          "internalType": "uint256",
          "name": "tokenId",
          "type": "uint256"
        }
      ],
      "name": "burn",
      "outputs": [],
      "stateMutability": "nonpayable",
      "type": "function"
    },
    {
      "inputs": [],
      "name": "description",
      "outputs": [
        {
          "internalType": "string",
          "name": "",
          "type": "string"
        }
      ],
      "stateMutability": "view",
      "type": "function"
    },
    {
      "inputs": [],
      "name": "editionSize",
      "outputs": [
        {
          "internalType": "uint256",
          "name": "",
          "type": "uint256"
        }
      ],
      "stateMutability": "view",
      "type": "function"
    },
    {
      "inputs": [
        {
          "internalType": "uint256",
          "name": "tokenId",
          "type": "uint256"
        }
      ],
      "name": "getApproved",
      "outputs": [
        {
          "internalType": "address",
          "name": "",
          "type": "address"
        }
      ],
      "stateMutability": "view",
      "type": "function"
    },
    {
      "inputs": [],
      "name": "getURIs",
      "outputs": [
        {
          "internalType": "string",
          "name": "",
          "type": "string"
        }
      ],
      "stateMutability": "view",
      "type": "function"
    },
    {
      "inputs": [
        {
          "internalType": "address",
          "name": "_owner",
          "type": "address"
        },
        {
          "internalType": "string",
          "name": "_baseURI",
          "type": "string"
        },
        {
          "internalType": "string",
          "name": "_name",
          "type": "string"
        },
        {
          "internalType": "string",
          "name": "_symbol",
          "type": "string"
        },
        {
          "internalType": "string",
          "name": "_description",
          "type": "string"
        },
        {
          "internalType": "uint256",
          "name": "_editionSize",
          "type": "uint256"
        },
        {
          "internalType": "uint256",
          "name": "_royaltyBPS",
          "type": "uint256"
        }
      ],
      "name": "initialize",
      "outputs": [],
      "stateMutability": "nonpayable",
      "type": "function"
    },
    {
      "inputs": [
        {
          "internalType": "address",
          "name": "owner",
          "type": "address"
        },
        {
          "internalType": "address",
          "name": "operator",
          "type": "address"
        }
      ],
      "name": "isApprovedForAll",
      "outputs": [
        {
          "internalType": "bool",
          "name": "",
          "type": "bool"
        }
      ],
      "stateMutability": "view",
      "type": "function"
    },
    {
      "inputs": [
        {
          "internalType": "address",
          "name": "to",
          "type": "address"
        }
      ],
      "name": "mintEdition",
      "outputs": [
        {
          "internalType": "uint256",
          "name": "",
          "type": "uint256"
        }
      ],
      "stateMutability": "nonpayable",
      "type": "function"
    },
    {
      "inputs": [
        {
          "internalType": "address[]",
          "name": "recipients",
          "type": "address[]"
        }
      ],
      "name": "mintEditions",
      "outputs": [
        {
          "internalType": "uint256",
          "name": "",
          "type": "uint256"
        }
      ],
      "stateMutability": "nonpayable",
      "type": "function"
    },
    {
      "inputs": [],
      "name": "name",
      "outputs": [
        {
          "internalType": "string",
          "name": "",
          "type": "string"
        }
      ],
      "stateMutability": "view",
      "type": "function"
    },
    {
      "inputs": [],
      "name": "numberCanMint",
      "outputs": [
        {
          "internalType": "uint256",
          "name": "",
          "type": "uint256"
        }
      ],
      "stateMutability": "view",
      "type": "function"
    },
    {
      "inputs": [],
      "name": "owner",
      "outputs": [
        {
          "internalType": "address",
          "name": "",
          "type": "address"
        }
      ],
      "stateMutability": "view",
      "type": "function"
    },
    {
      "inputs": [
        {
          "internalType": "uint256",
          "name": "tokenId",
          "type": "uint256"
        }
      ],
      "name": "ownerOf",
      "outputs": [
        {
          "internalType": "address",
          "name": "",
          "type": "address"
        }
      ],
      "stateMutability": "view",
      "type": "function"
    },
    {
      "inputs": [],
      "name": "purchase",
      "outputs": [
        {
          "internalType": "uint256",
          "name": "",
          "type": "uint256"
        }
      ],
      "stateMutability": "payable",
      "type": "function"
    },
    {
      "inputs": [],
      "name": "renounceOwnership",
      "outputs": [],
      "stateMutability": "nonpayable",
      "type": "function"
    },
    {
      "inputs": [
        {
          "internalType": "uint256",
          "name": "",
          "type": "uint256"
        },
        {
          "internalType": "uint256",
          "name": "_salePrice",
          "type": "uint256"
        }
      ],
      "name": "royaltyInfo",
      "outputs": [
        {
          "internalType": "address",
          "name": "receiver",
          "type": "address"
        },
        {
          "internalType": "uint256",
          "name": "royaltyAmount",
          "type": "uint256"
        }
      ],
      "stateMutability": "view",
      "type": "function"
    },
    {
      "inputs": [
        {
          "internalType": "address",
          "name": "from",
          "type": "address"
        },
        {
          "internalType": "address",
          "name": "to",
          "type": "address"
        },
        {
          "internalType": "uint256",
          "name": "tokenId",
          "type": "uint256"
        }
      ],
      "name": "safeTransferFrom",
      "outputs": [],
      "stateMutability": "nonpayable",
      "type": "function"
    },
    {
      "inputs": [
        {
          "internalType": "address",
          "name": "from",
          "type": "address"
        },
        {
          "internalType": "address",
          "name": "to",
          "type": "address"
        },
        {
          "internalType": "uint256",
          "name": "tokenId",
          "type": "uint256"
        },
        {
          "internalType": "bytes",
          "name": "_data",
          "type": "bytes"
        }
      ],
      "name": "safeTransferFrom",
      "outputs": [],
      "stateMutability": "nonpayable",
      "type": "function"
    },
    {
      "inputs": [],
      "name": "salePrice",
      "outputs": [
        {
          "internalType": "uint256",
          "name": "",
          "type": "uint256"
        }
      ],
      "stateMutability": "view",
      "type": "function"
    },
    {
      "inputs": [
        {
          "internalType": "address",
          "name": "operator",
          "type": "address"
        },
        {
          "internalType": "bool",
          "name": "approved",
          "type": "bool"
        }
      ],
      "name": "setApprovalForAll",
      "outputs": [],
      "stateMutability": "nonpayable",
      "type": "function"
    },
    {
      "inputs": [
        {
          "internalType": "address",
          "name": "minter",
          "type": "address"
        },
        {
          "internalType": "bool",
          "name": "allowed",
          "type": "bool"
        }
      ],
      "name": "setApprovedMinter",
      "outputs": [],
      "stateMutability": "nonpayable",
      "type": "function"
    },
    {
      "inputs": [
        {
          "internalType": "string",
          "name": "_newBaseURI",
          "type": "string"
        }
      ],
      "name": "setBaseURI",
      "outputs": [],
      "stateMutability": "nonpayable",
      "type": "function"
    },
    {
      "inputs": [
        {
          "internalType": "uint256",
          "name": "_salePrice",
          "type": "uint256"
        }
      ],
      "name": "setSalePrice",
      "outputs": [],
      "stateMutability": "nonpayable",
      "type": "function"
    },
    {
      "inputs": [
        {
          "internalType": "bytes4",
          "name": "interfaceId",
          "type": "bytes4"
        }
      ],
      "name": "supportsInterface",
      "outputs": [
        {
          "internalType": "bool",
          "name": "",
          "type": "bool"
        }
      ],
      "stateMutability": "view",
      "type": "function"
    },
    {
      "inputs": [],
      "name": "symbol",
      "outputs": [
        {
          "internalType": "string",
          "name": "",
          "type": "string"
        }
      ],
      "stateMutability": "view",
      "type": "function"
    },
    {
      "inputs": [
        {
          "internalType": "uint256",
          "name": "tokenId",
          "type": "uint256"
        }
      ],
      "name": "tokenURI",
      "outputs": [
        {
          "internalType": "string",
          "name": "",
          "type": "string"
        }
      ],
      "stateMutability": "view",
      "type": "function"
    },
    {
      "inputs": [],
      "name": "totalSupply",
      "outputs": [
        {
          "internalType": "uint256",
          "name": "",
          "type": "uint256"
        }
      ],
      "stateMutability": "view",
      "type": "function"
    },
    {
      "inputs": [
        {
          "internalType": "address",
          "name": "from",
          "type": "address"
        },
        {
          "internalType": "address",
          "name": "to",
          "type": "address"
        },
        {
          "internalType": "uint256",
          "name": "tokenId",
          "type": "uint256"
        }
      ],
      "name": "transferFrom",
      "outputs": [],
      "stateMutability": "nonpayable",
      "type": "function"
    },
    {
      "inputs": [
        {
          "internalType": "address",
          "name": "newOwner",
          "type": "address"
        }
      ],
      "name": "transferOwnership",
      "outputs": [],
      "stateMutability": "nonpayable",
      "type": "function"
    },
    {
      "inputs": [
        {
          "internalType": "string",
          "name": "_baseURI",
          "type": "string"
        }
      ],
      "name": "updateEditionURLs",
      "outputs": [],
      "stateMutability": "nonpayable",
      "type": "function"
    },
    {
      "inputs": [],
      "name": "withdraw",
      "outputs": [],
      "stateMutability": "nonpayable",
      "type": "function"
    }
  ],
  "bytecode": "0x60a06040523480156200001157600080fd5b506040516200275438038062002754833981016040819052620000349162000079565b6001600160a01b0390811660805260c980546001600160a01b03191692909116919091179055620000b8565b6001600160a01b03811681146200007657600080fd5b50565b600080604083850312156200008d57600080fd5b82516200009a8162000060565b6020840151909250620000ad8162000060565b809150509250929050565b608051612683620000d1600039600050506126836000f3fe6080604052600436106101f95760003560e01c80635b5cfe0d1161010d57806395d89b41116100a0578063c87b56dd1161006f578063c87b56dd14610561578063e985e9c514610581578063f2fde38b146105ca578063f4ed0f46146105ea578063f51f96dd1461060057600080fd5b806395d89b41146104ec578063a22cb46514610501578063a66ff0af14610521578063b88d4fde1461054157600080fd5b806370a08231116100dc57806370a082311461048d578063715018a6146104ad5780637284e416146104c25780638da5cb5b146104d757600080fd5b80635b5cfe0d146104305780636352211e1461045057806364edfbf0146104705780636c0360eb1461047857600080fd5b806323b872dd116101905780633ccfd60b1161015f5780633ccfd60b146103bb57806342842e0e146103d057806342966c68146103f057806354e04e061461041057806355f804b31461041057600080fd5b806323b872dd1461032757806328c5440f1461034757806329ec16dd1461035c5780632a55205a1461037c57600080fd5b80630b65b6e7116101cc5780630b65b6e7146102af5780630f6a9349146102d257806318160ddd146102f25780631919fed71461030757600080fd5b806301ffc9a7146101fe57806306fdde0314610233578063081812fc14610255578063095ea7b31461028d575b600080fd5b34801561020a57600080fd5b5061021e610219366004611f0b565b610616565b60405190151581526020015b60405180910390f35b34801561023f57600080fd5b50610248610641565b60405161022a9190611f75565b34801561026157600080fd5b50610275610270366004611f88565b6106d3565b6040516001600160a01b03909116815260200161022a565b34801561029957600080fd5b506102ad6102a8366004611fbd565b61076d565b005b3480156102bb57600080fd5b506102c4610883565b60405190815260200161022a565b3480156102de57600080fd5b506102c46102ed36600461202e565b6108b7565b3480156102fe57600080fd5b506102c4610916565b34801561031357600080fd5b506102ad610322366004611f88565b610923565b34801561033357600080fd5b506102ad6103423660046120db565b61098d565b34801561035357600080fd5b506102486109bf565b34801561036857600080fd5b506102ad610377366004612117565b6109ce565b34801561038857600080fd5b5061039c610397366004612153565b610a28565b604080516001600160a01b03909316835260208301919091520161022a565b3480156103c757600080fd5b506102ad610a85565b3480156103dc57600080fd5b506102ad6103eb3660046120db565b610ac7565b3480156103fc57600080fd5b506102ad61040b366004611f88565b610ae2565b34801561041c57600080fd5b506102ad61042b3660046121ed565b610b32565b34801561043c57600080fd5b506102ad61044b366004612222565b610b78565b34801561045c57600080fd5b5061027561046b366004611f88565b610c93565b6102c4610d0a565b34801561048457600080fd5b50610248610e24565b34801561049957600080fd5b506102c46104a83660046122f3565b610eb2565b3480156104b957600080fd5b506102ad610f39565b3480156104ce57600080fd5b50610248610f72565b3480156104e357600080fd5b50610275610f7f565b3480156104f857600080fd5b50610248610f93565b34801561050d57600080fd5b506102ad61051c366004612117565b610fa2565b34801561052d57600080fd5b506102c461053c3660046122f3565b610fad565b34801561054d57600080fd5b506102ad61055c36600461230e565b611069565b34801561056d57600080fd5b5061024861057c366004611f88565b6110a1565b34801561058d57600080fd5b5061021e61059c36600461238a565b6001600160a01b039182166000908152606a6020908152604080832093909416825291909152205460ff1690565b3480156105d657600080fd5b506102ad6105e53660046122f3565b6112ec565b3480156105f657600080fd5b506102c460cc5481565b34801561060c57600080fd5b506102c460d05481565b600063152a902d60e11b6001600160e01b03198316148061063b575061063b82611389565b92915050565b606060658054610650906123bd565b80601f016020809104026020016040519081016040528092919081815260200182805461067c906123bd565b80156106c95780601f1061069e576101008083540402835291602001916106c9565b820191906000526020600020905b8154815290600101906020018083116106ac57829003601f168201915b5050505050905090565b6000818152606760205260408120546001600160a01b03166107515760405162461bcd60e51b815260206004820152602c60248201527f4552433732313a20617070726f76656420717565727920666f72206e6f6e657860448201526b34b9ba32b73a103a37b5b2b760a11b60648201526084015b60405180910390fd5b506000908152606960205260409020546001600160a01b031690565b600061077882610c93565b9050806001600160a01b0316836001600160a01b031614156107e65760405162461bcd60e51b815260206004820152602160248201527f4552433732313a20617070726f76616c20746f2063757272656e74206f776e656044820152603960f91b6064820152608401610748565b336001600160a01b03821614806108025750610802813361059c565b6108745760405162461bcd60e51b815260206004820152603860248201527f4552433732313a20617070726f76652063616c6c6572206973206e6f74206f7760448201527f6e6572206e6f7220617070726f76656420666f7220616c6c00000000000000006064820152608401610748565b61087e83836113d9565b505050565b600060cc5460001415610897575060001990565b60cd5460cc546108a890600161240e565b6108b29190612426565b905090565b60006108c1611447565b61090d5760405162461bcd60e51b815260206004820152601d60248201527f4e6565647320746f20626520616e20616c6c6f776564206d696e7465720000006044820152606401610748565b61063b826114b7565b600060016108a860cd5490565b3361092c610f7f565b6001600160a01b0316146109525760405162461bcd60e51b81526004016107489061243d565b60d08190556040518181527fa6dc15bdb68da224c66db4b3838d9a2b205138e8cff6774e57d0af91e196d6229060200160405180910390a150565b610998335b82611598565b6109b45760405162461bcd60e51b815260040161074890612472565b61087e83838361168b565b606060ca8054610650906123bd565b336109d7610f7f565b6001600160a01b0316146109fd5760405162461bcd60e51b81526004016107489061243d565b6001600160a01b0391909116600090815260cf60205260409020805460ff1916911515919091179055565b60008080610a34610f7f565b6001600160a01b03161415610a5657610a4b610f7f565b600091509150610a7e565b610a5e610f7f565b61271060ce5485610a6f91906124c3565b610a7991906124f8565b915091505b9250929050565b33610a8e610f7f565b6001600160a01b031614610ab45760405162461bcd60e51b81526004016107489061243d565b610ac5610abf610f7f565b47611827565b565b61087e83838360405180602001604052806000815250611069565b610aeb33610992565b610b265760405162461bcd60e51b815260206004820152600c60248201526b139bdd08185c1c1c9bdd995960a21b6044820152606401610748565b610b2f81611940565b50565b33610b3b610f7f565b6001600160a01b031614610b615760405162461bcd60e51b81526004016107489061243d565b8051610b749060ca906020840190611e5c565b5050565b600054610100900460ff16610b935760005460ff1615610b97565b303b155b610bfa5760405162461bcd60e51b815260206004820152602e60248201527f496e697469616c697a61626c653a20636f6e747261637420697320616c72656160448201526d191e481a5b9a5d1a585b1a5e995960921b6064820152608401610748565b600054610100900460ff16158015610c1c576000805461ffff19166101011790555b610c2686866119db565b610c2e611a0c565b610c37886112ec565b8651610c4a9060ca9060208a0190611e5c565b508351610c5e9060cb906020870190611e5c565b5060cc83905560ce829055610c7760cd80546001019055565b8015610c89576000805461ff00191690555b5050505050505050565b6000818152606760205260408120546001600160a01b03168061063b5760405162461bcd60e51b815260206004820152602960248201527f4552433732313a206f776e657220717565727920666f72206e6f6e657869737460448201526832b73a103a37b5b2b760b91b6064820152608401610748565b60008060d05411610d4c5760405162461bcd60e51b815260206004820152600c60248201526b4e6f7420666f722073616c6560a01b6044820152606401610748565b60d0543414610d8b5760405162461bcd60e51b815260206004820152600b60248201526a57726f6e6720707269636560a81b6044820152606401610748565b604080516001808252818301909252600091602080830190803683370190505090503381600081518110610dc157610dc161250c565b6001600160a01b0390921660209283029190910182015260d0546040805191825233928201929092527f60a6c75698fadb72223808131f9f9bb9db3afa32122db6d94fb8fc985a504baa910160405180910390a1610e1e816114b7565b91505090565b60ca8054610e31906123bd565b80601f0160208091040260200160405190810160405280929190818152602001828054610e5d906123bd565b8015610eaa5780601f10610e7f57610100808354040283529160200191610eaa565b820191906000526020600020905b815481529060010190602001808311610e8d57829003601f168201915b505050505081565b60006001600160a01b038216610f1d5760405162461bcd60e51b815260206004820152602a60248201527f4552433732313a2062616c616e636520717565727920666f7220746865207a65604482015269726f206164647265737360b01b6064820152608401610748565b506001600160a01b031660009081526068602052604090205490565b33610f42610f7f565b6001600160a01b031614610f685760405162461bcd60e51b81526004016107489061243d565b610ac56000611a3b565b60cb8054610e31906123bd565b60006108b26097546001600160a01b031690565b606060668054610650906123bd565b610b74338383611a8d565b6000610fb7611447565b6110035760405162461bcd60e51b815260206004820152601d60248201527f4e6565647320746f20626520616e20616c6c6f776564206d696e7465720000006044820152606401610748565b6040805160018082528183019092526000916020808301908036833701905050905082816000815181106110395761103961250c565b60200260200101906001600160a01b031690816001600160a01b031681525050611062816114b7565b9392505050565b6110733383611598565b61108f5760405162461bcd60e51b815260040161074890612472565b61109b84848484611b5c565b50505050565b60606000826110b55750600360fc1b611108565b825b8015611106576110c9610100836124f8565b91506110d6600a82612522565b6110e190603061240e565b6110ef90600160f81b6124c3565b91909117906110ff600a826124f8565b90506110b7565b505b600060ca8054611117906123bd565b80601f0160208091040260200160405190810160405280929190818152602001828054611143906123bd565b80156111905780601f1061116557610100808354040283529160200191611190565b820191906000526020600020905b81548152906001019060200180831161117357829003601f168201915b505050505090506000602060ff1682516111aa919061240e565b67ffffffffffffffff8111156111c2576111c2611fe7565b6040519080825280601f01601f1916602001820160405280156111ec576020820181803683370190505b5090506000805b83518260ff16101561126b57838260ff16815181106112145761121461250c565b602001015160f81c60f81b838260ff16815181106112345761123461250c565b60200101906001600160f81b031916908160001a9053508061125581612536565b915050818061126390612536565b9250506111f3565b600091505b602060ff831610156112e157848260ff16602081106112915761129161250c565b1a60f81b838260ff16815181106112aa576112aa61250c565b60200101906001600160f81b031916908160001a905350806112cb81612536565b91505081806112d990612536565b925050611270565b509095945050505050565b336112f5610f7f565b6001600160a01b03161461131b5760405162461bcd60e51b81526004016107489061243d565b6001600160a01b0381166113805760405162461bcd60e51b815260206004820152602660248201527f4f776e61626c653a206e6577206f776e657220697320746865207a65726f206160448201526564647265737360d01b6064820152608401610748565b610b2f81611a3b565b60006001600160e01b031982166380ac58cd60e01b14806113ba57506001600160e01b03198216635b5e139f60e01b145b8061063b57506301ffc9a760e01b6001600160e01b031983161461063b565b600081815260696020526040902080546001600160a01b0319166001600160a01b038416908117909155819061140e82610c93565b6001600160a01b03167f8c5be1e5ebec7d5bd14f71427d1e84f3dd0314c0f7b2291e5b200ac8c7c3b92560405160405180910390a45050565b600033611452610f7f565b6001600160a01b031614156114675750600190565b6000805260cf6020527fe02c59459e6ae69bba35526a32783b104c6119df0d640a9ac4990ec2f8d493a95460ff16156114a05750600190565b5033600090815260cf602052604090205460ff1690565b6000806114c360cd5490565b9050600060018451836114d6919061240e565b6114e09190612426565b905060cc54600014806114f5575060cc548111155b61152c5760405162461bcd60e51b815260206004820152600860248201526714dbdb19081bdd5d60c21b6044820152606401610748565b8061153660cd5490565b1161158c57611579848361154960cd5490565b6115539190612426565b815181106115635761156361250c565b602002602001015161157460cd5490565b611b8f565b61158760cd80546001019055565b61152c565b60cd545b949350505050565b6000818152606760205260408120546001600160a01b03166116115760405162461bcd60e51b815260206004820152602c60248201527f4552433732313a206f70657261746f7220717565727920666f72206e6f6e657860448201526b34b9ba32b73a103a37b5b2b760a11b6064820152608401610748565b600061161c83610c93565b9050806001600160a01b0316846001600160a01b031614806116575750836001600160a01b031661164c846106d3565b6001600160a01b0316145b8061159057506001600160a01b038082166000908152606a602090815260408083209388168352929052205460ff16611590565b826001600160a01b031661169e82610c93565b6001600160a01b0316146117025760405162461bcd60e51b815260206004820152602560248201527f4552433732313a207472616e736665722066726f6d20696e636f72726563742060448201526437bbb732b960d91b6064820152608401610748565b6001600160a01b0382166117645760405162461bcd60e51b8152602060048201526024808201527f4552433732313a207472616e7366657220746f20746865207a65726f206164646044820152637265737360e01b6064820152608401610748565b61176f6000826113d9565b6001600160a01b0383166000908152606860205260408120805460019290611798908490612426565b90915550506001600160a01b03821660009081526068602052604081208054600192906117c690849061240e565b909155505060008181526067602052604080822080546001600160a01b0319166001600160a01b0386811691821790925591518493918716917fddf252ad1be2c89b69c2b068fc378daa952ba7f163c4a11628f55a4df523b3ef91a4505050565b804710156118775760405162461bcd60e51b815260206004820152601d60248201527f416464726573733a20696e73756666696369656e742062616c616e63650000006044820152606401610748565b6000826001600160a01b03168260405160006040518083038185875af1925050503d80600081146118c4576040519150601f19603f3d011682016040523d82523d6000602084013e6118c9565b606091505b505090508061087e5760405162461bcd60e51b815260206004820152603a60248201527f416464726573733a20756e61626c6520746f2073656e642076616c75652c207260448201527f6563697069656e74206d617920686176652072657665727465640000000000006064820152608401610748565b600061194b82610c93565b90506119586000836113d9565b6001600160a01b0381166000908152606860205260408120805460019290611981908490612426565b909155505060008281526067602052604080822080546001600160a01b0319169055518391906001600160a01b038416907fddf252ad1be2c89b69c2b068fc378daa952ba7f163c4a11628f55a4df523b3ef908390a45050565b600054610100900460ff16611a025760405162461bcd60e51b815260040161074890612556565b610b748282611cd1565b600054610100900460ff16611a335760405162461bcd60e51b815260040161074890612556565b610ac5611d1f565b609780546001600160a01b038381166001600160a01b0319831681179093556040519116919082907f8be0079c531659141344cd1fd0a4f28419497f9722a3daafe3b4186f6b6457e090600090a35050565b816001600160a01b0316836001600160a01b03161415611aef5760405162461bcd60e51b815260206004820152601960248201527f4552433732313a20617070726f766520746f2063616c6c6572000000000000006044820152606401610748565b6001600160a01b038381166000818152606a6020908152604080832094871680845294825291829020805460ff191686151590811790915591519182527f17307eab39ab6107e8899845ad3d59bd9653f200f220920489ca2b5937696c31910160405180910390a3505050565b611b6784848461168b565b611b7384848484611d4f565b61109b5760405162461bcd60e51b8152600401610748906125a1565b6001600160a01b038216611be55760405162461bcd60e51b815260206004820181905260248201527f4552433732313a206d696e7420746f20746865207a65726f20616464726573736044820152606401610748565b6000818152606760205260409020546001600160a01b031615611c4a5760405162461bcd60e51b815260206004820152601c60248201527f4552433732313a20746f6b656e20616c7265616479206d696e746564000000006044820152606401610748565b6001600160a01b0382166000908152606860205260408120805460019290611c7390849061240e565b909155505060008181526067602052604080822080546001600160a01b0319166001600160a01b03861690811790915590518392907fddf252ad1be2c89b69c2b068fc378daa952ba7f163c4a11628f55a4df523b3ef908290a45050565b600054610100900460ff16611cf85760405162461bcd60e51b815260040161074890612556565b8151611d0b906065906020850190611e5c565b50805161087e906066906020840190611e5c565b600054610100900460ff16611d465760405162461bcd60e51b815260040161074890612556565b610ac533611a3b565b60006001600160a01b0384163b15611e5157604051630a85bd0160e11b81526001600160a01b0385169063150b7a0290611d939033908990889088906004016125f3565b602060405180830381600087803b158015611dad57600080fd5b505af1925050508015611ddd575060408051601f3d908101601f19168201909252611dda91810190612630565b60015b611e37573d808015611e0b576040519150601f19603f3d011682016040523d82523d6000602084013e611e10565b606091505b508051611e2f5760405162461bcd60e51b8152600401610748906125a1565b805181602001fd5b6001600160e01b031916630a85bd0160e11b149050611590565b506001949350505050565b828054611e68906123bd565b90600052602060002090601f016020900481019282611e8a5760008555611ed0565b82601f10611ea357805160ff1916838001178555611ed0565b82800160010185558215611ed0579182015b82811115611ed0578251825591602001919060010190611eb5565b50611edc929150611ee0565b5090565b5b80821115611edc5760008155600101611ee1565b6001600160e01b031981168114610b2f57600080fd5b600060208284031215611f1d57600080fd5b813561106281611ef5565b6000815180845260005b81811015611f4e57602081850181015186830182015201611f32565b81811115611f60576000602083870101525b50601f01601f19169290920160200192915050565b6020815260006110626020830184611f28565b600060208284031215611f9a57600080fd5b5035919050565b80356001600160a01b0381168114611fb857600080fd5b919050565b60008060408385031215611fd057600080fd5b611fd983611fa1565b946020939093013593505050565b634e487b7160e01b600052604160045260246000fd5b604051601f8201601f1916810167ffffffffffffffff8111828210171561202657612026611fe7565b604052919050565b6000602080838503121561204157600080fd5b823567ffffffffffffffff8082111561205957600080fd5b818501915085601f83011261206d57600080fd5b81358181111561207f5761207f611fe7565b8060051b9150612090848301611ffd565b81815291830184019184810190888411156120aa57600080fd5b938501935b838510156120cf576120c085611fa1565b825293850193908501906120af565b98975050505050505050565b6000806000606084860312156120f057600080fd5b6120f984611fa1565b925061210760208501611fa1565b9150604084013590509250925092565b6000806040838503121561212a57600080fd5b61213383611fa1565b91506020830135801515811461214857600080fd5b809150509250929050565b6000806040838503121561216657600080fd5b50508035926020909101359150565b600067ffffffffffffffff83111561218f5761218f611fe7565b6121a2601f8401601f1916602001611ffd565b90508281528383830111156121b657600080fd5b828260208301376000602084830101529392505050565b600082601f8301126121de57600080fd5b61106283833560208501612175565b6000602082840312156121ff57600080fd5b813567ffffffffffffffff81111561221657600080fd5b611590848285016121cd565b600080600080600080600060e0888a03121561223d57600080fd5b61224688611fa1565b9650602088013567ffffffffffffffff8082111561226357600080fd5b61226f8b838c016121cd565b975060408a013591508082111561228557600080fd5b6122918b838c016121cd565b965060608a01359150808211156122a757600080fd5b6122b38b838c016121cd565b955060808a01359150808211156122c957600080fd5b506122d68a828b016121cd565b93505060a0880135915060c0880135905092959891949750929550565b60006020828403121561230557600080fd5b61106282611fa1565b6000806000806080858703121561232457600080fd5b61232d85611fa1565b935061233b60208601611fa1565b925060408501359150606085013567ffffffffffffffff81111561235e57600080fd5b8501601f8101871361236f57600080fd5b61237e87823560208401612175565b91505092959194509250565b6000806040838503121561239d57600080fd5b6123a683611fa1565b91506123b460208401611fa1565b90509250929050565b600181811c908216806123d157607f821691505b602082108114156123f257634e487b7160e01b600052602260045260246000fd5b50919050565b634e487b7160e01b600052601160045260246000fd5b60008219821115612421576124216123f8565b500190565b600082821015612438576124386123f8565b500390565b6020808252818101527f4f776e61626c653a2063616c6c6572206973206e6f7420746865206f776e6572604082015260600190565b60208082526031908201527f4552433732313a207472616e736665722063616c6c6572206973206e6f74206f6040820152701ddb995c881b9bdc88185c1c1c9bdd9959607a1b606082015260800190565b60008160001904831182151516156124dd576124dd6123f8565b500290565b634e487b7160e01b600052601260045260246000fd5b600082612507576125076124e2565b500490565b634e487b7160e01b600052603260045260246000fd5b600082612531576125316124e2565b500690565b600060ff821660ff81141561254d5761254d6123f8565b60010192915050565b6020808252602b908201527f496e697469616c697a61626c653a20636f6e7472616374206973206e6f74206960408201526a6e697469616c697a696e6760a81b606082015260800190565b60208082526032908201527f4552433732313a207472616e7366657220746f206e6f6e20455243373231526560408201527131b2b4bb32b91034b6b83632b6b2b73a32b960711b606082015260800190565b6001600160a01b038581168252841660208201526040810183905260806060820181905260009061262690830184611f28565b9695505050505050565b60006020828403121561264257600080fd5b815161106281611ef556fea26469706673582212205bb475a9601ef4133d953029a9d66b31e71b382ba51fcf9ff704d23b248e7ea764736f6c63430008090033",
  "linkReferences": {},
  "deployedLinkReferences": {}
}