{
  "address": "0x7dE784A753a4adb66F92D079E52af59dB07b8C46",
  "abi": [
    {
      "inputs": [
        {
          "internalType": "address",
          "name": "_implementation",
          "type": "address"
        }
      ],
      "stateMutability": "nonpayable",
      "type": "constructor"
    },
    {
      "anonymous": false,
      "inputs": [
        {
          "indexed": true,
          "internalType": "uint256",
          "name": "editionId",
          "type": "uint256"
        },
        {
          "indexed": true,
          "internalType": "address",
          "name": "creator",
          "type": "address"
        },
        {
          "indexed": false,
          "internalType": "uint256",
          "name": "editionSize",
          "type": "uint256"
        },
        {
          "indexed": false,
          "internalType": "address",
          "name": "editionContractAddress",
          "type": "address"
        }
      ],
      "name": "CreatedEdition",
      "type": "event"
    },
    {
      "inputs": [
        {
          "internalType": "string",
          "name": "_baseURI",
          "type": "string"
        },
        {
          "internalType": "string",
          "name": "_name",
          "type": "string"
        },
        {
          "internalType": "string",
          "name": "_symbol",
          "type": "string"
        },
        {
          "internalType": "string",
          "name": "_description",
          "type": "string"
        },
        {
          "internalType": "uint256",
          "name": "_editionSize",
          "type": "uint256"
        },
        {
          "internalType": "uint256",
          "name": "_royaltyBPS",
          "type": "uint256"
        }
      ],
      "name": "createEdition",
      "outputs": [
        {
          "internalType": "uint256",
          "name": "",
          "type": "uint256"
        }
      ],
      "stateMutability": "nonpayable",
      "type": "function"
    },
    {
      "inputs": [
        {
          "internalType": "uint256",
          "name": "editionId",
          "type": "uint256"
        }
      ],
      "name": "getEditionAtId",
      "outputs": [
        {
          "internalType": "contract erc721Dynamic",
          "name": "",
          "type": "address"
        }
      ],
      "stateMutability": "view",
      "type": "function"
    },
    {
      "inputs": [],
      "name": "implementation",
      "outputs": [
        {
          "internalType": "address",
          "name": "",
          "type": "address"
        }
      ],
      "stateMutability": "view",
      "type": "function"
    }
  ],
  "transactionHash": "0x58a788c8273b24e8b6e4c46365b5fc98c25b1d1a144e4c30c6a74c9f96086dda",
  "args": [
    "0x2ca5ef3E63c91f5B7b013EE3ECf8EE6371BC5a1c"
  ],
  "numDeployments": 1,
  "solcInputHash": "177e4e466e3d8cb04bf95a27ac118dad",
  "bytecode": "0x608060405234801561001057600080fd5b5060405161063238038061063283398101604081905261002f91610054565b600180546001600160a01b0319166001600160a01b0392909216919091179055610084565b60006020828403121561006657600080fd5b81516001600160a01b038116811461007d57600080fd5b9392505050565b61059f806100936000396000f3fe608060405234801561001057600080fd5b50600436106100415760003560e01c80635c60da1b14610046578063ac52edfd14610076578063eda1f09b14610089575b600080fd5b600154610059906001600160a01b031681565b6040516001600160a01b0390911681526020015b60405180910390f35b610059610084366004610305565b6100aa565b61009c6100973660046103c1565b610149565b60405190815260200161006d565b6001546040805160208101849052600092610143926001600160a01b0390911691016040516020818303038152906040526100e490610480565b30604051733d602d80600a3d3981f3363d3d373d3d3d363d7360601b8152606093841b60148201526f5af43d82803e903d91602b57fd5bf3ff60801b6028820152921b6038830152604c8201526037808220606c830152605591012090565b92915050565b60008061015560005490565b6001546040805160208101849052929350600092610195926001600160a01b0316910160405160208183030381529060405261019090610480565b610261565b604051635b5cfe0d60e01b81529091506001600160a01b03821690635b5cfe0d906101d09033908d908d908d908d908d908d906004016104f4565b600060405180830381600087803b1580156101ea57600080fd5b505af11580156101fe573d6000803e3d6000fd5b5050604080518881526001600160a01b03851660208201523393508592507f152014b245a12a32e125b8a4227ff155636ca7ca6ba15d04c5d07966e55c5cc7910160405180910390a3610255600080546001019055565b50979650505050505050565b6000604051733d602d80600a3d3981f3363d3d373d3d3d363d7360601b81528360601b60148201526e5af43d82803e903d91602b57fd5bf360881b6028820152826037826000f59150506001600160a01b0381166101435760405162461bcd60e51b815260206004820152601760248201527f455243313136373a2063726561746532206661696c6564000000000000000000604482015260640160405180910390fd5b60006020828403121561031757600080fd5b5035919050565b634e487b7160e01b600052604160045260246000fd5b600082601f83011261034557600080fd5b813567ffffffffffffffff808211156103605761036061031e565b604051601f8301601f19908116603f011681019082821181831017156103885761038861031e565b816040528381528660208588010111156103a157600080fd5b836020870160208301376000602085830101528094505050505092915050565b60008060008060008060c087890312156103da57600080fd5b863567ffffffffffffffff808211156103f257600080fd5b6103fe8a838b01610334565b9750602089013591508082111561041457600080fd5b6104208a838b01610334565b9650604089013591508082111561043657600080fd5b6104428a838b01610334565b9550606089013591508082111561045857600080fd5b5061046589828a01610334565b9350506080870135915060a087013590509295509295509295565b805160208083015191908110156104a1576000198160200360031b1b821691505b50919050565b6000815180845260005b818110156104cd576020818501810151868301820152016104b1565b818111156104df576000602083870101525b50601f01601f19169290920160200192915050565b6001600160a01b038816815260e060208201819052600090610518908301896104a7565b828103604084015261052a81896104a7565b9050828103606084015261053e81886104a7565b9050828103608084015261055281876104a7565b60a0840195909552505060c001529594505050505056fea2646970667358221220eb9e5bf7c689f12889915bdb93cb7ac7a9d2e95bd43155b6e50871a5b8f43c6964736f6c634300080a0033",
  "devdoc": {
    "kind": "dev",
    "methods": {},
    "version": 1
  },
  "userdoc": {
    "kind": "user",
    "methods": {
      "constructor": {
        "notice": "Initializes factory with address of implementation logic"
      },
      "implementation()": {
        "notice": "Address for implementation of erc721Dynamic to clone"
      }
    },
    "version": 1
  },
  "storageLayout": {
    "storage": [
      {
        "astId": 14857,
        "contract": "contracts/dFactory.sol:dFactory",
        "label": "atContract",
        "offset": 0,
        "slot": "0",
        "type": "t_struct(Counter)5500_storage"
      },
      {
        "astId": 14860,
        "contract": "contracts/dFactory.sol:dFactory",
        "label": "implementation",
        "offset": 0,
        "slot": "1",
        "type": "t_address"
      }
    ],
    "types": {
      "t_address": {
        "encoding": "inplace",
        "label": "address",
        "numberOfBytes": "20"
      },
      "t_struct(Counter)5500_storage": {
        "encoding": "inplace",
        "label": "struct CountersUpgradeable.Counter",
        "members": [
          {
            "astId": 5499,
            "contract": "contracts/dFactory.sol:dFactory",
            "label": "_value",
            "offset": 0,
            "slot": "0",
            "type": "t_uint256"
          }
        ],
        "numberOfBytes": "32"
      },
      "t_uint256": {
        "encoding": "inplace",
        "label": "uint256",
        "numberOfBytes": "32"
      }
    }
  }
}