{
  "address": "0xCFAD79F39cAb308866fEc2A83D699d10214dfA1D",
  "abi": [
    {
      "inputs": [
        {
          "internalType": "address",
          "name": "marketplaceAddress",
          "type": "address"
        }
      ],
      "stateMutability": "nonpayable",
      "type": "constructor"
    },
    {
      "anonymous": false,
      "inputs": [
        {
          "indexed": true,
          "internalType": "address",
          "name": "owner",
          "type": "address"
        },
        {
          "indexed": true,
          "internalType": "address",
          "name": "approved",
          "type": "address"
        },
        {
          "indexed": true,
          "internalType": "uint256",
          "name": "tokenId",
          "type": "uint256"
        }
      ],
      "name": "Approval",
      "type": "event"
    },
    {
      "anonymous": false,
      "inputs": [
        {
          "indexed": true,
          "internalType": "address",
          "name": "owner",
          "type": "address"
        },
        {
          "indexed": true,
          "internalType": "address",
          "name": "operator",
          "type": "address"
        },
        {
          "indexed": false,
          "internalType": "bool",
          "name": "approved",
          "type": "bool"
        }
      ],
      "name": "ApprovalForAll",
      "type": "event"
    },
    {
      "anonymous": false,
      "inputs": [
        {
          "indexed": true,
          "internalType": "address",
          "name": "previousOwner",
          "type": "address"
        },
        {
          "indexed": true,
          "internalType": "address",
          "name": "newOwner",
          "type": "address"
        }
      ],
      "name": "OwnershipTransferred",
      "type": "event"
    },
    {
      "anonymous": false,
      "inputs": [
        {
          "indexed": true,
          "internalType": "uint256",
          "name": "supply",
          "type": "uint256"
        }
      ],
      "name": "SupplyChanged",
      "type": "event"
    },
    {
      "anonymous": false,
      "inputs": [
        {
          "indexed": true,
          "internalType": "address",
          "name": "from",
          "type": "address"
        },
        {
          "indexed": true,
          "internalType": "address",
          "name": "to",
          "type": "address"
        },
        {
          "indexed": true,
          "internalType": "uint256",
          "name": "tokenId",
          "type": "uint256"
        }
      ],
      "name": "Transfer",
      "type": "event"
    },
    {
      "inputs": [
        {
          "internalType": "address",
          "name": "to",
          "type": "address"
        },
        {
          "internalType": "uint256",
          "name": "tokenId",
          "type": "uint256"
        }
      ],
      "name": "approve",
      "outputs": [],
      "stateMutability": "nonpayable",
      "type": "function"
    },
    {
      "inputs": [],
      "name": "availableTokenCount",
      "outputs": [
        {
          "internalType": "uint256",
          "name": "",
          "type": "uint256"
        }
      ],
      "stateMutability": "view",
      "type": "function"
    },
    {
      "inputs": [
        {
          "internalType": "address",
          "name": "owner",
          "type": "address"
        }
      ],
      "name": "balanceOf",
      "outputs": [
        {
          "internalType": "uint256",
          "name": "",
          "type": "uint256"
        }
      ],
      "stateMutability": "view",
      "type": "function"
    },
    {
      "inputs": [],
      "name": "baseURI",
      "outputs": [
        {
          "internalType": "string",
          "name": "",
          "type": "string"
        }
      ],
      "stateMutability": "view",
      "type": "function"
    },
    {
      "inputs": [],
      "name": "cost",
      "outputs": [
        {
          "internalType": "uint256",
          "name": "",
          "type": "uint256"
        }
      ],
      "stateMutability": "view",
      "type": "function"
    },
    {
      "inputs": [],
      "name": "currentSupply",
      "outputs": [
        {
          "internalType": "uint256",
          "name": "",
          "type": "uint256"
        }
      ],
      "stateMutability": "view",
      "type": "function"
    },
    {
      "inputs": [
        {
          "internalType": "uint256",
          "name": "tokenId",
          "type": "uint256"
        }
      ],
      "name": "getApproved",
      "outputs": [
        {
          "internalType": "address",
          "name": "",
          "type": "address"
        }
      ],
      "stateMutability": "view",
      "type": "function"
    },
    {
      "inputs": [
        {
          "internalType": "address",
          "name": "owner",
          "type": "address"
        },
        {
          "internalType": "address",
          "name": "operator",
          "type": "address"
        }
      ],
      "name": "isApprovedForAll",
      "outputs": [
        {
          "internalType": "bool",
          "name": "",
          "type": "bool"
        }
      ],
      "stateMutability": "view",
      "type": "function"
    },
    {
      "inputs": [],
      "name": "maxMintAmount",
      "outputs": [
        {
          "internalType": "uint256",
          "name": "",
          "type": "uint256"
        }
      ],
      "stateMutability": "view",
      "type": "function"
    },
    {
      "inputs": [],
      "name": "maxSupply",
      "outputs": [
        {
          "internalType": "uint256",
          "name": "",
          "type": "uint256"
        }
      ],
      "stateMutability": "view",
      "type": "function"
    },
    {
      "inputs": [
        {
          "internalType": "uint256",
          "name": "_mintAmount",
          "type": "uint256"
        }
      ],
      "name": "mint",
      "outputs": [],
      "stateMutability": "payable",
      "type": "function"
    },
    {
      "inputs": [],
      "name": "name",
      "outputs": [
        {
          "internalType": "string",
          "name": "",
          "type": "string"
        }
      ],
      "stateMutability": "view",
      "type": "function"
    },
    {
      "inputs": [],
      "name": "owner",
      "outputs": [
        {
          "internalType": "address",
          "name": "",
          "type": "address"
        }
      ],
      "stateMutability": "view",
      "type": "function"
    },
    {
      "inputs": [],
      "name": "ownerMintAmount",
      "outputs": [
        {
          "internalType": "uint256",
          "name": "",
          "type": "uint256"
        }
      ],
      "stateMutability": "view",
      "type": "function"
    },
    {
      "inputs": [
        {
          "internalType": "uint256",
          "name": "tokenId",
          "type": "uint256"
        }
      ],
      "name": "ownerOf",
      "outputs": [
        {
          "internalType": "address",
          "name": "",
          "type": "address"
        }
      ],
      "stateMutability": "view",
      "type": "function"
    },
    {
      "inputs": [
        {
          "internalType": "bool",
          "name": "_state",
          "type": "bool"
        }
      ],
      "name": "pause",
      "outputs": [],
      "stateMutability": "nonpayable",
      "type": "function"
    },
    {
      "inputs": [],
      "name": "paused",
      "outputs": [
        {
          "internalType": "bool",
          "name": "",
          "type": "bool"
        }
      ],
      "stateMutability": "view",
      "type": "function"
    },
    {
      "inputs": [],
      "name": "renounceOwnership",
      "outputs": [],
      "stateMutability": "nonpayable",
      "type": "function"
    },
    {
      "inputs": [
        {
          "internalType": "address",
          "name": "from",
          "type": "address"
        },
        {
          "internalType": "address",
          "name": "to",
          "type": "address"
        },
        {
          "internalType": "uint256",
          "name": "tokenId",
          "type": "uint256"
        }
      ],
      "name": "safeTransferFrom",
      "outputs": [],
      "stateMutability": "nonpayable",
      "type": "function"
    },
    {
      "inputs": [
        {
          "internalType": "address",
          "name": "from",
          "type": "address"
        },
        {
          "internalType": "address",
          "name": "to",
          "type": "address"
        },
        {
          "internalType": "uint256",
          "name": "tokenId",
          "type": "uint256"
        },
        {
          "internalType": "bytes",
          "name": "_data",
          "type": "bytes"
        }
      ],
      "name": "safeTransferFrom",
      "outputs": [],
      "stateMutability": "nonpayable",
      "type": "function"
    },
    {
      "inputs": [
        {
          "internalType": "address",
          "name": "operator",
          "type": "address"
        },
        {
          "internalType": "bool",
          "name": "approved",
          "type": "bool"
        }
      ],
      "name": "setApprovalForAll",
      "outputs": [],
      "stateMutability": "nonpayable",
      "type": "function"
    },
    {
      "inputs": [
        {
          "internalType": "string",
          "name": "_newBaseURI",
          "type": "string"
        }
      ],
      "name": "setBaseURI",
      "outputs": [],
      "stateMutability": "nonpayable",
      "type": "function"
    },
    {
      "inputs": [
        {
          "internalType": "uint256",
          "name": "_newCost",
          "type": "uint256"
        }
      ],
      "name": "setCost",
      "outputs": [],
      "stateMutability": "nonpayable",
      "type": "function"
    },
    {
      "inputs": [
        {
          "internalType": "bytes4",
          "name": "interfaceId",
          "type": "bytes4"
        }
      ],
      "name": "supportsInterface",
      "outputs": [
        {
          "internalType": "bool",
          "name": "",
          "type": "bool"
        }
      ],
      "stateMutability": "view",
      "type": "function"
    },
    {
      "inputs": [],
      "name": "symbol",
      "outputs": [
        {
          "internalType": "string",
          "name": "",
          "type": "string"
        }
      ],
      "stateMutability": "view",
      "type": "function"
    },
    {
      "inputs": [
        {
          "internalType": "uint256",
          "name": "index",
          "type": "uint256"
        }
      ],
      "name": "tokenByIndex",
      "outputs": [
        {
          "internalType": "uint256",
          "name": "",
          "type": "uint256"
        }
      ],
      "stateMutability": "view",
      "type": "function"
    },
    {
      "inputs": [],
      "name": "tokenCount",
      "outputs": [
        {
          "internalType": "uint256",
          "name": "",
          "type": "uint256"
        }
      ],
      "stateMutability": "view",
      "type": "function"
    },
    {
      "inputs": [
        {
          "internalType": "address",
          "name": "owner",
          "type": "address"
        },
        {
          "internalType": "uint256",
          "name": "index",
          "type": "uint256"
        }
      ],
      "name": "tokenOfOwnerByIndex",
      "outputs": [
        {
          "internalType": "uint256",
          "name": "",
          "type": "uint256"
        }
      ],
      "stateMutability": "view",
      "type": "function"
    },
    {
      "inputs": [],
      "name": "tokenSupply",
      "outputs": [
        {
          "internalType": "uint256",
          "name": "",
          "type": "uint256"
        }
      ],
      "stateMutability": "view",
      "type": "function"
    },
    {
      "inputs": [
        {
          "internalType": "uint256",
          "name": "tokenId",
          "type": "uint256"
        }
      ],
      "name": "tokenURI",
      "outputs": [
        {
          "internalType": "string",
          "name": "",
          "type": "string"
        }
      ],
      "stateMutability": "view",
      "type": "function"
    },
    {
      "inputs": [],
      "name": "totalSupply",
      "outputs": [
        {
          "internalType": "uint256",
          "name": "",
          "type": "uint256"
        }
      ],
      "stateMutability": "view",
      "type": "function"
    },
    {
      "inputs": [
        {
          "internalType": "address",
          "name": "from",
          "type": "address"
        },
        {
          "internalType": "address",
          "name": "to",
          "type": "address"
        },
        {
          "internalType": "uint256",
          "name": "tokenId",
          "type": "uint256"
        }
      ],
      "name": "transferFrom",
      "outputs": [],
      "stateMutability": "nonpayable",
      "type": "function"
    },
    {
      "inputs": [
        {
          "internalType": "address",
          "name": "newOwner",
          "type": "address"
        }
      ],
      "name": "transferOwnership",
      "outputs": [],
      "stateMutability": "nonpayable",
      "type": "function"
    },
    {
      "inputs": [],
      "name": "withdraw",
      "outputs": [],
      "stateMutability": "payable",
      "type": "function"
    }
  ],
  "transactionHash": "0x39650bc7e9716f37ae9859cc04dc00d686f11da7a8e9fa0e1b51aa30449e40f9",
  "args": [
    "0x4d3A7251a7B5351067D00d17de3500dD722F416E"
  ],
  "numDeployments": 2,
  "solcInputHash": "fff31f023399183a0e97c58e18cf85a6",
  "bytecode": "0x6000600d5561010060405260506080818152906200274360a03980516200002f91600e91602090910190620003e8565b50660e35fa931a0000600f55612710601055606460115560016012556013805460ff191690553480156200006257600080fd5b50604051620027933803806200279383398101604081905262000085916200048e565b601054604080518082018252600981526842554e492047414e4760b81b60208083019182528351808501909452600484526342554e4960e01b9084015281516001938593929091620000d9918691620003e8565b508051620000ef906002906020840190620003e8565b5050506200010c620001066200015b60201b60201c565b6200015f565b600955600b555060146200011f620001b1565b81546001810183556000928352602090922090910155601580546001600160a01b0319166001600160a01b03929092169190911790556200056b565b3390565b600780546001600160a01b038381166001600160a01b0319831681179093556040519116919082907f8be0079c531659141344cd1fd0a4f28419497f9722a3daafe3b4186f6b6457e090600090a35050565b600080620001be6200036a565b11620002105760405162461bcd60e51b815260206004820152601860248201527f4e6f206d6f726520746f6b656e7320617661696c61626c650000000000000000604482015260640160405180910390fd5b60006200021c6200038a565b6009546200022b9190620004db565b6040516001600160601b031933606090811b8216602084015241901b166034820152446048820152456068820152426088820152909150600090829060a8016040516020818303038152906040528051906020012060001c6200028f919062000532565b6000818152600a602052604081205491925090620002af575080620002c0565b506000818152600a60205260409020545b600a6000620002d1600186620004db565b815260200190815260200160002054600014156200030b57620002f6600184620004db565b6000838152600a60205260409020556200033d565b600a60006200031c600186620004db565b81526020808201929092526040908101600090812054858252600a90935220555b62000352620003a360201b6200119a1760201c565b50600b54620003629082620004c0565b935050505090565b6000620003766200038a565b600954620003859190620004db565b905090565b6000620003856008620003db60201b620011bb1760201c565b600080620003bd6008620003db60201b620011bb1760201c565b9050620003d66008620003df60201b620011bf1760201c565b919050565b5490565b80546001019055565b828054620003f690620004f5565b90600052602060002090601f0160209004810192826200041a576000855562000465565b82601f106200043557805160ff191683800117855562000465565b8280016001018555821562000465579182015b828111156200046557825182559160200191906001019062000448565b506200047392915062000477565b5090565b5b8082111562000473576000815560010162000478565b600060208284031215620004a157600080fd5b81516001600160a01b0381168114620004b957600080fd5b9392505050565b60008219821115620004d657620004d662000555565b500190565b600082821015620004f057620004f062000555565b500390565b600181811c908216806200050a57607f821691505b602082108114156200052c57634e487b7160e01b600052602260045260246000fd5b50919050565b6000826200055057634e487b7160e01b600052601260045260246000fd5b500690565b634e487b7160e01b600052601160045260246000fd5b6121c8806200057b6000396000f3fe6080604052600436106101f95760003560e01c80636c0360eb1161010d578063a0712d68116100a0578063c87b56dd1161006f578063c87b56dd14610546578063d5abeb0114610566578063e14ca3531461057c578063e985e9c514610591578063f2fde38b146105da57600080fd5b8063a0712d68146104dd578063a22cb465146104f0578063b88d4fde14610510578063bb00c8f91461053057600080fd5b80637824407f116100dc5780637824407f146104805780638da5cb5b1461049557806395d89b41146104b35780639f181b5e146104c857600080fd5b80636c0360eb1461042057806370a0823114610435578063715018a614610455578063771282f61461046a57600080fd5b806323b872dd1161019057806344a0d68a1161015f57806344a0d68a146103865780634f6ccce7146103a657806355f804b3146103c65780635c975abb146103e65780636352211e1461040057600080fd5b806323b872dd1461031e5780632f745c591461033e5780633ccfd60b1461035e57806342842e0e1461036657600080fd5b8063095ea7b3116101cc578063095ea7b3146102af57806313faede6146102cf57806318160ddd146102f3578063239c70ae1461030857600080fd5b806301ffc9a7146101fe57806302329a291461023357806306fdde0314610255578063081812fc14610277575b600080fd5b34801561020a57600080fd5b5061021e610219366004611e5d565b6105fa565b60405190151581526020015b60405180910390f35b34801561023f57600080fd5b5061025361024e366004611e42565b610667565b005b34801561026157600080fd5b5061026a6106ad565b60405161022a9190611f91565b34801561028357600080fd5b50610297610292366004611ee0565b61073f565b6040516001600160a01b03909116815260200161022a565b3480156102bb57600080fd5b506102536102ca366004611e18565b6107ca565b3480156102db57600080fd5b506102e5600f5481565b60405190815260200161022a565b3480156102ff57600080fd5b506000546102e5565b34801561031457600080fd5b506102e560115481565b34801561032a57600080fd5b50610253610339366004611d36565b6108e2565b34801561034a57600080fd5b506102e5610359366004611e18565b6108ed565b610253610a4a565b34801561037257600080fd5b50610253610381366004611d36565b610ae8565b34801561039257600080fd5b506102536103a1366004611ee0565b610b03565b3480156103b257600080fd5b506102e56103c1366004611ee0565b610b32565b3480156103d257600080fd5b506102536103e1366004611e97565b610b94565b3480156103f257600080fd5b5060135461021e9060ff1681565b34801561040c57600080fd5b5061029761041b366004611ee0565b610bd5565b34801561042c57600080fd5b5061026a610be7565b34801561044157600080fd5b506102e5610450366004611ce8565b610c75565b34801561046157600080fd5b50610253610d06565b34801561047657600080fd5b506102e5600d5481565b34801561048c57600080fd5b506009546102e5565b3480156104a157600080fd5b506007546001600160a01b0316610297565b3480156104bf57600080fd5b5061026a610d3c565b3480156104d457600080fd5b506102e5610d4b565b6102536104eb366004611ee0565b610d5b565b3480156104fc57600080fd5b5061025361050b366004611dee565b610f12565b34801561051c57600080fd5b5061025361052b366004611d72565b610fd7565b34801561053c57600080fd5b506102e560125481565b34801561055257600080fd5b5061026a610561366004611ee0565b611010565b34801561057257600080fd5b506102e560105481565b34801561058857600080fd5b506102e56110eb565b34801561059d57600080fd5b5061021e6105ac366004611d03565b6001600160a01b03918216600090815260066020908152604080832093909416825291909152205460ff1690565b3480156105e657600080fd5b506102536105f5366004611ce8565b611102565b60006001600160e01b031982166380ac58cd60e01b148061062b57506001600160e01b03198216635b5e139f60e01b145b8061064657506001600160e01b0319821663780e9d6360e01b145b8061066157506301ffc9a760e01b6001600160e01b03198316145b92915050565b6007546001600160a01b0316331461069a5760405162461bcd60e51b815260040161069190611fa4565b60405180910390fd5b6013805460ff1916911515919091179055565b6060600180546106bc906120ba565b80601f01602080910402602001604051908101604052809291908181526020018280546106e8906120ba565b80156107355780601f1061070a57610100808354040283529160200191610735565b820191906000526020600020905b81548152906001019060200180831161071857829003601f168201915b5050505050905090565b600061074c826000541190565b6107ae5760405162461bcd60e51b815260206004820152602d60248201527f455243373231413a20617070726f76656420717565727920666f72206e6f6e6560448201526c3c34b9ba32b73a103a37b5b2b760991b6064820152608401610691565b506000908152600560205260409020546001600160a01b031690565b60006107d582610bd5565b9050806001600160a01b0316836001600160a01b031614156108445760405162461bcd60e51b815260206004820152602260248201527f455243373231413a20617070726f76616c20746f2063757272656e74206f776e60448201526132b960f11b6064820152608401610691565b336001600160a01b0382161480610860575061086081336105ac565b6108d25760405162461bcd60e51b815260206004820152603960248201527f455243373231413a20617070726f76652063616c6c6572206973206e6f74206f60448201527f776e6572206e6f7220617070726f76656420666f7220616c6c000000000000006064820152608401610691565b6108dd8383836111c8565b505050565b6108dd838383611224565b60006108f883610c75565b82106109515760405162461bcd60e51b815260206004820152602260248201527f455243373231413a206f776e657220696e646578206f7574206f6620626f756e604482015261647360f01b6064820152608401610691565b600080549080805b838110156109ea576000818152600360209081526040918290208251808401909352546001600160a01b038116808452600160a01b90910467ffffffffffffffff1691830191909152156109ac57805192505b876001600160a01b0316836001600160a01b031614156109e157868414156109da5750935061066192505050565b6001909301925b50600101610959565b5060405162461bcd60e51b815260206004820152602e60248201527f455243373231413a20756e61626c6520746f2067657420746f6b656e206f662060448201526d0deeedccae440c4f240d2dcc8caf60931b6064820152608401610691565b6007546001600160a01b03163314610a745760405162461bcd60e51b815260040161069190611fa4565b6000610a886007546001600160a01b031690565b6001600160a01b03164760405160006040518083038185875af1925050503d8060008114610ad2576040519150601f19603f3d011682016040523d82523d6000602084013e610ad7565b606091505b5050905080610ae557600080fd5b50565b6108dd83838360405180602001604052806000815250610fd7565b6007546001600160a01b03163314610b2d5760405162461bcd60e51b815260040161069190611fa4565b600f55565b600080548210610b905760405162461bcd60e51b815260206004820152602360248201527f455243373231413a20676c6f62616c20696e646578206f7574206f6620626f756044820152626e647360e81b6064820152608401610691565b5090565b6007546001600160a01b03163314610bbe5760405162461bcd60e51b815260040161069190611fa4565b8051610bd190600e906020840190611bbb565b5050565b6000610be082611509565b5192915050565b600e8054610bf4906120ba565b80601f0160208091040260200160405190810160405280929190818152602001828054610c20906120ba565b8015610c6d5780601f10610c4257610100808354040283529160200191610c6d565b820191906000526020600020905b815481529060010190602001808311610c5057829003601f168201915b505050505081565b60006001600160a01b038216610ce15760405162461bcd60e51b815260206004820152602b60248201527f455243373231413a2062616c616e636520717565727920666f7220746865207a60448201526a65726f206164647265737360a81b6064820152608401610691565b506001600160a01b03166000908152600460205260409020546001600160801b031690565b6007546001600160a01b03163314610d305760405162461bcd60e51b815260040161069190611fa4565b610d3a60006115e0565b565b6060600280546106bc906120ba565b6000610d5660085490565b905090565b60135460ff1615610da05760405162461bcd60e51b815260206004820152600f60248201526e14185d5cd9590810dbdb9d1c9858dd608a1b6044820152606401610691565b60008111610de15760405162461bcd60e51b815260206004820152600e60248201526d1399595908185b88185b5bdd5b9d60921b6044820152606401610691565b601154811115610e1d5760405162461bcd60e51b8152602060048201526007602482015266546f206d616e7960c81b6044820152606401610691565b60105481600d54610e2e919061202c565b1115610e6e5760405162461bcd60e51b815260206004820152600f60248201526e139bdd08195b9bdd59da081b19599d608a1b6044820152606401610691565b6007546001600160a01b03163314610ec95780600f54610e8e9190612058565b341015610ec95760405162461bcd60e51b8152602060048201526009602482015268426164206d6174687360b81b6044820152606401610691565b60015b818111610bd1576000610edd611632565b9050610ee933826117ca565b600d8054906000610ef9836120f5565b9190505550508080610f0a906120f5565b915050610ecc565b6001600160a01b038216331415610f6b5760405162461bcd60e51b815260206004820152601a60248201527f455243373231413a20617070726f766520746f2063616c6c65720000000000006044820152606401610691565b3360008181526006602090815260408083206001600160a01b03871680855290835292819020805460ff191686151590811790915590519081529192917f17307eab39ab6107e8899845ad3d59bd9653f200f220920489ca2b5937696c31910160405180910390a35050565b610fe2848484611224565b610fee848484846117e4565b61100a5760405162461bcd60e51b815260040161069190611fd9565b50505050565b606061101d826000541190565b6110815760405162461bcd60e51b815260206004820152602f60248201527f4552433732314d657461646174613a2055524920717565727920666f72206e6f60448201526e3732bc34b9ba32b73a103a37b5b2b760891b6064820152608401610691565b600061109860408051602081019091526000815290565b90508051600014156110b957604051806020016040528060008152506110e4565b806110c3846118f2565b6040516020016110d4929190611f25565b6040516020818303038152906040525b9392505050565b60006110f5610d4b565b600954610d569190612077565b6007546001600160a01b0316331461112c5760405162461bcd60e51b815260040161069190611fa4565b6001600160a01b0381166111915760405162461bcd60e51b815260206004820152602660248201527f4f776e61626c653a206e6577206f776e657220697320746865207a65726f206160448201526564647265737360d01b6064820152608401610691565b610ae5816115e0565b6000806111a660085490565b90506111b6600880546001019055565b919050565b5490565b80546001019055565b60008281526005602052604080822080546001600160a01b0319166001600160a01b0387811691821790925591518593918516917f8c5be1e5ebec7d5bd14f71427d1e84f3dd0314c0f7b2291e5b200ac8c7c3b92591a4505050565b600061122f82611509565b80519091506000906001600160a01b0316336001600160a01b0316148061126657503361125b8461073f565b6001600160a01b0316145b806112785750815161127890336105ac565b9050806112e25760405162461bcd60e51b815260206004820152603260248201527f455243373231413a207472616e736665722063616c6c6572206973206e6f74206044820152711bdddb995c881b9bdc88185c1c1c9bdd995960721b6064820152608401610691565b846001600160a01b031682600001516001600160a01b0316146113565760405162461bcd60e51b815260206004820152602660248201527f455243373231413a207472616e736665722066726f6d20696e636f72726563746044820152651037bbb732b960d11b6064820152608401610691565b6001600160a01b0384166113ba5760405162461bcd60e51b815260206004820152602560248201527f455243373231413a207472616e7366657220746f20746865207a65726f206164604482015264647265737360d81b6064820152608401610691565b6113ca60008484600001516111c8565b6001600160a01b03858116600090815260046020908152604080832080546001600160801b03198082166001600160801b03928316600019018316179092558986168086528386208054938416938316600190810190931693909317909255888552600390935281842080546001600160e01b031916909117600160a01b4267ffffffffffffffff16021790559086018083529120549091166114bf57611472816000541190565b156114bf578251600082815260036020908152604090912080549186015167ffffffffffffffff16600160a01b026001600160e01b03199092166001600160a01b03909316929092171790555b5082846001600160a01b0316866001600160a01b03167fddf252ad1be2c89b69c2b068fc378daa952ba7f163c4a11628f55a4df523b3ef60405160405180910390a45b5050505050565b6040805180820190915260008082526020820152611528826000541190565b6115875760405162461bcd60e51b815260206004820152602a60248201527f455243373231413a206f776e657220717565727920666f72206e6f6e657869736044820152693a32b73a103a37b5b2b760b11b6064820152608401610691565b815b6000818152600360209081526040918290208251808401909352546001600160a01b038116808452600160a01b90910467ffffffffffffffff1691830191909152156115d6579392505050565b5060001901611589565b600780546001600160a01b038381166001600160a01b0319831681179093556040519116919082907f8be0079c531659141344cd1fd0a4f28419497f9722a3daafe3b4186f6b6457e090600090a35050565b60008061163d6110eb565b1161168a5760405162461bcd60e51b815260206004820152601860248201527f4e6f206d6f726520746f6b656e7320617661696c61626c6500000000000000006044820152606401610691565b6000611694610d4b565b6009546116a19190612077565b6040516bffffffffffffffffffffffff1933606090811b8216602084015241901b166034820152446048820152456068820152426088820152909150600090829060a8016040516020818303038152906040528051906020012060001c6117089190612110565b6000818152600a602052604081205491925090611726575080611737565b506000818152600a60205260409020545b600a6000611746600186612077565b8152602001908152602001600020546000141561177c57611768600184612077565b6000838152600a60205260409020556117ac565b600a600061178b600186612077565b81526020808201929092526040908101600090812054858252600a90935220555b6117b461119a565b50600b546117c2908261202c565b935050505090565b610bd18282604051806020016040528060008152506119f0565b60006001600160a01b0384163b156118e657604051630a85bd0160e11b81526001600160a01b0385169063150b7a0290611828903390899088908890600401611f54565b602060405180830381600087803b15801561184257600080fd5b505af1925050508015611872575060408051601f3d908101601f1916820190925261186f91810190611e7a565b60015b6118cc573d8080156118a0576040519150601f19603f3d011682016040523d82523d6000602084013e6118a5565b606091505b5080516118c45760405162461bcd60e51b815260040161069190611fd9565b805181602001fd5b6001600160e01b031916630a85bd0160e11b1490506118ea565b5060015b949350505050565b6060816119165750506040805180820190915260018152600360fc1b602082015290565b8160005b8115611940578061192a816120f5565b91506119399050600a83612044565b915061191a565b60008167ffffffffffffffff81111561195b5761195b612166565b6040519080825280601f01601f191660200182016040528015611985576020820181803683370190505b5090505b84156118ea5761199a600183612077565b91506119a7600a86612110565b6119b290603061202c565b60f81b8183815181106119c7576119c7612150565b60200101906001600160f81b031916908160001a9053506119e9600a86612044565b9450611989565b6108dd83838360016000546001600160a01b038516611a5b5760405162461bcd60e51b815260206004820152602160248201527f455243373231413a206d696e7420746f20746865207a65726f206164647265736044820152607360f81b6064820152608401610691565b83611ab95760405162461bcd60e51b815260206004820152602860248201527f455243373231413a207175616e74697479206d75737420626520677265617465604482015267072207468616e20360c41b6064820152608401610691565b6001600160a01b03851660008181526004602090815260408083208054600160801b6001600160801b031982166001600160801b039283168c01831690811782900483168c01909216021790558483526003909152812080546001600160e01b031916909217600160a01b4267ffffffffffffffff16021790915581905b85811015611bb25760405182906001600160a01b038916906000907fddf252ad1be2c89b69c2b068fc378daa952ba7f163c4a11628f55a4df523b3ef908290a48315611ba657611b8a60008884886117e4565b611ba65760405162461bcd60e51b815260040161069190611fd9565b60019182019101611b37565b50600055611502565b828054611bc7906120ba565b90600052602060002090601f016020900481019282611be95760008555611c2f565b82601f10611c0257805160ff1916838001178555611c2f565b82800160010185558215611c2f579182015b82811115611c2f578251825591602001919060010190611c14565b50610b909291505b80821115610b905760008155600101611c37565b600067ffffffffffffffff80841115611c6657611c66612166565b604051601f8501601f19908116603f01168101908282118183101715611c8e57611c8e612166565b81604052809350858152868686011115611ca757600080fd5b858560208301376000602087830101525050509392505050565b80356001600160a01b03811681146111b657600080fd5b803580151581146111b657600080fd5b600060208284031215611cfa57600080fd5b6110e482611cc1565b60008060408385031215611d1657600080fd5b611d1f83611cc1565b9150611d2d60208401611cc1565b90509250929050565b600080600060608486031215611d4b57600080fd5b611d5484611cc1565b9250611d6260208501611cc1565b9150604084013590509250925092565b60008060008060808587031215611d8857600080fd5b611d9185611cc1565b9350611d9f60208601611cc1565b925060408501359150606085013567ffffffffffffffff811115611dc257600080fd5b8501601f81018713611dd357600080fd5b611de287823560208401611c4b565b91505092959194509250565b60008060408385031215611e0157600080fd5b611e0a83611cc1565b9150611d2d60208401611cd8565b60008060408385031215611e2b57600080fd5b611e3483611cc1565b946020939093013593505050565b600060208284031215611e5457600080fd5b6110e482611cd8565b600060208284031215611e6f57600080fd5b81356110e48161217c565b600060208284031215611e8c57600080fd5b81516110e48161217c565b600060208284031215611ea957600080fd5b813567ffffffffffffffff811115611ec057600080fd5b8201601f81018413611ed157600080fd5b6118ea84823560208401611c4b565b600060208284031215611ef257600080fd5b5035919050565b60008151808452611f1181602086016020860161208e565b601f01601f19169290920160200192915050565b60008351611f3781846020880161208e565b835190830190611f4b81836020880161208e565b01949350505050565b6001600160a01b0385811682528416602082015260408101839052608060608201819052600090611f8790830184611ef9565b9695505050505050565b6020815260006110e46020830184611ef9565b6020808252818101527f4f776e61626c653a2063616c6c6572206973206e6f7420746865206f776e6572604082015260600190565b60208082526033908201527f455243373231413a207472616e7366657220746f206e6f6e204552433732315260408201527232b1b2b4bb32b91034b6b83632b6b2b73a32b960691b606082015260800190565b6000821982111561203f5761203f612124565b500190565b6000826120535761205361213a565b500490565b600081600019048311821515161561207257612072612124565b500290565b60008282101561208957612089612124565b500390565b60005b838110156120a9578181015183820152602001612091565b8381111561100a5750506000910152565b600181811c908216806120ce57607f821691505b602082108114156120ef57634e487b7160e01b600052602260045260246000fd5b50919050565b600060001982141561210957612109612124565b5060010190565b60008261211f5761211f61213a565b500690565b634e487b7160e01b600052601160045260246000fd5b634e487b7160e01b600052601260045260246000fd5b634e487b7160e01b600052603260045260246000fd5b634e487b7160e01b600052604160045260246000fd5b6001600160e01b031981168114610ae557600080fdfea2646970667358221220cbd72b1c7d8a7b8297457f666526891beedc157f089e40b4fe70b58dfe9bcd3564736f6c6343000806003368747470733a2f2f62756e692e6d7970696e6174612e636c6f75642f697066732f516d5041713633326a354473756b364e4d5353736e78686651364b394163536d6f426f795a4e394653694b55357a2f",
  "devdoc": {
    "kind": "dev",
    "methods": {
      "approve(address,uint256)": {
        "details": "See {IERC721-approve}."
      },
      "availableTokenCount()": {
        "details": "Check whether tokens are still available",
        "returns": {
          "_0": "the available token count"
        }
      },
      "balanceOf(address)": {
        "details": "See {IERC721-balanceOf}."
      },
      "getApproved(uint256)": {
        "details": "See {IERC721-getApproved}."
      },
      "isApprovedForAll(address,address)": {
        "details": "See {IERC721-isApprovedForAll}."
      },
      "name()": {
        "details": "See {IERC721Metadata-name}."
      },
      "owner()": {
        "details": "Returns the address of the current owner."
      },
      "ownerOf(uint256)": {
        "details": "See {IERC721-ownerOf}."
      },
      "renounceOwnership()": {
        "details": "Leaves the contract without owner. It will not be possible to call `onlyOwner` functions anymore. Can only be called by the current owner. NOTE: Renouncing ownership will leave the contract without an owner, thereby removing any functionality that is only available to the owner."
      },
      "safeTransferFrom(address,address,uint256)": {
        "details": "See {IERC721-safeTransferFrom}."
      },
      "safeTransferFrom(address,address,uint256,bytes)": {
        "details": "See {IERC721-safeTransferFrom}."
      },
      "setApprovalForAll(address,bool)": {
        "details": "See {IERC721-setApprovalForAll}."
      },
      "supportsInterface(bytes4)": {
        "details": "See {IERC165-supportsInterface}."
      },
      "symbol()": {
        "details": "See {IERC721Metadata-symbol}."
      },
      "tokenByIndex(uint256)": {
        "details": "See {IERC721Enumerable-tokenByIndex}."
      },
      "tokenCount()": {
        "details": "Get the current token count",
        "returns": {
          "_0": "the created token count"
        }
      },
      "tokenOfOwnerByIndex(address,uint256)": {
        "details": "See {IERC721Enumerable-tokenOfOwnerByIndex}. This read function is O(totalSupply). If calling from a separate contract, be sure to test gas first. It may also degrade with extremely large collection sizes (e.g >> 10000), test for your use case."
      },
      "tokenSupply()": {
        "details": "Get the max Supply",
        "returns": {
          "_0": "the maximum token count"
        }
      },
      "tokenURI(uint256)": {
        "details": "See {IERC721Metadata-tokenURI}."
      },
      "totalSupply()": {
        "details": "See {IERC721Enumerable-totalSupply}."
      },
      "transferFrom(address,address,uint256)": {
        "details": "See {IERC721-transferFrom}."
      },
      "transferOwnership(address)": {
        "details": "Transfers ownership of the contract to a new account (`newOwner`). Can only be called by the current owner."
      }
    },
    "version": 1
  },
  "userdoc": {
    "kind": "user",
    "methods": {},
    "version": 1
  },
  "storageLayout": {
    "storage": [
      {
        "astId": 9693,
        "contract": "contracts/BUNI.sol:BUNI",
        "label": "currentIndex",
        "offset": 0,
        "slot": "0",
        "type": "t_uint256"
      },
      {
        "astId": 9695,
        "contract": "contracts/BUNI.sol:BUNI",
        "label": "_name",
        "offset": 0,
        "slot": "1",
        "type": "t_string_storage"
      },
      {
        "astId": 9697,
        "contract": "contracts/BUNI.sol:BUNI",
        "label": "_symbol",
        "offset": 0,
        "slot": "2",
        "type": "t_string_storage"
      },
      {
        "astId": 9702,
        "contract": "contracts/BUNI.sol:BUNI",
        "label": "_ownerships",
        "offset": 0,
        "slot": "3",
        "type": "t_mapping(t_uint256,t_struct(TokenOwnership)9686_storage)"
      },
      {
        "astId": 9707,
        "contract": "contracts/BUNI.sol:BUNI",
        "label": "_addressData",
        "offset": 0,
        "slot": "4",
        "type": "t_mapping(t_address,t_struct(AddressData)9691_storage)"
      },
      {
        "astId": 9711,
        "contract": "contracts/BUNI.sol:BUNI",
        "label": "_tokenApprovals",
        "offset": 0,
        "slot": "5",
        "type": "t_mapping(t_uint256,t_address)"
      },
      {
        "astId": 9717,
        "contract": "contracts/BUNI.sol:BUNI",
        "label": "_operatorApprovals",
        "offset": 0,
        "slot": "6",
        "type": "t_mapping(t_address,t_mapping(t_address,t_bool))"
      },
      {
        "astId": 6605,
        "contract": "contracts/BUNI.sol:BUNI",
        "label": "_owner",
        "offset": 0,
        "slot": "7",
        "type": "t_address"
      },
      {
        "astId": 144,
        "contract": "contracts/BUNI.sol:BUNI",
        "label": "_tokenCount",
        "offset": 0,
        "slot": "8",
        "type": "t_struct(Counter)8589_storage"
      },
      {
        "astId": 147,
        "contract": "contracts/BUNI.sol:BUNI",
        "label": "_tokenSupply",
        "offset": 0,
        "slot": "9",
        "type": "t_uint256"
      },
      {
        "astId": 9,
        "contract": "contracts/BUNI.sol:BUNI",
        "label": "tokenMatrix",
        "offset": 0,
        "slot": "10",
        "type": "t_mapping(t_uint256,t_uint256)"
      },
      {
        "astId": 11,
        "contract": "contracts/BUNI.sol:BUNI",
        "label": "startFrom",
        "offset": 0,
        "slot": "11",
        "type": "t_uint256"
      },
      {
        "astId": 9341,
        "contract": "contracts/BUNI.sol:BUNI",
        "label": "_tokenIds",
        "offset": 0,
        "slot": "12",
        "type": "t_struct(Counter)8589_storage"
      },
      {
        "astId": 9344,
        "contract": "contracts/BUNI.sol:BUNI",
        "label": "currentSupply",
        "offset": 0,
        "slot": "13",
        "type": "t_uint256"
      },
      {
        "astId": 9347,
        "contract": "contracts/BUNI.sol:BUNI",
        "label": "baseURI",
        "offset": 0,
        "slot": "14",
        "type": "t_string_storage"
      },
      {
        "astId": 9350,
        "contract": "contracts/BUNI.sol:BUNI",
        "label": "cost",
        "offset": 0,
        "slot": "15",
        "type": "t_uint256"
      },
      {
        "astId": 9353,
        "contract": "contracts/BUNI.sol:BUNI",
        "label": "maxSupply",
        "offset": 0,
        "slot": "16",
        "type": "t_uint256"
      },
      {
        "astId": 9356,
        "contract": "contracts/BUNI.sol:BUNI",
        "label": "maxMintAmount",
        "offset": 0,
        "slot": "17",
        "type": "t_uint256"
      },
      {
        "astId": 9359,
        "contract": "contracts/BUNI.sol:BUNI",
        "label": "ownerMintAmount",
        "offset": 0,
        "slot": "18",
        "type": "t_uint256"
      },
      {
        "astId": 9362,
        "contract": "contracts/BUNI.sol:BUNI",
        "label": "paused",
        "offset": 0,
        "slot": "19",
        "type": "t_bool"
      },
      {
        "astId": 9365,
        "contract": "contracts/BUNI.sol:BUNI",
        "label": "tokenArray",
        "offset": 0,
        "slot": "20",
        "type": "t_array(t_uint256)dyn_storage"
      },
      {
        "astId": 9367,
        "contract": "contracts/BUNI.sol:BUNI",
        "label": "contractAddress",
        "offset": 0,
        "slot": "21",
        "type": "t_address"
      }
    ],
    "types": {
      "t_address": {
        "encoding": "inplace",
        "label": "address",
        "numberOfBytes": "20"
      },
      "t_array(t_uint256)dyn_storage": {
        "base": "t_uint256",
        "encoding": "dynamic_array",
        "label": "uint256[]",
        "numberOfBytes": "32"
      },
      "t_bool": {
        "encoding": "inplace",
        "label": "bool",
        "numberOfBytes": "1"
      },
      "t_mapping(t_address,t_bool)": {
        "encoding": "mapping",
        "key": "t_address",
        "label": "mapping(address => bool)",
        "numberOfBytes": "32",
        "value": "t_bool"
      },
      "t_mapping(t_address,t_mapping(t_address,t_bool))": {
        "encoding": "mapping",
        "key": "t_address",
        "label": "mapping(address => mapping(address => bool))",
        "numberOfBytes": "32",
        "value": "t_mapping(t_address,t_bool)"
      },
      "t_mapping(t_address,t_struct(AddressData)9691_storage)": {
        "encoding": "mapping",
        "key": "t_address",
        "label": "mapping(address => struct ERC721A.AddressData)",
        "numberOfBytes": "32",
        "value": "t_struct(AddressData)9691_storage"
      },
      "t_mapping(t_uint256,t_address)": {
        "encoding": "mapping",
        "key": "t_uint256",
        "label": "mapping(uint256 => address)",
        "numberOfBytes": "32",
        "value": "t_address"
      },
      "t_mapping(t_uint256,t_struct(TokenOwnership)9686_storage)": {
        "encoding": "mapping",
        "key": "t_uint256",
        "label": "mapping(uint256 => struct ERC721A.TokenOwnership)",
        "numberOfBytes": "32",
        "value": "t_struct(TokenOwnership)9686_storage"
      },
      "t_mapping(t_uint256,t_uint256)": {
        "encoding": "mapping",
        "key": "t_uint256",
        "label": "mapping(uint256 => uint256)",
        "numberOfBytes": "32",
        "value": "t_uint256"
      },
      "t_string_storage": {
        "encoding": "bytes",
        "label": "string",
        "numberOfBytes": "32"
      },
      "t_struct(AddressData)9691_storage": {
        "encoding": "inplace",
        "label": "struct ERC721A.AddressData",
        "members": [
          {
            "astId": 9688,
            "contract": "contracts/BUNI.sol:BUNI",
            "label": "balance",
            "offset": 0,
            "slot": "0",
            "type": "t_uint128"
          },
          {
            "astId": 9690,
            "contract": "contracts/BUNI.sol:BUNI",
            "label": "numberMinted",
            "offset": 16,
            "slot": "0",
            "type": "t_uint128"
          }
        ],
        "numberOfBytes": "32"
      },
      "t_struct(Counter)8589_storage": {
        "encoding": "inplace",
        "label": "struct Counters.Counter",
        "members": [
          {
            "astId": 8588,
            "contract": "contracts/BUNI.sol:BUNI",
            "label": "_value",
            "offset": 0,
            "slot": "0",
            "type": "t_uint256"
          }
        ],
        "numberOfBytes": "32"
      },
      "t_struct(TokenOwnership)9686_storage": {
        "encoding": "inplace",
        "label": "struct ERC721A.TokenOwnership",
        "members": [
          {
            "astId": 9683,
            "contract": "contracts/BUNI.sol:BUNI",
            "label": "addr",
            "offset": 0,
            "slot": "0",
            "type": "t_address"
          },
          {
            "astId": 9685,
            "contract": "contracts/BUNI.sol:BUNI",
            "label": "startTimestamp",
            "offset": 20,
            "slot": "0",
            "type": "t_uint64"
          }
        ],
        "numberOfBytes": "32"
      },
      "t_uint128": {
        "encoding": "inplace",
        "label": "uint128",
        "numberOfBytes": "16"
      },
      "t_uint256": {
        "encoding": "inplace",
        "label": "uint256",
        "numberOfBytes": "32"
      },
      "t_uint64": {
        "encoding": "inplace",
        "label": "uint64",
        "numberOfBytes": "8"
      }
    }
  }
}