{
  "address": "0x08CBf0A3ffEe33298fe3d26F624DA19B7bee9FC7",
  "abi": [
    {
      "inputs": [
        {
          "internalType": "address",
          "name": "marketplaceAddress",
          "type": "address"
        }
      ],
      "stateMutability": "nonpayable",
      "type": "constructor"
    },
    {
      "anonymous": false,
      "inputs": [
        {
          "indexed": true,
          "internalType": "address",
          "name": "owner",
          "type": "address"
        },
        {
          "indexed": true,
          "internalType": "address",
          "name": "approved",
          "type": "address"
        },
        {
          "indexed": true,
          "internalType": "uint256",
          "name": "tokenId",
          "type": "uint256"
        }
      ],
      "name": "Approval",
      "type": "event"
    },
    {
      "anonymous": false,
      "inputs": [
        {
          "indexed": true,
          "internalType": "address",
          "name": "owner",
          "type": "address"
        },
        {
          "indexed": true,
          "internalType": "address",
          "name": "operator",
          "type": "address"
        },
        {
          "indexed": false,
          "internalType": "bool",
          "name": "approved",
          "type": "bool"
        }
      ],
      "name": "ApprovalForAll",
      "type": "event"
    },
    {
      "anonymous": false,
      "inputs": [
        {
          "indexed": true,
          "internalType": "address",
          "name": "previousOwner",
          "type": "address"
        },
        {
          "indexed": true,
          "internalType": "address",
          "name": "newOwner",
          "type": "address"
        }
      ],
      "name": "OwnershipTransferred",
      "type": "event"
    },
    {
      "anonymous": false,
      "inputs": [
        {
          "indexed": true,
          "internalType": "address",
          "name": "from",
          "type": "address"
        },
        {
          "indexed": true,
          "internalType": "address",
          "name": "to",
          "type": "address"
        },
        {
          "indexed": true,
          "internalType": "uint256",
          "name": "tokenId",
          "type": "uint256"
        }
      ],
      "name": "Transfer",
      "type": "event"
    },
    {
      "inputs": [
        {
          "internalType": "address",
          "name": "_owner",
          "type": "address"
        }
      ],
      "name": "OwnerOfToken",
      "outputs": [
        {
          "internalType": "uint256[]",
          "name": "",
          "type": "uint256[]"
        }
      ],
      "stateMutability": "view",
      "type": "function"
    },
    {
      "inputs": [
        {
          "internalType": "address",
          "name": "to",
          "type": "address"
        },
        {
          "internalType": "uint256",
          "name": "tokenId",
          "type": "uint256"
        }
      ],
      "name": "approve",
      "outputs": [],
      "stateMutability": "nonpayable",
      "type": "function"
    },
    {
      "inputs": [
        {
          "internalType": "address",
          "name": "owner",
          "type": "address"
        }
      ],
      "name": "balanceOf",
      "outputs": [
        {
          "internalType": "uint256",
          "name": "",
          "type": "uint256"
        }
      ],
      "stateMutability": "view",
      "type": "function"
    },
    {
      "inputs": [],
      "name": "baseURI",
      "outputs": [
        {
          "internalType": "string",
          "name": "",
          "type": "string"
        }
      ],
      "stateMutability": "view",
      "type": "function"
    },
    {
      "inputs": [],
      "name": "cost",
      "outputs": [
        {
          "internalType": "uint256",
          "name": "",
          "type": "uint256"
        }
      ],
      "stateMutability": "view",
      "type": "function"
    },
    {
      "inputs": [
        {
          "internalType": "bytes32",
          "name": "",
          "type": "bytes32"
        }
      ],
      "name": "forSale",
      "outputs": [
        {
          "internalType": "bool",
          "name": "",
          "type": "bool"
        }
      ],
      "stateMutability": "view",
      "type": "function"
    },
    {
      "inputs": [
        {
          "internalType": "uint256",
          "name": "tokenId",
          "type": "uint256"
        }
      ],
      "name": "getApproved",
      "outputs": [
        {
          "internalType": "address",
          "name": "",
          "type": "address"
        }
      ],
      "stateMutability": "view",
      "type": "function"
    },
    {
      "inputs": [
        {
          "internalType": "address",
          "name": "owner",
          "type": "address"
        },
        {
          "internalType": "address",
          "name": "operator",
          "type": "address"
        }
      ],
      "name": "isApprovedForAll",
      "outputs": [
        {
          "internalType": "bool",
          "name": "",
          "type": "bool"
        }
      ],
      "stateMutability": "view",
      "type": "function"
    },
    {
      "inputs": [],
      "name": "maxMintAmountPerTx",
      "outputs": [
        {
          "internalType": "uint256",
          "name": "",
          "type": "uint256"
        }
      ],
      "stateMutability": "view",
      "type": "function"
    },
    {
      "inputs": [],
      "name": "maxSupply",
      "outputs": [
        {
          "internalType": "uint256",
          "name": "",
          "type": "uint256"
        }
      ],
      "stateMutability": "view",
      "type": "function"
    },
    {
      "inputs": [
        {
          "internalType": "uint256",
          "name": "_mintAmount",
          "type": "uint256"
        }
      ],
      "name": "mint",
      "outputs": [],
      "stateMutability": "payable",
      "type": "function"
    },
    {
      "inputs": [
        {
          "internalType": "uint256",
          "name": "_mintAmount",
          "type": "uint256"
        },
        {
          "internalType": "address",
          "name": "_receiver",
          "type": "address"
        }
      ],
      "name": "mintForAddress",
      "outputs": [],
      "stateMutability": "nonpayable",
      "type": "function"
    },
    {
      "inputs": [],
      "name": "name",
      "outputs": [
        {
          "internalType": "string",
          "name": "",
          "type": "string"
        }
      ],
      "stateMutability": "view",
      "type": "function"
    },
    {
      "inputs": [],
      "name": "owner",
      "outputs": [
        {
          "internalType": "address",
          "name": "",
          "type": "address"
        }
      ],
      "stateMutability": "view",
      "type": "function"
    },
    {
      "inputs": [
        {
          "internalType": "uint256",
          "name": "tokenId",
          "type": "uint256"
        }
      ],
      "name": "ownerOf",
      "outputs": [
        {
          "internalType": "address",
          "name": "",
          "type": "address"
        }
      ],
      "stateMutability": "view",
      "type": "function"
    },
    {
      "inputs": [],
      "name": "paused",
      "outputs": [
        {
          "internalType": "bool",
          "name": "",
          "type": "bool"
        }
      ],
      "stateMutability": "view",
      "type": "function"
    },
    {
      "inputs": [],
      "name": "renounceOwnership",
      "outputs": [],
      "stateMutability": "nonpayable",
      "type": "function"
    },
    {
      "inputs": [
        {
          "internalType": "address",
          "name": "from",
          "type": "address"
        },
        {
          "internalType": "address",
          "name": "to",
          "type": "address"
        },
        {
          "internalType": "uint256",
          "name": "tokenId",
          "type": "uint256"
        }
      ],
      "name": "safeTransferFrom",
      "outputs": [],
      "stateMutability": "nonpayable",
      "type": "function"
    },
    {
      "inputs": [
        {
          "internalType": "address",
          "name": "from",
          "type": "address"
        },
        {
          "internalType": "address",
          "name": "to",
          "type": "address"
        },
        {
          "internalType": "uint256",
          "name": "tokenId",
          "type": "uint256"
        },
        {
          "internalType": "bytes",
          "name": "_data",
          "type": "bytes"
        }
      ],
      "name": "safeTransferFrom",
      "outputs": [],
      "stateMutability": "nonpayable",
      "type": "function"
    },
    {
      "inputs": [
        {
          "internalType": "address",
          "name": "operator",
          "type": "address"
        },
        {
          "internalType": "bool",
          "name": "approved",
          "type": "bool"
        }
      ],
      "name": "setApprovalForAll",
      "outputs": [],
      "stateMutability": "nonpayable",
      "type": "function"
    },
    {
      "inputs": [
        {
          "internalType": "string",
          "name": "_newBaseURI",
          "type": "string"
        }
      ],
      "name": "setBaseURI",
      "outputs": [],
      "stateMutability": "nonpayable",
      "type": "function"
    },
    {
      "inputs": [
        {
          "internalType": "uint256",
          "name": "_cost",
          "type": "uint256"
        }
      ],
      "name": "setCost",
      "outputs": [],
      "stateMutability": "nonpayable",
      "type": "function"
    },
    {
      "inputs": [
        {
          "internalType": "bool",
          "name": "_state",
          "type": "bool"
        }
      ],
      "name": "setPaused",
      "outputs": [],
      "stateMutability": "nonpayable",
      "type": "function"
    },
    {
      "inputs": [
        {
          "internalType": "bytes4",
          "name": "interfaceId",
          "type": "bytes4"
        }
      ],
      "name": "supportsInterface",
      "outputs": [
        {
          "internalType": "bool",
          "name": "",
          "type": "bool"
        }
      ],
      "stateMutability": "view",
      "type": "function"
    },
    {
      "inputs": [],
      "name": "symbol",
      "outputs": [
        {
          "internalType": "string",
          "name": "",
          "type": "string"
        }
      ],
      "stateMutability": "view",
      "type": "function"
    },
    {
      "inputs": [
        {
          "internalType": "uint256",
          "name": "tokenId",
          "type": "uint256"
        }
      ],
      "name": "tokenURI",
      "outputs": [
        {
          "internalType": "string",
          "name": "",
          "type": "string"
        }
      ],
      "stateMutability": "view",
      "type": "function"
    },
    {
      "inputs": [],
      "name": "totalSupply",
      "outputs": [
        {
          "internalType": "uint256",
          "name": "",
          "type": "uint256"
        }
      ],
      "stateMutability": "view",
      "type": "function"
    },
    {
      "inputs": [
        {
          "internalType": "address",
          "name": "from",
          "type": "address"
        },
        {
          "internalType": "address",
          "name": "to",
          "type": "address"
        },
        {
          "internalType": "uint256",
          "name": "tokenId",
          "type": "uint256"
        }
      ],
      "name": "transferFrom",
      "outputs": [],
      "stateMutability": "nonpayable",
      "type": "function"
    },
    {
      "inputs": [
        {
          "internalType": "address",
          "name": "newOwner",
          "type": "address"
        }
      ],
      "name": "transferOwnership",
      "outputs": [],
      "stateMutability": "nonpayable",
      "type": "function"
    },
    {
      "inputs": [
        {
          "internalType": "bytes32",
          "name": "",
          "type": "bytes32"
        }
      ],
      "name": "uriToTokenId",
      "outputs": [
        {
          "internalType": "uint256",
          "name": "",
          "type": "uint256"
        }
      ],
      "stateMutability": "view",
      "type": "function"
    },
    {
      "inputs": [],
      "name": "withdraw",
      "outputs": [],
      "stateMutability": "nonpayable",
      "type": "function"
    }
  ],
  "transactionHash": "0x7301bd91935d93bfbc73a53da4e3256292ab2e6e393f96fcc93f552cb4d9de23",
  "args": [
    "0x4d3A7251a7B5351067D00d17de3500dD722F416E"
  ],
  "numDeployments": 1,
  "solcInputHash": "47217b60aa600302774d7574c0bb6097",
  "bytecode": "0x66038d7ea4c680006008556104576009556005600a5561010060405260506080818152906200230960a03980516200004091600b9160209091019062000181565b50600c805460ff60a01b191690553480156200005b57600080fd5b5060405162002359380380620023598339810160408190526200007e9162000227565b604080518082018252601081526f151a19481095539648141c9bda9958dd60821b60208083019182528351808501909452600484526342554e5960e01b908401528151919291620000d29160009162000181565b508051620000e890600190602084019062000181565b50505062000105620000ff6200012b60201b60201c565b6200012f565b600c80546001600160a01b0319166001600160a01b039290921691909117905562000296565b3390565b600680546001600160a01b038381166001600160a01b0319831681179093556040519116919082907f8be0079c531659141344cd1fd0a4f28419497f9722a3daafe3b4186f6b6457e090600090a35050565b8280546200018f9062000259565b90600052602060002090601f016020900481019282620001b35760008555620001fe565b82601f10620001ce57805160ff1916838001178555620001fe565b82800160010185558215620001fe579182015b82811115620001fe578251825591602001919060010190620001e1565b506200020c92915062000210565b5090565b5b808211156200020c576000815560010162000211565b6000602082840312156200023a57600080fd5b81516001600160a01b03811681146200025257600080fd5b9392505050565b600181811c908216806200026e57607f821691505b602082108114156200029057634e487b7160e01b600052602260045260246000fd5b50919050565b61206380620002a66000396000f3fe6080604052600436106101d85760003560e01c806370a0823111610102578063ae374b9911610095578063d5abeb0111610064578063d5abeb011461054d578063e985e9c514610563578063efbd73f4146105ac578063f2fde38b146105cc57600080fd5b8063ae374b99146104b0578063b7416f2a146104e0578063b88d4fde1461050d578063c87b56dd1461052d57600080fd5b806394a06ecf116100d157806394a06ecf1461043b57806395d89b4114610468578063a0712d681461047d578063a22cb4651461049057600080fd5b806370a08231146103d2578063715018a6146103f25780638da5cb5b1461040757806394354fd01461042557600080fd5b806323b872dd1161017a57806355f804b31161014957806355f804b31461035c5780635c975abb1461037c5780636352211e1461039d5780636c0360eb146103bd57600080fd5b806323b872dd146102e75780633ccfd60b1461030757806342842e0e1461031c57806344a0d68a1461033c57600080fd5b8063095ea7b3116101b6578063095ea7b31461026c57806313faede61461028e57806316c38b3c146102b257806318160ddd146102d257600080fd5b806301ffc9a7146101dd57806306fdde0314610212578063081812fc14610234575b600080fd5b3480156101e957600080fd5b506101fd6101f8366004611a30565b6105ec565b60405190151581526020015b60405180910390f35b34801561021e57600080fd5b5061022761063e565b6040516102099190611aa5565b34801561024057600080fd5b5061025461024f366004611ab8565b6106d0565b6040516001600160a01b039091168152602001610209565b34801561027857600080fd5b5061028c610287366004611aed565b61076a565b005b34801561029a57600080fd5b506102a460085481565b604051908152602001610209565b3480156102be57600080fd5b5061028c6102cd366004611b27565b610880565b3480156102de57600080fd5b506102a46108c8565b3480156102f357600080fd5b5061028c610302366004611b42565b6108d8565b34801561031357600080fd5b5061028c610909565b34801561032857600080fd5b5061028c610337366004611b42565b610a25565b34801561034857600080fd5b5061028c610357366004611ab8565b610a40565b34801561036857600080fd5b5061028c610377366004611c0a565b610a6f565b34801561038857600080fd5b50600c546101fd90600160a01b900460ff1681565b3480156103a957600080fd5b506102546103b8366004611ab8565b610aac565b3480156103c957600080fd5b50610227610b23565b3480156103de57600080fd5b506102a46103ed366004611c53565b610bb1565b3480156103fe57600080fd5b5061028c610c38565b34801561041357600080fd5b506006546001600160a01b0316610254565b34801561043157600080fd5b506102a4600a5481565b34801561044757600080fd5b5061045b610456366004611c53565b610c6e565b6040516102099190611c6e565b34801561047457600080fd5b50610227610d4f565b61028c61048b366004611ab8565b610d5e565b34801561049c57600080fd5b5061028c6104ab366004611cb2565b610eb6565b3480156104bc57600080fd5b506101fd6104cb366004611ab8565b600d6020526000908152604090205460ff1681565b3480156104ec57600080fd5b506102a46104fb366004611ab8565b600e6020526000908152604090205481565b34801561051957600080fd5b5061028c610528366004611ce5565b610ec1565b34801561053957600080fd5b50610227610548366004611ab8565b610ef9565b34801561055957600080fd5b506102a460095481565b34801561056f57600080fd5b506101fd61057e366004611d61565b6001600160a01b03918216600090815260056020908152604080832093909416825291909152205460ff1690565b3480156105b857600080fd5b5061028c6105c7366004611d8b565b610fd5565b3480156105d857600080fd5b5061028c6105e7366004611c53565b6110ba565b60006001600160e01b031982166380ac58cd60e01b148061061d57506001600160e01b03198216635b5e139f60e01b145b8061063857506301ffc9a760e01b6001600160e01b03198316145b92915050565b60606000805461064d90611dae565b80601f016020809104026020016040519081016040528092919081815260200182805461067990611dae565b80156106c65780601f1061069b576101008083540402835291602001916106c6565b820191906000526020600020905b8154815290600101906020018083116106a957829003601f168201915b5050505050905090565b6000818152600260205260408120546001600160a01b031661074e5760405162461bcd60e51b815260206004820152602c60248201527f4552433732313a20617070726f76656420717565727920666f72206e6f6e657860448201526b34b9ba32b73a103a37b5b2b760a11b60648201526084015b60405180910390fd5b506000908152600460205260409020546001600160a01b031690565b600061077582610aac565b9050806001600160a01b0316836001600160a01b031614156107e35760405162461bcd60e51b815260206004820152602160248201527f4552433732313a20617070726f76616c20746f2063757272656e74206f776e656044820152603960f91b6064820152608401610745565b336001600160a01b03821614806107ff57506107ff813361057e565b6108715760405162461bcd60e51b815260206004820152603860248201527f4552433732313a20617070726f76652063616c6c6572206973206e6f74206f7760448201527f6e6572206e6f7220617070726f76656420666f7220616c6c00000000000000006064820152608401610745565b61087b8383611155565b505050565b6006546001600160a01b031633146108aa5760405162461bcd60e51b815260040161074590611de9565b600c8054911515600160a01b0260ff60a01b19909216919091179055565b60006108d360075490565b905090565b6108e233826111c3565b6108fe5760405162461bcd60e51b815260040161074590611e1e565b61087b8383836112ba565b6006546001600160a01b031633146109335760405162461bcd60e51b815260040161074590611de9565b6000738406a51a0e1b5f52ff61226773e6328e5da5d9646064610957476014611e85565b6109619190611eba565b604051600081818185875af1925050503d806000811461099d576040519150601f19603f3d011682016040523d82523d6000602084013e6109a2565b606091505b50509050806109b057600080fd5b60006109c46006546001600160a01b031690565b6001600160a01b03164760405160006040518083038185875af1925050503d8060008114610a0e576040519150601f19603f3d011682016040523d82523d6000602084013e610a13565b606091505b5050905080610a2157600080fd5b5050565b61087b83838360405180602001604052806000815250610ec1565b6006546001600160a01b03163314610a6a5760405162461bcd60e51b815260040161074590611de9565b600855565b6006546001600160a01b03163314610a995760405162461bcd60e51b815260040161074590611de9565b8051610a2190600b906020840190611981565b6000818152600260205260408120546001600160a01b0316806106385760405162461bcd60e51b815260206004820152602960248201527f4552433732313a206f776e657220717565727920666f72206e6f6e657869737460448201526832b73a103a37b5b2b760b91b6064820152608401610745565b600b8054610b3090611dae565b80601f0160208091040260200160405190810160405280929190818152602001828054610b5c90611dae565b8015610ba95780601f10610b7e57610100808354040283529160200191610ba9565b820191906000526020600020905b815481529060010190602001808311610b8c57829003601f168201915b505050505081565b60006001600160a01b038216610c1c5760405162461bcd60e51b815260206004820152602a60248201527f4552433732313a2062616c616e636520717565727920666f7220746865207a65604482015269726f206164647265737360b01b6064820152608401610745565b506001600160a01b031660009081526003602052604090205490565b6006546001600160a01b03163314610c625760405162461bcd60e51b815260040161074590611de9565b610c6c6000611456565b565b60606000610c7b83610bb1565b905060008167ffffffffffffffff811115610c9857610c98611b7e565b604051908082528060200260200182016040528015610cc1578160200160208202803683370190505b509050600160005b8381108015610cda57506009548211155b15610d45576000610cea83610aac565b9050866001600160a01b0316816001600160a01b03161415610d325782848381518110610d1957610d19611ece565b602090810291909101015281610d2e81611ee4565b9250505b82610d3c81611ee4565b93505050610cc9565b5090949350505050565b60606001805461064d90611dae565b80600081118015610d715750600a548111155b610daa5760405162461bcd60e51b815260206004820152600a6024820152694e6f7065204e6f70652160b01b6044820152606401610745565b60095481610db760075490565b610dc19190611eff565b1115610e0f5760405162461bcd60e51b815260206004820152601a60248201527f4d617820737570706c792069732035207065722077616c6c65740000000000006044820152606401610745565b600c54600160a01b900460ff1615610e5c5760405162461bcd60e51b815260206004820152601060248201526f49276d20696e2074696d65206f75742160801b6044820152606401610745565b81600854610e6a9190611e85565b341015610eac5760405162461bcd60e51b815260206004820152601060248201526f4920706974792074686520666f6f6c2160801b6044820152606401610745565b610a2133836114a8565b610a213383836114e5565b610ecb33836111c3565b610ee75760405162461bcd60e51b815260040161074590611e1e565b610ef3848484846115b4565b50505050565b6000818152600260205260409020546060906001600160a01b0316610f795760405162461bcd60e51b815260206004820152603060248201527f455243373231414d657461646174613a2055524920717565727920666f72206e60448201526f37b732bc34b9ba30b73a103a37b5b2b760811b6064820152608401610745565b6000610f836115e7565b90506000815111610fa35760405180602001604052806000815250610fce565b80610fad846115f6565b604051602001610fbe929190611f17565b6040516020818303038152906040525b9392505050565b81600081118015610fe85750600a548111155b6110215760405162461bcd60e51b815260206004820152600a6024820152694e6f7065204e6f70652160b01b6044820152606401610745565b6009548161102e60075490565b6110389190611eff565b11156110865760405162461bcd60e51b815260206004820152601a60248201527f4d617820737570706c792069732035207065722077616c6c65740000000000006044820152606401610745565b6006546001600160a01b031633146110b05760405162461bcd60e51b815260040161074590611de9565b61087b82846114a8565b6006546001600160a01b031633146110e45760405162461bcd60e51b815260040161074590611de9565b6001600160a01b0381166111495760405162461bcd60e51b815260206004820152602660248201527f4f776e61626c653a206e6577206f776e657220697320746865207a65726f206160448201526564647265737360d01b6064820152608401610745565b61115281611456565b50565b600081815260046020526040902080546001600160a01b0319166001600160a01b038416908117909155819061118a82610aac565b6001600160a01b03167f8c5be1e5ebec7d5bd14f71427d1e84f3dd0314c0f7b2291e5b200ac8c7c3b92560405160405180910390a45050565b6000818152600260205260408120546001600160a01b031661123c5760405162461bcd60e51b815260206004820152602c60248201527f4552433732313a206f70657261746f7220717565727920666f72206e6f6e657860448201526b34b9ba32b73a103a37b5b2b760a11b6064820152608401610745565b600061124783610aac565b9050806001600160a01b0316846001600160a01b031614806112825750836001600160a01b0316611277846106d0565b6001600160a01b0316145b806112b257506001600160a01b0380821660009081526005602090815260408083209388168352929052205460ff165b949350505050565b826001600160a01b03166112cd82610aac565b6001600160a01b0316146113315760405162461bcd60e51b815260206004820152602560248201527f4552433732313a207472616e736665722066726f6d20696e636f72726563742060448201526437bbb732b960d91b6064820152608401610745565b6001600160a01b0382166113935760405162461bcd60e51b8152602060048201526024808201527f4552433732313a207472616e7366657220746f20746865207a65726f206164646044820152637265737360e01b6064820152608401610745565b61139e600082611155565b6001600160a01b03831660009081526003602052604081208054600192906113c7908490611f56565b90915550506001600160a01b03821660009081526003602052604081208054600192906113f5908490611eff565b909155505060008181526002602052604080822080546001600160a01b0319166001600160a01b0386811691821790925591518493918716917fddf252ad1be2c89b69c2b068fc378daa952ba7f163c4a11628f55a4df523b3ef91a4505050565b600680546001600160a01b038381166001600160a01b0319831681179093556040519116919082907f8be0079c531659141344cd1fd0a4f28419497f9722a3daafe3b4186f6b6457e090600090a35050565b60005b8181101561087b576114c1600780546001019055565b6114d3836114ce60075490565b6116f4565b806114dd81611ee4565b9150506114ab565b816001600160a01b0316836001600160a01b031614156115475760405162461bcd60e51b815260206004820152601960248201527f4552433732313a20617070726f766520746f2063616c6c6572000000000000006044820152606401610745565b6001600160a01b03838116600081815260056020908152604080832094871680845294825291829020805460ff191686151590811790915591519182527f17307eab39ab6107e8899845ad3d59bd9653f200f220920489ca2b5937696c31910160405180910390a3505050565b6115bf8484846112ba565b6115cb8484848461170e565b610ef35760405162461bcd60e51b815260040161074590611f6d565b6060600b805461064d90611dae565b60608161161a5750506040805180820190915260018152600360fc1b602082015290565b8160005b8115611644578061162e81611ee4565b915061163d9050600a83611eba565b915061161e565b60008167ffffffffffffffff81111561165f5761165f611b7e565b6040519080825280601f01601f191660200182016040528015611689576020820181803683370190505b5090505b84156112b25761169e600183611f56565b91506116ab600a86611fbf565b6116b6906030611eff565b60f81b8183815181106116cb576116cb611ece565b60200101906001600160f81b031916908160001a9053506116ed600a86611eba565b945061168d565b610a2182826040518060200160405280600081525061180c565b60006001600160a01b0384163b1561180157604051630a85bd0160e11b81526001600160a01b0385169063150b7a0290611752903390899088908890600401611fd3565b6020604051808303816000875af192505050801561178d575060408051601f3d908101601f1916820190925261178a91810190612010565b60015b6117e7573d8080156117bb576040519150601f19603f3d011682016040523d82523d6000602084013e6117c0565b606091505b5080516117df5760405162461bcd60e51b815260040161074590611f6d565b805181602001fd5b6001600160e01b031916630a85bd0160e11b1490506112b2565b506001949350505050565b611816838361183f565b611823600084848461170e565b61087b5760405162461bcd60e51b815260040161074590611f6d565b6001600160a01b0382166118955760405162461bcd60e51b815260206004820181905260248201527f4552433732313a206d696e7420746f20746865207a65726f20616464726573736044820152606401610745565b6000818152600260205260409020546001600160a01b0316156118fa5760405162461bcd60e51b815260206004820152601c60248201527f4552433732313a20746f6b656e20616c7265616479206d696e746564000000006044820152606401610745565b6001600160a01b0382166000908152600360205260408120805460019290611923908490611eff565b909155505060008181526002602052604080822080546001600160a01b0319166001600160a01b03861690811790915590518392907fddf252ad1be2c89b69c2b068fc378daa952ba7f163c4a11628f55a4df523b3ef908290a45050565b82805461198d90611dae565b90600052602060002090601f0160209004810192826119af57600085556119f5565b82601f106119c857805160ff19168380011785556119f5565b828001600101855582156119f5579182015b828111156119f55782518255916020019190600101906119da565b50611a01929150611a05565b5090565b5b80821115611a015760008155600101611a06565b6001600160e01b03198116811461115257600080fd5b600060208284031215611a4257600080fd5b8135610fce81611a1a565b60005b83811015611a68578181015183820152602001611a50565b83811115610ef35750506000910152565b60008151808452611a91816020860160208601611a4d565b601f01601f19169290920160200192915050565b602081526000610fce6020830184611a79565b600060208284031215611aca57600080fd5b5035919050565b80356001600160a01b0381168114611ae857600080fd5b919050565b60008060408385031215611b0057600080fd5b611b0983611ad1565b946020939093013593505050565b80358015158114611ae857600080fd5b600060208284031215611b3957600080fd5b610fce82611b17565b600080600060608486031215611b5757600080fd5b611b6084611ad1565b9250611b6e60208501611ad1565b9150604084013590509250925092565b634e487b7160e01b600052604160045260246000fd5b600067ffffffffffffffff80841115611baf57611baf611b7e565b604051601f8501601f19908116603f01168101908282118183101715611bd757611bd7611b7e565b81604052809350858152868686011115611bf057600080fd5b858560208301376000602087830101525050509392505050565b600060208284031215611c1c57600080fd5b813567ffffffffffffffff811115611c3357600080fd5b8201601f81018413611c4457600080fd5b6112b284823560208401611b94565b600060208284031215611c6557600080fd5b610fce82611ad1565b6020808252825182820181905260009190848201906040850190845b81811015611ca657835183529284019291840191600101611c8a565b50909695505050505050565b60008060408385031215611cc557600080fd5b611cce83611ad1565b9150611cdc60208401611b17565b90509250929050565b60008060008060808587031215611cfb57600080fd5b611d0485611ad1565b9350611d1260208601611ad1565b925060408501359150606085013567ffffffffffffffff811115611d3557600080fd5b8501601f81018713611d4657600080fd5b611d5587823560208401611b94565b91505092959194509250565b60008060408385031215611d7457600080fd5b611d7d83611ad1565b9150611cdc60208401611ad1565b60008060408385031215611d9e57600080fd5b82359150611cdc60208401611ad1565b600181811c90821680611dc257607f821691505b60208210811415611de357634e487b7160e01b600052602260045260246000fd5b50919050565b6020808252818101527f4f776e61626c653a2063616c6c6572206973206e6f7420746865206f776e6572604082015260600190565b60208082526031908201527f4552433732313a207472616e736665722063616c6c6572206973206e6f74206f6040820152701ddb995c881b9bdc88185c1c1c9bdd9959607a1b606082015260800190565b634e487b7160e01b600052601160045260246000fd5b6000816000190483118215151615611e9f57611e9f611e6f565b500290565b634e487b7160e01b600052601260045260246000fd5b600082611ec957611ec9611ea4565b500490565b634e487b7160e01b600052603260045260246000fd5b6000600019821415611ef857611ef8611e6f565b5060010190565b60008219821115611f1257611f12611e6f565b500190565b60008351611f29818460208801611a4d565b835190830190611f3d818360208801611a4d565b64173539b7b760d91b9101908152600501949350505050565b600082821015611f6857611f68611e6f565b500390565b60208082526032908201527f4552433732313a207472616e7366657220746f206e6f6e20455243373231526560408201527131b2b4bb32b91034b6b83632b6b2b73a32b960711b606082015260800190565b600082611fce57611fce611ea4565b500690565b6001600160a01b038581168252841660208201526040810183905260806060820181905260009061200690830184611a79565b9695505050505050565b60006020828403121561202257600080fd5b8151610fce81611a1a56fea26469706673582212209b2c5679810853f330e08745c084b5cbf932d01d4f6f779b72883f349944d29664736f6c634300080a003368747470733a2f2f62756e692e6d7970696e6174612e636c6f75642f697066732f516d50696637755966724b433951687850516d50624b7a665a57416a7079416242575145476d385939634d7a7a542f",
  "devdoc": {
    "kind": "dev",
    "methods": {
      "approve(address,uint256)": {
        "details": "See {IERC721-approve}."
      },
      "balanceOf(address)": {
        "details": "See {IERC721-balanceOf}."
      },
      "getApproved(uint256)": {
        "details": "See {IERC721-getApproved}."
      },
      "isApprovedForAll(address,address)": {
        "details": "See {IERC721-isApprovedForAll}."
      },
      "name()": {
        "details": "See {IERC721Metadata-name}."
      },
      "owner()": {
        "details": "Returns the address of the current owner."
      },
      "ownerOf(uint256)": {
        "details": "See {IERC721-ownerOf}."
      },
      "renounceOwnership()": {
        "details": "Leaves the contract without owner. It will not be possible to call `onlyOwner` functions anymore. Can only be called by the current owner. NOTE: Renouncing ownership will leave the contract without an owner, thereby removing any functionality that is only available to the owner."
      },
      "safeTransferFrom(address,address,uint256)": {
        "details": "See {IERC721-safeTransferFrom}."
      },
      "safeTransferFrom(address,address,uint256,bytes)": {
        "details": "See {IERC721-safeTransferFrom}."
      },
      "setApprovalForAll(address,bool)": {
        "details": "See {IERC721-setApprovalForAll}."
      },
      "supportsInterface(bytes4)": {
        "details": "See {IERC165-supportsInterface}."
      },
      "symbol()": {
        "details": "See {IERC721Metadata-symbol}."
      },
      "tokenURI(uint256)": {
        "details": "See {IERC721Metadata-tokenURI}."
      },
      "transferFrom(address,address,uint256)": {
        "details": "See {IERC721-transferFrom}."
      },
      "transferOwnership(address)": {
        "details": "Transfers ownership of the contract to a new account (`newOwner`). Can only be called by the current owner."
      }
    },
    "version": 1
  },
  "userdoc": {
    "kind": "user",
    "methods": {},
    "version": 1
  },
  "storageLayout": {
    "storage": [
      {
        "astId": 7354,
        "contract": "contracts/TheBUNY.sol:TheBUNY",
        "label": "_name",
        "offset": 0,
        "slot": "0",
        "type": "t_string_storage"
      },
      {
        "astId": 7356,
        "contract": "contracts/TheBUNY.sol:TheBUNY",
        "label": "_symbol",
        "offset": 0,
        "slot": "1",
        "type": "t_string_storage"
      },
      {
        "astId": 7360,
        "contract": "contracts/TheBUNY.sol:TheBUNY",
        "label": "_owners",
        "offset": 0,
        "slot": "2",
        "type": "t_mapping(t_uint256,t_address)"
      },
      {
        "astId": 7364,
        "contract": "contracts/TheBUNY.sol:TheBUNY",
        "label": "_balances",
        "offset": 0,
        "slot": "3",
        "type": "t_mapping(t_address,t_uint256)"
      },
      {
        "astId": 7368,
        "contract": "contracts/TheBUNY.sol:TheBUNY",
        "label": "_tokenApprovals",
        "offset": 0,
        "slot": "4",
        "type": "t_mapping(t_uint256,t_address)"
      },
      {
        "astId": 7374,
        "contract": "contracts/TheBUNY.sol:TheBUNY",
        "label": "_operatorApprovals",
        "offset": 0,
        "slot": "5",
        "type": "t_mapping(t_address,t_mapping(t_address,t_bool))"
      },
      {
        "astId": 6434,
        "contract": "contracts/TheBUNY.sol:TheBUNY",
        "label": "_owner",
        "offset": 0,
        "slot": "6",
        "type": "t_address"
      },
      {
        "astId": 14306,
        "contract": "contracts/TheBUNY.sol:TheBUNY",
        "label": "supply",
        "offset": 0,
        "slot": "7",
        "type": "t_struct(Counter)9175_storage"
      },
      {
        "astId": 14309,
        "contract": "contracts/TheBUNY.sol:TheBUNY",
        "label": "cost",
        "offset": 0,
        "slot": "8",
        "type": "t_uint256"
      },
      {
        "astId": 14312,
        "contract": "contracts/TheBUNY.sol:TheBUNY",
        "label": "maxSupply",
        "offset": 0,
        "slot": "9",
        "type": "t_uint256"
      },
      {
        "astId": 14315,
        "contract": "contracts/TheBUNY.sol:TheBUNY",
        "label": "maxMintAmountPerTx",
        "offset": 0,
        "slot": "10",
        "type": "t_uint256"
      },
      {
        "astId": 14318,
        "contract": "contracts/TheBUNY.sol:TheBUNY",
        "label": "baseURI",
        "offset": 0,
        "slot": "11",
        "type": "t_string_storage"
      },
      {
        "astId": 14320,
        "contract": "contracts/TheBUNY.sol:TheBUNY",
        "label": "contractAddress",
        "offset": 0,
        "slot": "12",
        "type": "t_address"
      },
      {
        "astId": 14323,
        "contract": "contracts/TheBUNY.sol:TheBUNY",
        "label": "paused",
        "offset": 20,
        "slot": "12",
        "type": "t_bool"
      },
      {
        "astId": 14341,
        "contract": "contracts/TheBUNY.sol:TheBUNY",
        "label": "forSale",
        "offset": 0,
        "slot": "13",
        "type": "t_mapping(t_bytes32,t_bool)"
      },
      {
        "astId": 14345,
        "contract": "contracts/TheBUNY.sol:TheBUNY",
        "label": "uriToTokenId",
        "offset": 0,
        "slot": "14",
        "type": "t_mapping(t_bytes32,t_uint256)"
      }
    ],
    "types": {
      "t_address": {
        "encoding": "inplace",
        "label": "address",
        "numberOfBytes": "20"
      },
      "t_bool": {
        "encoding": "inplace",
        "label": "bool",
        "numberOfBytes": "1"
      },
      "t_bytes32": {
        "encoding": "inplace",
        "label": "bytes32",
        "numberOfBytes": "32"
      },
      "t_mapping(t_address,t_bool)": {
        "encoding": "mapping",
        "key": "t_address",
        "label": "mapping(address => bool)",
        "numberOfBytes": "32",
        "value": "t_bool"
      },
      "t_mapping(t_address,t_mapping(t_address,t_bool))": {
        "encoding": "mapping",
        "key": "t_address",
        "label": "mapping(address => mapping(address => bool))",
        "numberOfBytes": "32",
        "value": "t_mapping(t_address,t_bool)"
      },
      "t_mapping(t_address,t_uint256)": {
        "encoding": "mapping",
        "key": "t_address",
        "label": "mapping(address => uint256)",
        "numberOfBytes": "32",
        "value": "t_uint256"
      },
      "t_mapping(t_bytes32,t_bool)": {
        "encoding": "mapping",
        "key": "t_bytes32",
        "label": "mapping(bytes32 => bool)",
        "numberOfBytes": "32",
        "value": "t_bool"
      },
      "t_mapping(t_bytes32,t_uint256)": {
        "encoding": "mapping",
        "key": "t_bytes32",
        "label": "mapping(bytes32 => uint256)",
        "numberOfBytes": "32",
        "value": "t_uint256"
      },
      "t_mapping(t_uint256,t_address)": {
        "encoding": "mapping",
        "key": "t_uint256",
        "label": "mapping(uint256 => address)",
        "numberOfBytes": "32",
        "value": "t_address"
      },
      "t_string_storage": {
        "encoding": "bytes",
        "label": "string",
        "numberOfBytes": "32"
      },
      "t_struct(Counter)9175_storage": {
        "encoding": "inplace",
        "label": "struct Counters.Counter",
        "members": [
          {
            "astId": 9174,
            "contract": "contracts/TheBUNY.sol:TheBUNY",
            "label": "_value",
            "offset": 0,
            "slot": "0",
            "type": "t_uint256"
          }
        ],
        "numberOfBytes": "32"
      },
      "t_uint256": {
        "encoding": "inplace",
        "label": "uint256",
        "numberOfBytes": "32"
      }
    }
  }
}