{
  "contracts/POBArequester.sol": {
    "POBArequester": {
      "abi": [
        {
          "inputs": [],
          "stateMutability": "nonpayable",
          "type": "constructor"
        },
        {
          "anonymous": false,
          "inputs": [
            {
              "indexed": true,
              "internalType": "bytes32",
              "name": "id",
              "type": "bytes32"
            }
          ],
          "name": "ChainlinkCancelled",
          "type": "event"
        },
        {
          "anonymous": false,
          "inputs": [
            {
              "indexed": true,
              "internalType": "bytes32",
              "name": "id",
              "type": "bytes32"
            }
          ],
          "name": "ChainlinkFulfilled",
          "type": "event"
        },
        {
          "anonymous": false,
          "inputs": [
            {
              "indexed": true,
              "internalType": "bytes32",
              "name": "id",
              "type": "bytes32"
            }
          ],
          "name": "ChainlinkRequested",
          "type": "event"
        },
        {
          "anonymous": false,
          "inputs": [
            {
              "indexed": true,
              "internalType": "bytes32",
              "name": "requestId",
              "type": "bytes32"
            },
            {
              "indexed": true,
              "internalType": "uint256",
              "name": "pobaKey",
              "type": "uint256"
            }
          ],
          "name": "RequestPobaKeyFulfilled",
          "type": "event"
        },
        {
          "inputs": [
            {
              "internalType": "address",
              "name": "_address",
              "type": "address"
            },
            {
              "internalType": "bytes32",
              "name": "_jobID",
              "type": "bytes32"
            },
            {
              "internalType": "string",
              "name": "_licenseKey",
              "type": "string"
            }
          ],
          "name": "RequestPOBAkey",
          "outputs": [],
          "stateMutability": "nonpayable",
          "type": "function"
        },
        {
          "inputs": [
            {
              "internalType": "uint256",
              "name": "",
              "type": "uint256"
            }
          ],
          "name": "currentPobaList",
          "outputs": [
            {
              "internalType": "uint256",
              "name": "",
              "type": "uint256"
            }
          ],
          "stateMutability": "view",
          "type": "function"
        },
        {
          "inputs": [
            {
              "internalType": "bytes32",
              "name": "_requestId",
              "type": "bytes32"
            },
            {
              "internalType": "uint256",
              "name": "_pobaKey",
              "type": "uint256"
            }
          ],
          "name": "fulfillpobaKey",
          "outputs": [],
          "stateMutability": "nonpayable",
          "type": "function"
        },
        {
          "inputs": [],
          "name": "getPobaKEY",
          "outputs": [
            {
              "internalType": "uint256",
              "name": "",
              "type": "uint256"
            }
          ],
          "stateMutability": "view",
          "type": "function"
        },
        {
          "inputs": [],
          "name": "index",
          "outputs": [
            {
              "internalType": "uint256",
              "name": "",
              "type": "uint256"
            }
          ],
          "stateMutability": "view",
          "type": "function"
        },
        {
          "inputs": [],
          "name": "owner",
          "outputs": [
            {
              "internalType": "address",
              "name": "",
              "type": "address"
            }
          ],
          "stateMutability": "view",
          "type": "function"
        },
        {
          "inputs": [],
          "name": "pobaKEY",
          "outputs": [
            {
              "internalType": "uint256",
              "name": "",
              "type": "uint256"
            }
          ],
          "stateMutability": "view",
          "type": "function"
        },
        {
          "inputs": [
            {
              "internalType": "string",
              "name": "_licenseKey",
              "type": "string"
            }
          ],
          "name": "requestFromAllPOBA",
          "outputs": [],
          "stateMutability": "nonpayable",
          "type": "function"
        },
        {
          "inputs": [
            {
              "internalType": "string",
              "name": "source",
              "type": "string"
            }
          ],
          "name": "stringToBytes32",
          "outputs": [
            {
              "internalType": "bytes32",
              "name": "result",
              "type": "bytes32"
            }
          ],
          "stateMutability": "pure",
          "type": "function"
        }
      ],
      "devdoc": {
        "kind": "dev",
        "methods": {},
        "version": 1
      },
      "evm": {
        "bytecode": {
          "linkReferences": {},
          "object": "6001600455600c80546001600160a01b031916734f843e820abaa164fedc7e503c510afbe5257f6517905560c0604052602060809081527f346262633461313632623739343538616230633234366665653733393965663260a0526100639061018b565b600d55600e80546001600160a01b03191673deeaa7404d72fb57fb9da21b4b6e71b5e88f44a21790556040805180820190915260208082527f6364633338326562313863623437643838346634323134663066646137333266908201526100c99061018b565b600f55601080546001600160a01b031916731f3cf7a276eaab0b0309b9eae6d48693dcc327f11790556040805180820190915260208082527f36643837626334363734343334613939393335373534383964373539306132349082015261012f9061018b565b60115534801561013e57600080fd5b50600280546001600160a01b03191673b0897686c545045afc77cf20ec7a532e3120e0f1179055600b80546001600160a01b03191633179055600060088190556009819055600a556101a8565b8051600090829061019f5750600092915050565b50506020015190565b610f10806101b76000396000f3fe608060405234801561001057600080fd5b50600436106100935760003560e01c80632986c0e5116100665780632986c0e5146100e4578063454af8e8146100ed5780638da5cb5b14610100578063c2d66d991461012b578063cfb519281461013e57600080fd5b80630e2a73e81461009857806319e1c8cf146100be5780632112b40a146100c757806322e88d24146100dc575b600080fd5b6100ab6100a6366004610c48565b610151565b6040519081526020015b60405180910390f35b6100ab60065481565b6100da6100d5366004610bf1565b610168565b005b6006546100ab565b6100ab60075481565b6100da6100fb366004610c13565b610293565b600b54610113906001600160a01b031681565b6040516001600160a01b0390911681526020016100b5565b6100da610139366004610b6a565b6102e4565b6100ab61014c366004610c13565b6103f2565b6008816003811061016157600080fd5b0154905081565b60008281526005602052604090205482906001600160a01b031633146101e65760405162461bcd60e51b815260206004820152602860248201527f536f75726365206d75737420626520746865206f7261636c65206f6620746865604482015267081c995c5d595cdd60c21b60648201526084015b60405180910390fd5b60008181526005602052604080822080546001600160a01b03191690555182917f7cc135e0cebb02c3480ae5d74d377283180a2601f8f644edf7987b009316c63a91a28160086007546003811061023f5761023f610eae565b0155600754600390610252906001610d3d565b61025c9190610e76565b600755604051829084907feb266ea232c3033750177036d436103c6e9b8957ab98314770f63db8d92d92b590600090a35060065550565b600c54600d546102ad916001600160a01b031690836102e4565b600e54600f546102c7916001600160a01b031690836102e4565b6010546011546102e1916001600160a01b031690836102e4565b50565b600060068190556102fd83306310895a0560e11b61040f565b604080518082019091526008815267195b991c1bda5b9d60c21b602082015290915061032b90829084610434565b6103836040518060400160405280600f81526020016e6167677265676174696f6e5479706560881b815250604051806040016040528060048152602001636d6f646560e01b815250836104349092919063ffffffff16565b6103df604051806040016040528060088152602001670c6dee0f2a0c2e8d60c31b8152506040518060400160405280600f81526020016e646174612e6c6963656e73654b657960881b815250836104349092919063ffffffff16565b6103eb84826000610457565b5050505050565b805160009082906104065750600092915050565b50506020015190565b610417610aa2565b61041f610aa2565b61042b818686866104ea565b95945050505050565b60808301516104439083610530565b60808301516104529082610530565b505050565b600454600090610468816001610d3d565b600455835160408086015160808701515191516000936320214ca360e11b936104a09386938493923092918a91600191602401610cae565b60408051601f198184030181529190526020810180516001600160e01b03166001600160e01b03199093169290921790915290506104e086838684610547565b9695505050505050565b6104f2610aa2565b61050285608001516101006106b4565b50508284526001600160a01b03821660208501526001600160e01b031981166040850152835b949350505050565b61053d826003835161071f565b6104528282610834565b6040516bffffffffffffffffffffffff193060601b1660208201526034810184905260009060540160408051808303601f1901815282825280516020918201206000818152600590925291812080546001600160a01b0319166001600160a01b038a1617905590925082917fb5e6e01e79f91267dc17b4e6314d5d4d03593d2ceee0fbb452b750bd70ea5af99190a2600254604051630200057560e51b81526001600160a01b0390911690634000aea09061060a90889087908790600401610d16565b602060405180830381600087803b15801561062457600080fd5b505af1158015610638573d6000803e3d6000fd5b505050506040513d601f19601f8201168201806040525081019061065c9190610bcf565b6105285760405162461bcd60e51b815260206004820152602360248201527f756e61626c6520746f207472616e73666572416e6443616c6c20746f206f7261604482015262636c6560e81b60648201526084016101dd565b6040805180820190915260608152600060208201526106d4602083610e76565b156106fc576106e4602083610e76565b6106ef906020610e5f565b6106f99083610d3d565b91505b506020808301829052604080518085526000815283019091019052815b92915050565b60178167ffffffffffffffff161161074a576107448360e0600585901b168317610862565b50505050565b60ff8167ffffffffffffffff161161078857610771836018611fe0600586901b1617610862565b506107448367ffffffffffffffff83166001610887565b61ffff8167ffffffffffffffff16116107c7576107b0836019611fe0600586901b1617610862565b506107448367ffffffffffffffff83166002610887565b63ffffffff8167ffffffffffffffff1611610808576107f183601a611fe0600586901b1617610862565b506107448367ffffffffffffffff83166004610887565b61081d83601b611fe0600586901b1617610862565b506107448367ffffffffffffffff83166008610887565b60408051808201909152606081526000602082015261085b838460000151518485516108ad565b9392505050565b60408051808201909152606081526000602082015261085b8384600001515184610997565b6040805180820190915260608152600060208201526105288485600001515185856109f3565b60408051808201909152606081526000602082015282518211156108d057600080fd5b60208501516108df8386610d3d565b11156109125761091285610902876020015187866108fd9190610d3d565b610a74565b61090d906002610e40565b610a8b565b6000808651805187602083010193508088870111156109315787860182525b505050602084015b602084106109715780518252610950602083610d3d565b915061095d602082610d3d565b905061096a602085610e5f565b9350610939565b51815160001960208690036101000a019081169019919091161790525083949350505050565b604080518082019091526060815260006020820152836020015183106109cc576109cc848560200151600261090d9190610e40565b8351805160208583010184815350808514156109e9576001810182525b5093949350505050565b6040805180820190915260608152600060208201526020850151610a178584610d3d565b1115610a2b57610a2b856109028685610d3d565b60006001610a3b84610100610d98565b610a459190610e5f565b9050855183868201018583198251161781525080518487011115610a695783860181525b509495945050505050565b600081831115610a85575081610719565b50919050565b8151610a9783836106b4565b506107448382610834565b6040805160a0810182526000808252602080830182905282840182905260608084018390528451808601909552845283015290608082015290565b600082601f830112610aee57600080fd5b813567ffffffffffffffff80821115610b0957610b09610ec4565b604051601f8301601f19908116603f01168101908282118183101715610b3157610b31610ec4565b81604052838152866020858801011115610b4a57600080fd5b836020870160208301376000602085830101528094505050505092915050565b600080600060608486031215610b7f57600080fd5b83356001600160a01b0381168114610b9657600080fd5b925060208401359150604084013567ffffffffffffffff811115610bb957600080fd5b610bc586828701610add565b9150509250925092565b600060208284031215610be157600080fd5b8151801515811461085b57600080fd5b60008060408385031215610c0457600080fd5b50508035926020909101359150565b600060208284031215610c2557600080fd5b813567ffffffffffffffff811115610c3c57600080fd5b61052884828501610add565b600060208284031215610c5a57600080fd5b5035919050565b6000815180845260005b81811015610c8757602081850181015186830182015201610c6b565b81811115610c99576000602083870101525b50601f01601f19169290920160200192915050565b6001600160a01b0389811682526020820189905260408201889052861660608201526001600160e01b03198516608082015260a0810184905260c0810183905261010060e08201819052600090610d0783820185610c61565b9b9a5050505050505050505050565b60018060a01b038416815282602082015260606040820152600061042b6060830184610c61565b60008219821115610d5057610d50610e98565b500190565b600181815b80851115610d90578160001904821115610d7657610d76610e98565b80851615610d8357918102915b93841c9390800290610d5a565b509250929050565b600061085b8383600082610dae57506001610719565b81610dbb57506000610719565b8160018114610dd15760028114610ddb57610df7565b6001915050610719565b60ff841115610dec57610dec610e98565b50506001821b610719565b5060208310610133831016604e8410600b8410161715610e1a575081810a610719565b610e248383610d55565b8060001904821115610e3857610e38610e98565b029392505050565b6000816000190483118215151615610e5a57610e5a610e98565b500290565b600082821015610e7157610e71610e98565b500390565b600082610e9357634e487b7160e01b600052601260045260246000fd5b500690565b634e487b7160e01b600052601160045260246000fd5b634e487b7160e01b600052603260045260246000fd5b634e487b7160e01b600052604160045260246000fdfea26469706673582212209a148719872b5013b8417825e0113bcdfe178ae6441a9be878a78571c4c590cf64736f6c63430008060033",
          "opcodes": "PUSH1 0x1 PUSH1 0x4 SSTORE PUSH1 0xC DUP1 SLOAD PUSH1 0x1 PUSH1 0x1 PUSH1 0xA0 SHL SUB NOT AND PUSH20 0x4F843E820ABAA164FEDC7E503C510AFBE5257F65 OR SWAP1 SSTORE PUSH1 0xC0 PUSH1 0x40 MSTORE PUSH1 0x20 PUSH1 0x80 SWAP1 DUP2 MSTORE PUSH32 0x3462626334613136326237393435386162306332343666656537333939656632 PUSH1 0xA0 MSTORE PUSH2 0x63 SWAP1 PUSH2 0x18B JUMP JUMPDEST PUSH1 0xD SSTORE PUSH1 0xE DUP1 SLOAD PUSH1 0x1 PUSH1 0x1 PUSH1 0xA0 SHL SUB NOT AND PUSH20 0xDEEAA7404D72FB57FB9DA21B4B6E71B5E88F44A2 OR SWAP1 SSTORE PUSH1 0x40 DUP1 MLOAD DUP1 DUP3 ADD SWAP1 SWAP2 MSTORE PUSH1 0x20 DUP1 DUP3 MSTORE PUSH32 0x6364633338326562313863623437643838346634323134663066646137333266 SWAP1 DUP3 ADD MSTORE PUSH2 0xC9 SWAP1 PUSH2 0x18B JUMP JUMPDEST PUSH1 0xF SSTORE PUSH1 0x10 DUP1 SLOAD PUSH1 0x1 PUSH1 0x1 PUSH1 0xA0 SHL SUB NOT AND PUSH20 0x1F3CF7A276EAAB0B0309B9EAE6D48693DCC327F1 OR SWAP1 SSTORE PUSH1 0x40 DUP1 MLOAD DUP1 DUP3 ADD SWAP1 SWAP2 MSTORE PUSH1 0x20 DUP1 DUP3 MSTORE PUSH32 0x3664383762633436373434333461393939333537353438396437353930613234 SWAP1 DUP3 ADD MSTORE PUSH2 0x12F SWAP1 PUSH2 0x18B JUMP JUMPDEST PUSH1 0x11 SSTORE CALLVALUE DUP1 ISZERO PUSH2 0x13E JUMPI PUSH1 0x0 DUP1 REVERT JUMPDEST POP PUSH1 0x2 DUP1 SLOAD PUSH1 0x1 PUSH1 0x1 PUSH1 0xA0 SHL SUB NOT AND PUSH20 0xB0897686C545045AFC77CF20EC7A532E3120E0F1 OR SWAP1 SSTORE PUSH1 0xB DUP1 SLOAD PUSH1 0x1 PUSH1 0x1 PUSH1 0xA0 SHL SUB NOT AND CALLER OR SWAP1 SSTORE PUSH1 0x0 PUSH1 0x8 DUP2 SWAP1 SSTORE PUSH1 0x9 DUP2 SWAP1 SSTORE PUSH1 0xA SSTORE PUSH2 0x1A8 JUMP JUMPDEST DUP1 MLOAD PUSH1 0x0 SWAP1 DUP3 SWAP1 PUSH2 0x19F JUMPI POP PUSH1 0x0 SWAP3 SWAP2 POP POP JUMP JUMPDEST POP POP PUSH1 0x20 ADD MLOAD SWAP1 JUMP JUMPDEST PUSH2 0xF10 DUP1 PUSH2 0x1B7 PUSH1 0x0 CODECOPY PUSH1 0x0 RETURN INVALID PUSH1 0x80 PUSH1 0x40 MSTORE CALLVALUE DUP1 ISZERO PUSH2 0x10 JUMPI PUSH1 0x0 DUP1 REVERT JUMPDEST POP PUSH1 0x4 CALLDATASIZE LT PUSH2 0x93 JUMPI PUSH1 0x0 CALLDATALOAD PUSH1 0xE0 SHR DUP1 PUSH4 0x2986C0E5 GT PUSH2 0x66 JUMPI DUP1 PUSH4 0x2986C0E5 EQ PUSH2 0xE4 JUMPI DUP1 PUSH4 0x454AF8E8 EQ PUSH2 0xED JUMPI DUP1 PUSH4 0x8DA5CB5B EQ PUSH2 0x100 JUMPI DUP1 PUSH4 0xC2D66D99 EQ PUSH2 0x12B JUMPI DUP1 PUSH4 0xCFB51928 EQ PUSH2 0x13E JUMPI PUSH1 0x0 DUP1 REVERT JUMPDEST DUP1 PUSH4 0xE2A73E8 EQ PUSH2 0x98 JUMPI DUP1 PUSH4 0x19E1C8CF EQ PUSH2 0xBE JUMPI DUP1 PUSH4 0x2112B40A EQ PUSH2 0xC7 JUMPI DUP1 PUSH4 0x22E88D24 EQ PUSH2 0xDC JUMPI JUMPDEST PUSH1 0x0 DUP1 REVERT JUMPDEST PUSH2 0xAB PUSH2 0xA6 CALLDATASIZE PUSH1 0x4 PUSH2 0xC48 JUMP JUMPDEST PUSH2 0x151 JUMP JUMPDEST PUSH1 0x40 MLOAD SWAP1 DUP2 MSTORE PUSH1 0x20 ADD JUMPDEST PUSH1 0x40 MLOAD DUP1 SWAP2 SUB SWAP1 RETURN JUMPDEST PUSH2 0xAB PUSH1 0x6 SLOAD DUP2 JUMP JUMPDEST PUSH2 0xDA PUSH2 0xD5 CALLDATASIZE PUSH1 0x4 PUSH2 0xBF1 JUMP JUMPDEST PUSH2 0x168 JUMP JUMPDEST STOP JUMPDEST PUSH1 0x6 SLOAD PUSH2 0xAB JUMP JUMPDEST PUSH2 0xAB PUSH1 0x7 SLOAD DUP2 JUMP JUMPDEST PUSH2 0xDA PUSH2 0xFB CALLDATASIZE PUSH1 0x4 PUSH2 0xC13 JUMP JUMPDEST PUSH2 0x293 JUMP JUMPDEST PUSH1 0xB SLOAD PUSH2 0x113 SWAP1 PUSH1 0x1 PUSH1 0x1 PUSH1 0xA0 SHL SUB AND DUP2 JUMP JUMPDEST PUSH1 0x40 MLOAD PUSH1 0x1 PUSH1 0x1 PUSH1 0xA0 SHL SUB SWAP1 SWAP2 AND DUP2 MSTORE PUSH1 0x20 ADD PUSH2 0xB5 JUMP JUMPDEST PUSH2 0xDA PUSH2 0x139 CALLDATASIZE PUSH1 0x4 PUSH2 0xB6A JUMP JUMPDEST PUSH2 0x2E4 JUMP JUMPDEST PUSH2 0xAB PUSH2 0x14C CALLDATASIZE PUSH1 0x4 PUSH2 0xC13 JUMP JUMPDEST PUSH2 0x3F2 JUMP JUMPDEST PUSH1 0x8 DUP2 PUSH1 0x3 DUP2 LT PUSH2 0x161 JUMPI PUSH1 0x0 DUP1 REVERT JUMPDEST ADD SLOAD SWAP1 POP DUP2 JUMP JUMPDEST PUSH1 0x0 DUP3 DUP2 MSTORE PUSH1 0x5 PUSH1 0x20 MSTORE PUSH1 0x40 SWAP1 KECCAK256 SLOAD DUP3 SWAP1 PUSH1 0x1 PUSH1 0x1 PUSH1 0xA0 SHL SUB AND CALLER EQ PUSH2 0x1E6 JUMPI PUSH1 0x40 MLOAD PUSH3 0x461BCD PUSH1 0xE5 SHL DUP2 MSTORE PUSH1 0x20 PUSH1 0x4 DUP3 ADD MSTORE PUSH1 0x28 PUSH1 0x24 DUP3 ADD MSTORE PUSH32 0x536F75726365206D75737420626520746865206F7261636C65206F6620746865 PUSH1 0x44 DUP3 ADD MSTORE PUSH8 0x81C995C5D595CDD PUSH1 0xC2 SHL PUSH1 0x64 DUP3 ADD MSTORE PUSH1 0x84 ADD JUMPDEST PUSH1 0x40 MLOAD DUP1 SWAP2 SUB SWAP1 REVERT JUMPDEST PUSH1 0x0 DUP2 DUP2 MSTORE PUSH1 0x5 PUSH1 0x20 MSTORE PUSH1 0x40 DUP1 DUP3 KECCAK256 DUP1 SLOAD PUSH1 0x1 PUSH1 0x1 PUSH1 0xA0 SHL SUB NOT AND SWAP1 SSTORE MLOAD DUP3 SWAP2 PUSH32 0x7CC135E0CEBB02C3480AE5D74D377283180A2601F8F644EDF7987B009316C63A SWAP2 LOG2 DUP2 PUSH1 0x8 PUSH1 0x7 SLOAD PUSH1 0x3 DUP2 LT PUSH2 0x23F JUMPI PUSH2 0x23F PUSH2 0xEAE JUMP JUMPDEST ADD SSTORE PUSH1 0x7 SLOAD PUSH1 0x3 SWAP1 PUSH2 0x252 SWAP1 PUSH1 0x1 PUSH2 0xD3D JUMP JUMPDEST PUSH2 0x25C SWAP2 SWAP1 PUSH2 0xE76 JUMP JUMPDEST PUSH1 0x7 SSTORE PUSH1 0x40 MLOAD DUP3 SWAP1 DUP5 SWAP1 PUSH32 0xEB266EA232C3033750177036D436103C6E9B8957AB98314770F63DB8D92D92B5 SWAP1 PUSH1 0x0 SWAP1 LOG3 POP PUSH1 0x6 SSTORE POP JUMP JUMPDEST PUSH1 0xC SLOAD PUSH1 0xD SLOAD PUSH2 0x2AD SWAP2 PUSH1 0x1 PUSH1 0x1 PUSH1 0xA0 SHL SUB AND SWAP1 DUP4 PUSH2 0x2E4 JUMP JUMPDEST PUSH1 0xE SLOAD PUSH1 0xF SLOAD PUSH2 0x2C7 SWAP2 PUSH1 0x1 PUSH1 0x1 PUSH1 0xA0 SHL SUB AND SWAP1 DUP4 PUSH2 0x2E4 JUMP JUMPDEST PUSH1 0x10 SLOAD PUSH1 0x11 SLOAD PUSH2 0x2E1 SWAP2 PUSH1 0x1 PUSH1 0x1 PUSH1 0xA0 SHL SUB AND SWAP1 DUP4 PUSH2 0x2E4 JUMP JUMPDEST POP JUMP JUMPDEST PUSH1 0x0 PUSH1 0x6 DUP2 SWAP1 SSTORE PUSH2 0x2FD DUP4 ADDRESS PUSH4 0x10895A05 PUSH1 0xE1 SHL PUSH2 0x40F JUMP JUMPDEST PUSH1 0x40 DUP1 MLOAD DUP1 DUP3 ADD SWAP1 SWAP2 MSTORE PUSH1 0x8 DUP2 MSTORE PUSH8 0x195B991C1BDA5B9D PUSH1 0xC2 SHL PUSH1 0x20 DUP3 ADD MSTORE SWAP1 SWAP2 POP PUSH2 0x32B SWAP1 DUP3 SWAP1 DUP5 PUSH2 0x434 JUMP JUMPDEST PUSH2 0x383 PUSH1 0x40 MLOAD DUP1 PUSH1 0x40 ADD PUSH1 0x40 MSTORE DUP1 PUSH1 0xF DUP2 MSTORE PUSH1 0x20 ADD PUSH15 0x6167677265676174696F6E54797065 PUSH1 0x88 SHL DUP2 MSTORE POP PUSH1 0x40 MLOAD DUP1 PUSH1 0x40 ADD PUSH1 0x40 MSTORE DUP1 PUSH1 0x4 DUP2 MSTORE PUSH1 0x20 ADD PUSH4 0x6D6F6465 PUSH1 0xE0 SHL DUP2 MSTORE POP DUP4 PUSH2 0x434 SWAP1 SWAP3 SWAP2 SWAP1 PUSH4 0xFFFFFFFF AND JUMP JUMPDEST PUSH2 0x3DF PUSH1 0x40 MLOAD DUP1 PUSH1 0x40 ADD PUSH1 0x40 MSTORE DUP1 PUSH1 0x8 DUP2 MSTORE PUSH1 0x20 ADD PUSH8 0xC6DEE0F2A0C2E8D PUSH1 0xC3 SHL DUP2 MSTORE POP PUSH1 0x40 MLOAD DUP1 PUSH1 0x40 ADD PUSH1 0x40 MSTORE DUP1 PUSH1 0xF DUP2 MSTORE PUSH1 0x20 ADD PUSH15 0x646174612E6C6963656E73654B6579 PUSH1 0x88 SHL DUP2 MSTORE POP DUP4 PUSH2 0x434 SWAP1 SWAP3 SWAP2 SWAP1 PUSH4 0xFFFFFFFF AND JUMP JUMPDEST PUSH2 0x3EB DUP5 DUP3 PUSH1 0x0 PUSH2 0x457 JUMP JUMPDEST POP POP POP POP POP JUMP JUMPDEST DUP1 MLOAD PUSH1 0x0 SWAP1 DUP3 SWAP1 PUSH2 0x406 JUMPI POP PUSH1 0x0 SWAP3 SWAP2 POP POP JUMP JUMPDEST POP POP PUSH1 0x20 ADD MLOAD SWAP1 JUMP JUMPDEST PUSH2 0x417 PUSH2 0xAA2 JUMP JUMPDEST PUSH2 0x41F PUSH2 0xAA2 JUMP JUMPDEST PUSH2 0x42B DUP2 DUP7 DUP7 DUP7 PUSH2 0x4EA JUMP JUMPDEST SWAP6 SWAP5 POP POP POP POP POP JUMP JUMPDEST PUSH1 0x80 DUP4 ADD MLOAD PUSH2 0x443 SWAP1 DUP4 PUSH2 0x530 JUMP JUMPDEST PUSH1 0x80 DUP4 ADD MLOAD PUSH2 0x452 SWAP1 DUP3 PUSH2 0x530 JUMP JUMPDEST POP POP POP JUMP JUMPDEST PUSH1 0x4 SLOAD PUSH1 0x0 SWAP1 PUSH2 0x468 DUP2 PUSH1 0x1 PUSH2 0xD3D JUMP JUMPDEST PUSH1 0x4 SSTORE DUP4 MLOAD PUSH1 0x40 DUP1 DUP7 ADD MLOAD PUSH1 0x80 DUP8 ADD MLOAD MLOAD SWAP2 MLOAD PUSH1 0x0 SWAP4 PUSH4 0x20214CA3 PUSH1 0xE1 SHL SWAP4 PUSH2 0x4A0 SWAP4 DUP7 SWAP4 DUP5 SWAP4 SWAP3 ADDRESS SWAP3 SWAP2 DUP11 SWAP2 PUSH1 0x1 SWAP2 PUSH1 0x24 ADD PUSH2 0xCAE JUMP JUMPDEST PUSH1 0x40 DUP1 MLOAD PUSH1 0x1F NOT DUP2 DUP5 SUB ADD DUP2 MSTORE SWAP2 SWAP1 MSTORE PUSH1 0x20 DUP2 ADD DUP1 MLOAD PUSH1 0x1 PUSH1 0x1 PUSH1 0xE0 SHL SUB AND PUSH1 0x1 PUSH1 0x1 PUSH1 0xE0 SHL SUB NOT SWAP1 SWAP4 AND SWAP3 SWAP1 SWAP3 OR SWAP1 SWAP2 MSTORE SWAP1 POP PUSH2 0x4E0 DUP7 DUP4 DUP7 DUP5 PUSH2 0x547 JUMP JUMPDEST SWAP7 SWAP6 POP POP POP POP POP POP JUMP JUMPDEST PUSH2 0x4F2 PUSH2 0xAA2 JUMP JUMPDEST PUSH2 0x502 DUP6 PUSH1 0x80 ADD MLOAD PUSH2 0x100 PUSH2 0x6B4 JUMP JUMPDEST POP POP DUP3 DUP5 MSTORE PUSH1 0x1 PUSH1 0x1 PUSH1 0xA0 SHL SUB DUP3 AND PUSH1 0x20 DUP6 ADD MSTORE PUSH1 0x1 PUSH1 0x1 PUSH1 0xE0 SHL SUB NOT DUP2 AND PUSH1 0x40 DUP6 ADD MSTORE DUP4 JUMPDEST SWAP5 SWAP4 POP POP POP POP JUMP JUMPDEST PUSH2 0x53D DUP3 PUSH1 0x3 DUP4 MLOAD PUSH2 0x71F JUMP JUMPDEST PUSH2 0x452 DUP3 DUP3 PUSH2 0x834 JUMP JUMPDEST PUSH1 0x40 MLOAD PUSH12 0xFFFFFFFFFFFFFFFFFFFFFFFF NOT ADDRESS PUSH1 0x60 SHL AND PUSH1 0x20 DUP3 ADD MSTORE PUSH1 0x34 DUP2 ADD DUP5 SWAP1 MSTORE PUSH1 0x0 SWAP1 PUSH1 0x54 ADD PUSH1 0x40 DUP1 MLOAD DUP1 DUP4 SUB PUSH1 0x1F NOT ADD DUP2 MSTORE DUP3 DUP3 MSTORE DUP1 MLOAD PUSH1 0x20 SWAP2 DUP3 ADD KECCAK256 PUSH1 0x0 DUP2 DUP2 MSTORE PUSH1 0x5 SWAP1 SWAP3 MSTORE SWAP2 DUP2 KECCAK256 DUP1 SLOAD PUSH1 0x1 PUSH1 0x1 PUSH1 0xA0 SHL SUB NOT AND PUSH1 0x1 PUSH1 0x1 PUSH1 0xA0 SHL SUB DUP11 AND OR SWAP1 SSTORE SWAP1 SWAP3 POP DUP3 SWAP2 PUSH32 0xB5E6E01E79F91267DC17B4E6314D5D4D03593D2CEEE0FBB452B750BD70EA5AF9 SWAP2 SWAP1 LOG2 PUSH1 0x2 SLOAD PUSH1 0x40 MLOAD PUSH4 0x2000575 PUSH1 0xE5 SHL DUP2 MSTORE PUSH1 0x1 PUSH1 0x1 PUSH1 0xA0 SHL SUB SWAP1 SWAP2 AND SWAP1 PUSH4 0x4000AEA0 SWAP1 PUSH2 0x60A SWAP1 DUP9 SWAP1 DUP8 SWAP1 DUP8 SWAP1 PUSH1 0x4 ADD PUSH2 0xD16 JUMP JUMPDEST PUSH1 0x20 PUSH1 0x40 MLOAD DUP1 DUP4 SUB DUP2 PUSH1 0x0 DUP8 DUP1 EXTCODESIZE ISZERO DUP1 ISZERO PUSH2 0x624 JUMPI PUSH1 0x0 DUP1 REVERT JUMPDEST POP GAS CALL ISZERO DUP1 ISZERO PUSH2 0x638 JUMPI RETURNDATASIZE PUSH1 0x0 DUP1 RETURNDATACOPY RETURNDATASIZE PUSH1 0x0 REVERT JUMPDEST POP POP POP POP PUSH1 0x40 MLOAD RETURNDATASIZE PUSH1 0x1F NOT PUSH1 0x1F DUP3 ADD AND DUP3 ADD DUP1 PUSH1 0x40 MSTORE POP DUP2 ADD SWAP1 PUSH2 0x65C SWAP2 SWAP1 PUSH2 0xBCF JUMP JUMPDEST PUSH2 0x528 JUMPI PUSH1 0x40 MLOAD PUSH3 0x461BCD PUSH1 0xE5 SHL DUP2 MSTORE PUSH1 0x20 PUSH1 0x4 DUP3 ADD MSTORE PUSH1 0x23 PUSH1 0x24 DUP3 ADD MSTORE PUSH32 0x756E61626C6520746F207472616E73666572416E6443616C6C20746F206F7261 PUSH1 0x44 DUP3 ADD MSTORE PUSH3 0x636C65 PUSH1 0xE8 SHL PUSH1 0x64 DUP3 ADD MSTORE PUSH1 0x84 ADD PUSH2 0x1DD JUMP JUMPDEST PUSH1 0x40 DUP1 MLOAD DUP1 DUP3 ADD SWAP1 SWAP2 MSTORE PUSH1 0x60 DUP2 MSTORE PUSH1 0x0 PUSH1 0x20 DUP3 ADD MSTORE PUSH2 0x6D4 PUSH1 0x20 DUP4 PUSH2 0xE76 JUMP JUMPDEST ISZERO PUSH2 0x6FC JUMPI PUSH2 0x6E4 PUSH1 0x20 DUP4 PUSH2 0xE76 JUMP JUMPDEST PUSH2 0x6EF SWAP1 PUSH1 0x20 PUSH2 0xE5F JUMP JUMPDEST PUSH2 0x6F9 SWAP1 DUP4 PUSH2 0xD3D JUMP JUMPDEST SWAP2 POP JUMPDEST POP PUSH1 0x20 DUP1 DUP4 ADD DUP3 SWAP1 MSTORE PUSH1 0x40 DUP1 MLOAD DUP1 DUP6 MSTORE PUSH1 0x0 DUP2 MSTORE DUP4 ADD SWAP1 SWAP2 ADD SWAP1 MSTORE DUP2 JUMPDEST SWAP3 SWAP2 POP POP JUMP JUMPDEST PUSH1 0x17 DUP2 PUSH8 0xFFFFFFFFFFFFFFFF AND GT PUSH2 0x74A JUMPI PUSH2 0x744 DUP4 PUSH1 0xE0 PUSH1 0x5 DUP6 SWAP1 SHL AND DUP4 OR PUSH2 0x862 JUMP JUMPDEST POP POP POP POP JUMP JUMPDEST PUSH1 0xFF DUP2 PUSH8 0xFFFFFFFFFFFFFFFF AND GT PUSH2 0x788 JUMPI PUSH2 0x771 DUP4 PUSH1 0x18 PUSH2 0x1FE0 PUSH1 0x5 DUP7 SWAP1 SHL AND OR PUSH2 0x862 JUMP JUMPDEST POP PUSH2 0x744 DUP4 PUSH8 0xFFFFFFFFFFFFFFFF DUP4 AND PUSH1 0x1 PUSH2 0x887 JUMP JUMPDEST PUSH2 0xFFFF DUP2 PUSH8 0xFFFFFFFFFFFFFFFF AND GT PUSH2 0x7C7 JUMPI PUSH2 0x7B0 DUP4 PUSH1 0x19 PUSH2 0x1FE0 PUSH1 0x5 DUP7 SWAP1 SHL AND OR PUSH2 0x862 JUMP JUMPDEST POP PUSH2 0x744 DUP4 PUSH8 0xFFFFFFFFFFFFFFFF DUP4 AND PUSH1 0x2 PUSH2 0x887 JUMP JUMPDEST PUSH4 0xFFFFFFFF DUP2 PUSH8 0xFFFFFFFFFFFFFFFF AND GT PUSH2 0x808 JUMPI PUSH2 0x7F1 DUP4 PUSH1 0x1A PUSH2 0x1FE0 PUSH1 0x5 DUP7 SWAP1 SHL AND OR PUSH2 0x862 JUMP JUMPDEST POP PUSH2 0x744 DUP4 PUSH8 0xFFFFFFFFFFFFFFFF DUP4 AND PUSH1 0x4 PUSH2 0x887 JUMP JUMPDEST PUSH2 0x81D DUP4 PUSH1 0x1B PUSH2 0x1FE0 PUSH1 0x5 DUP7 SWAP1 SHL AND OR PUSH2 0x862 JUMP JUMPDEST POP PUSH2 0x744 DUP4 PUSH8 0xFFFFFFFFFFFFFFFF DUP4 AND PUSH1 0x8 PUSH2 0x887 JUMP JUMPDEST PUSH1 0x40 DUP1 MLOAD DUP1 DUP3 ADD SWAP1 SWAP2 MSTORE PUSH1 0x60 DUP2 MSTORE PUSH1 0x0 PUSH1 0x20 DUP3 ADD MSTORE PUSH2 0x85B DUP4 DUP5 PUSH1 0x0 ADD MLOAD MLOAD DUP5 DUP6 MLOAD PUSH2 0x8AD JUMP JUMPDEST SWAP4 SWAP3 POP POP POP JUMP JUMPDEST PUSH1 0x40 DUP1 MLOAD DUP1 DUP3 ADD SWAP1 SWAP2 MSTORE PUSH1 0x60 DUP2 MSTORE PUSH1 0x0 PUSH1 0x20 DUP3 ADD MSTORE PUSH2 0x85B DUP4 DUP5 PUSH1 0x0 ADD MLOAD MLOAD DUP5 PUSH2 0x997 JUMP JUMPDEST PUSH1 0x40 DUP1 MLOAD DUP1 DUP3 ADD SWAP1 SWAP2 MSTORE PUSH1 0x60 DUP2 MSTORE PUSH1 0x0 PUSH1 0x20 DUP3 ADD MSTORE PUSH2 0x528 DUP5 DUP6 PUSH1 0x0 ADD MLOAD MLOAD DUP6 DUP6 PUSH2 0x9F3 JUMP JUMPDEST PUSH1 0x40 DUP1 MLOAD DUP1 DUP3 ADD SWAP1 SWAP2 MSTORE PUSH1 0x60 DUP2 MSTORE PUSH1 0x0 PUSH1 0x20 DUP3 ADD MSTORE DUP3 MLOAD DUP3 GT ISZERO PUSH2 0x8D0 JUMPI PUSH1 0x0 DUP1 REVERT JUMPDEST PUSH1 0x20 DUP6 ADD MLOAD PUSH2 0x8DF DUP4 DUP7 PUSH2 0xD3D JUMP JUMPDEST GT ISZERO PUSH2 0x912 JUMPI PUSH2 0x912 DUP6 PUSH2 0x902 DUP8 PUSH1 0x20 ADD MLOAD DUP8 DUP7 PUSH2 0x8FD SWAP2 SWAP1 PUSH2 0xD3D JUMP JUMPDEST PUSH2 0xA74 JUMP JUMPDEST PUSH2 0x90D SWAP1 PUSH1 0x2 PUSH2 0xE40 JUMP JUMPDEST PUSH2 0xA8B JUMP JUMPDEST PUSH1 0x0 DUP1 DUP7 MLOAD DUP1 MLOAD DUP8 PUSH1 0x20 DUP4 ADD ADD SWAP4 POP DUP1 DUP9 DUP8 ADD GT ISZERO PUSH2 0x931 JUMPI DUP8 DUP7 ADD DUP3 MSTORE JUMPDEST POP POP POP PUSH1 0x20 DUP5 ADD JUMPDEST PUSH1 0x20 DUP5 LT PUSH2 0x971 JUMPI DUP1 MLOAD DUP3 MSTORE PUSH2 0x950 PUSH1 0x20 DUP4 PUSH2 0xD3D JUMP JUMPDEST SWAP2 POP PUSH2 0x95D PUSH1 0x20 DUP3 PUSH2 0xD3D JUMP JUMPDEST SWAP1 POP PUSH2 0x96A PUSH1 0x20 DUP6 PUSH2 0xE5F JUMP JUMPDEST SWAP4 POP PUSH2 0x939 JUMP JUMPDEST MLOAD DUP2 MLOAD PUSH1 0x0 NOT PUSH1 0x20 DUP7 SWAP1 SUB PUSH2 0x100 EXP ADD SWAP1 DUP2 AND SWAP1 NOT SWAP2 SWAP1 SWAP2 AND OR SWAP1 MSTORE POP DUP4 SWAP5 SWAP4 POP POP POP POP JUMP JUMPDEST PUSH1 0x40 DUP1 MLOAD DUP1 DUP3 ADD SWAP1 SWAP2 MSTORE PUSH1 0x60 DUP2 MSTORE PUSH1 0x0 PUSH1 0x20 DUP3 ADD MSTORE DUP4 PUSH1 0x20 ADD MLOAD DUP4 LT PUSH2 0x9CC JUMPI PUSH2 0x9CC DUP5 DUP6 PUSH1 0x20 ADD MLOAD PUSH1 0x2 PUSH2 0x90D SWAP2 SWAP1 PUSH2 0xE40 JUMP JUMPDEST DUP4 MLOAD DUP1 MLOAD PUSH1 0x20 DUP6 DUP4 ADD ADD DUP5 DUP2 MSTORE8 POP DUP1 DUP6 EQ ISZERO PUSH2 0x9E9 JUMPI PUSH1 0x1 DUP2 ADD DUP3 MSTORE JUMPDEST POP SWAP4 SWAP5 SWAP4 POP POP POP POP JUMP JUMPDEST PUSH1 0x40 DUP1 MLOAD DUP1 DUP3 ADD SWAP1 SWAP2 MSTORE PUSH1 0x60 DUP2 MSTORE PUSH1 0x0 PUSH1 0x20 DUP3 ADD MSTORE PUSH1 0x20 DUP6 ADD MLOAD PUSH2 0xA17 DUP6 DUP5 PUSH2 0xD3D JUMP JUMPDEST GT ISZERO PUSH2 0xA2B JUMPI PUSH2 0xA2B DUP6 PUSH2 0x902 DUP7 DUP6 PUSH2 0xD3D JUMP JUMPDEST PUSH1 0x0 PUSH1 0x1 PUSH2 0xA3B DUP5 PUSH2 0x100 PUSH2 0xD98 JUMP JUMPDEST PUSH2 0xA45 SWAP2 SWAP1 PUSH2 0xE5F JUMP JUMPDEST SWAP1 POP DUP6 MLOAD DUP4 DUP7 DUP3 ADD ADD DUP6 DUP4 NOT DUP3 MLOAD AND OR DUP2 MSTORE POP DUP1 MLOAD DUP5 DUP8 ADD GT ISZERO PUSH2 0xA69 JUMPI DUP4 DUP7 ADD DUP2 MSTORE JUMPDEST POP SWAP5 SWAP6 SWAP5 POP POP POP POP POP JUMP JUMPDEST PUSH1 0x0 DUP2 DUP4 GT ISZERO PUSH2 0xA85 JUMPI POP DUP2 PUSH2 0x719 JUMP JUMPDEST POP SWAP2 SWAP1 POP JUMP JUMPDEST DUP2 MLOAD PUSH2 0xA97 DUP4 DUP4 PUSH2 0x6B4 JUMP JUMPDEST POP PUSH2 0x744 DUP4 DUP3 PUSH2 0x834 JUMP JUMPDEST PUSH1 0x40 DUP1 MLOAD PUSH1 0xA0 DUP2 ADD DUP3 MSTORE PUSH1 0x0 DUP1 DUP3 MSTORE PUSH1 0x20 DUP1 DUP4 ADD DUP3 SWAP1 MSTORE DUP3 DUP5 ADD DUP3 SWAP1 MSTORE PUSH1 0x60 DUP1 DUP5 ADD DUP4 SWAP1 MSTORE DUP5 MLOAD DUP1 DUP7 ADD SWAP1 SWAP6 MSTORE DUP5 MSTORE DUP4 ADD MSTORE SWAP1 PUSH1 0x80 DUP3 ADD MSTORE SWAP1 JUMP JUMPDEST PUSH1 0x0 DUP3 PUSH1 0x1F DUP4 ADD SLT PUSH2 0xAEE JUMPI PUSH1 0x0 DUP1 REVERT JUMPDEST DUP2 CALLDATALOAD PUSH8 0xFFFFFFFFFFFFFFFF DUP1 DUP3 GT ISZERO PUSH2 0xB09 JUMPI PUSH2 0xB09 PUSH2 0xEC4 JUMP JUMPDEST PUSH1 0x40 MLOAD PUSH1 0x1F DUP4 ADD PUSH1 0x1F NOT SWAP1 DUP2 AND PUSH1 0x3F ADD AND DUP2 ADD SWAP1 DUP3 DUP3 GT DUP2 DUP4 LT OR ISZERO PUSH2 0xB31 JUMPI PUSH2 0xB31 PUSH2 0xEC4 JUMP JUMPDEST DUP2 PUSH1 0x40 MSTORE DUP4 DUP2 MSTORE DUP7 PUSH1 0x20 DUP6 DUP9 ADD ADD GT ISZERO PUSH2 0xB4A JUMPI PUSH1 0x0 DUP1 REVERT JUMPDEST DUP4 PUSH1 0x20 DUP8 ADD PUSH1 0x20 DUP4 ADD CALLDATACOPY PUSH1 0x0 PUSH1 0x20 DUP6 DUP4 ADD ADD MSTORE DUP1 SWAP5 POP POP POP POP POP SWAP3 SWAP2 POP POP JUMP JUMPDEST PUSH1 0x0 DUP1 PUSH1 0x0 PUSH1 0x60 DUP5 DUP7 SUB SLT ISZERO PUSH2 0xB7F JUMPI PUSH1 0x0 DUP1 REVERT JUMPDEST DUP4 CALLDATALOAD PUSH1 0x1 PUSH1 0x1 PUSH1 0xA0 SHL SUB DUP2 AND DUP2 EQ PUSH2 0xB96 JUMPI PUSH1 0x0 DUP1 REVERT JUMPDEST SWAP3 POP PUSH1 0x20 DUP5 ADD CALLDATALOAD SWAP2 POP PUSH1 0x40 DUP5 ADD CALLDATALOAD PUSH8 0xFFFFFFFFFFFFFFFF DUP2 GT ISZERO PUSH2 0xBB9 JUMPI PUSH1 0x0 DUP1 REVERT JUMPDEST PUSH2 0xBC5 DUP7 DUP3 DUP8 ADD PUSH2 0xADD JUMP JUMPDEST SWAP2 POP POP SWAP3 POP SWAP3 POP SWAP3 JUMP JUMPDEST PUSH1 0x0 PUSH1 0x20 DUP3 DUP5 SUB SLT ISZERO PUSH2 0xBE1 JUMPI PUSH1 0x0 DUP1 REVERT JUMPDEST DUP2 MLOAD DUP1 ISZERO ISZERO DUP2 EQ PUSH2 0x85B JUMPI PUSH1 0x0 DUP1 REVERT JUMPDEST PUSH1 0x0 DUP1 PUSH1 0x40 DUP4 DUP6 SUB SLT ISZERO PUSH2 0xC04 JUMPI PUSH1 0x0 DUP1 REVERT JUMPDEST POP POP DUP1 CALLDATALOAD SWAP3 PUSH1 0x20 SWAP1 SWAP2 ADD CALLDATALOAD SWAP2 POP JUMP JUMPDEST PUSH1 0x0 PUSH1 0x20 DUP3 DUP5 SUB SLT ISZERO PUSH2 0xC25 JUMPI PUSH1 0x0 DUP1 REVERT JUMPDEST DUP2 CALLDATALOAD PUSH8 0xFFFFFFFFFFFFFFFF DUP2 GT ISZERO PUSH2 0xC3C JUMPI PUSH1 0x0 DUP1 REVERT JUMPDEST PUSH2 0x528 DUP5 DUP3 DUP6 ADD PUSH2 0xADD JUMP JUMPDEST PUSH1 0x0 PUSH1 0x20 DUP3 DUP5 SUB SLT ISZERO PUSH2 0xC5A JUMPI PUSH1 0x0 DUP1 REVERT JUMPDEST POP CALLDATALOAD SWAP2 SWAP1 POP JUMP JUMPDEST PUSH1 0x0 DUP2 MLOAD DUP1 DUP5 MSTORE PUSH1 0x0 JUMPDEST DUP2 DUP2 LT ISZERO PUSH2 0xC87 JUMPI PUSH1 0x20 DUP2 DUP6 ADD DUP2 ADD MLOAD DUP7 DUP4 ADD DUP3 ADD MSTORE ADD PUSH2 0xC6B JUMP JUMPDEST DUP2 DUP2 GT ISZERO PUSH2 0xC99 JUMPI PUSH1 0x0 PUSH1 0x20 DUP4 DUP8 ADD ADD MSTORE JUMPDEST POP PUSH1 0x1F ADD PUSH1 0x1F NOT AND SWAP3 SWAP1 SWAP3 ADD PUSH1 0x20 ADD SWAP3 SWAP2 POP POP JUMP JUMPDEST PUSH1 0x1 PUSH1 0x1 PUSH1 0xA0 SHL SUB DUP10 DUP2 AND DUP3 MSTORE PUSH1 0x20 DUP3 ADD DUP10 SWAP1 MSTORE PUSH1 0x40 DUP3 ADD DUP9 SWAP1 MSTORE DUP7 AND PUSH1 0x60 DUP3 ADD MSTORE PUSH1 0x1 PUSH1 0x1 PUSH1 0xE0 SHL SUB NOT DUP6 AND PUSH1 0x80 DUP3 ADD MSTORE PUSH1 0xA0 DUP2 ADD DUP5 SWAP1 MSTORE PUSH1 0xC0 DUP2 ADD DUP4 SWAP1 MSTORE PUSH2 0x100 PUSH1 0xE0 DUP3 ADD DUP2 SWAP1 MSTORE PUSH1 0x0 SWAP1 PUSH2 0xD07 DUP4 DUP3 ADD DUP6 PUSH2 0xC61 JUMP JUMPDEST SWAP12 SWAP11 POP POP POP POP POP POP POP POP POP POP POP JUMP JUMPDEST PUSH1 0x1 DUP1 PUSH1 0xA0 SHL SUB DUP5 AND DUP2 MSTORE DUP3 PUSH1 0x20 DUP3 ADD MSTORE PUSH1 0x60 PUSH1 0x40 DUP3 ADD MSTORE PUSH1 0x0 PUSH2 0x42B PUSH1 0x60 DUP4 ADD DUP5 PUSH2 0xC61 JUMP JUMPDEST PUSH1 0x0 DUP3 NOT DUP3 GT ISZERO PUSH2 0xD50 JUMPI PUSH2 0xD50 PUSH2 0xE98 JUMP JUMPDEST POP ADD SWAP1 JUMP JUMPDEST PUSH1 0x1 DUP2 DUP2 JUMPDEST DUP1 DUP6 GT ISZERO PUSH2 0xD90 JUMPI DUP2 PUSH1 0x0 NOT DIV DUP3 GT ISZERO PUSH2 0xD76 JUMPI PUSH2 0xD76 PUSH2 0xE98 JUMP JUMPDEST DUP1 DUP6 AND ISZERO PUSH2 0xD83 JUMPI SWAP2 DUP2 MUL SWAP2 JUMPDEST SWAP4 DUP5 SHR SWAP4 SWAP1 DUP1 MUL SWAP1 PUSH2 0xD5A JUMP JUMPDEST POP SWAP3 POP SWAP3 SWAP1 POP JUMP JUMPDEST PUSH1 0x0 PUSH2 0x85B DUP4 DUP4 PUSH1 0x0 DUP3 PUSH2 0xDAE JUMPI POP PUSH1 0x1 PUSH2 0x719 JUMP JUMPDEST DUP2 PUSH2 0xDBB JUMPI POP PUSH1 0x0 PUSH2 0x719 JUMP JUMPDEST DUP2 PUSH1 0x1 DUP2 EQ PUSH2 0xDD1 JUMPI PUSH1 0x2 DUP2 EQ PUSH2 0xDDB JUMPI PUSH2 0xDF7 JUMP JUMPDEST PUSH1 0x1 SWAP2 POP POP PUSH2 0x719 JUMP JUMPDEST PUSH1 0xFF DUP5 GT ISZERO PUSH2 0xDEC JUMPI PUSH2 0xDEC PUSH2 0xE98 JUMP JUMPDEST POP POP PUSH1 0x1 DUP3 SHL PUSH2 0x719 JUMP JUMPDEST POP PUSH1 0x20 DUP4 LT PUSH2 0x133 DUP4 LT AND PUSH1 0x4E DUP5 LT PUSH1 0xB DUP5 LT AND OR ISZERO PUSH2 0xE1A JUMPI POP DUP2 DUP2 EXP PUSH2 0x719 JUMP JUMPDEST PUSH2 0xE24 DUP4 DUP4 PUSH2 0xD55 JUMP JUMPDEST DUP1 PUSH1 0x0 NOT DIV DUP3 GT ISZERO PUSH2 0xE38 JUMPI PUSH2 0xE38 PUSH2 0xE98 JUMP JUMPDEST MUL SWAP4 SWAP3 POP POP POP JUMP JUMPDEST PUSH1 0x0 DUP2 PUSH1 0x0 NOT DIV DUP4 GT DUP3 ISZERO ISZERO AND ISZERO PUSH2 0xE5A JUMPI PUSH2 0xE5A PUSH2 0xE98 JUMP JUMPDEST POP MUL SWAP1 JUMP JUMPDEST PUSH1 0x0 DUP3 DUP3 LT ISZERO PUSH2 0xE71 JUMPI PUSH2 0xE71 PUSH2 0xE98 JUMP JUMPDEST POP SUB SWAP1 JUMP JUMPDEST PUSH1 0x0 DUP3 PUSH2 0xE93 JUMPI PUSH4 0x4E487B71 PUSH1 0xE0 SHL PUSH1 0x0 MSTORE PUSH1 0x12 PUSH1 0x4 MSTORE PUSH1 0x24 PUSH1 0x0 REVERT JUMPDEST POP MOD SWAP1 JUMP JUMPDEST PUSH4 0x4E487B71 PUSH1 0xE0 SHL PUSH1 0x0 MSTORE PUSH1 0x11 PUSH1 0x4 MSTORE PUSH1 0x24 PUSH1 0x0 REVERT JUMPDEST PUSH4 0x4E487B71 PUSH1 0xE0 SHL PUSH1 0x0 MSTORE PUSH1 0x32 PUSH1 0x4 MSTORE PUSH1 0x24 PUSH1 0x0 REVERT JUMPDEST PUSH4 0x4E487B71 PUSH1 0xE0 SHL PUSH1 0x0 MSTORE PUSH1 0x41 PUSH1 0x4 MSTORE PUSH1 0x24 PUSH1 0x0 REVERT INVALID LOG2 PUSH5 0x6970667358 0x22 SLT KECCAK256 SWAP11 EQ DUP8 NOT DUP8 0x2B POP SGT 0xB8 COINBASE PUSH25 0x25E0113BCDFE178AE6441A9BE878A78571C4C590CF64736F6C PUSH4 0x43000806 STOP CALLER "
        },
        "gasEstimates": {
          "creation": {
            "codeDepositCost": "771200",
            "executionCost": "infinite",
            "totalCost": "infinite"
          },
          "external": {
            "RequestPOBAkey(address,bytes32,string)": "infinite",
            "currentPobaList(uint256)": "2408",
            "fulfillpobaKey(bytes32,uint256)": "100154",
            "getPobaKEY()": "2348",
            "index()": "2284",
            "owner()": "2381",
            "pobaKEY()": "2307",
            "requestFromAllPOBA(string)": "infinite",
            "stringToBytes32(string)": "infinite"
          }
        },
        "methodIdentifiers": {
          "RequestPOBAkey(address,bytes32,string)": "c2d66d99",
          "currentPobaList(uint256)": "0e2a73e8",
          "fulfillpobaKey(bytes32,uint256)": "2112b40a",
          "getPobaKEY()": "22e88d24",
          "index()": "2986c0e5",
          "owner()": "8da5cb5b",
          "pobaKEY()": "19e1c8cf",
          "requestFromAllPOBA(string)": "454af8e8",
          "stringToBytes32(string)": "cfb51928"
        }
      },
      "storageLayout": {
        "storage": [
          {
            "astId": 319,
            "contract": "contracts/POBArequester.sol:POBArequester",
            "label": "s_ens",
            "offset": 0,
            "slot": "0",
            "type": "t_contract(ENSInterface)974"
          },
          {
            "astId": 321,
            "contract": "contracts/POBArequester.sol:POBArequester",
            "label": "s_ensNode",
            "offset": 0,
            "slot": "1",
            "type": "t_bytes32"
          },
          {
            "astId": 324,
            "contract": "contracts/POBArequester.sol:POBArequester",
            "label": "s_link",
            "offset": 0,
            "slot": "2",
            "type": "t_contract(LinkTokenInterface)1069"
          },
          {
            "astId": 327,
            "contract": "contracts/POBArequester.sol:POBArequester",
            "label": "s_oracle",
            "offset": 0,
            "slot": "3",
            "type": "t_contract(OperatorInterface)1149"
          },
          {
            "astId": 330,
            "contract": "contracts/POBArequester.sol:POBArequester",
            "label": "s_requestCount",
            "offset": 0,
            "slot": "4",
            "type": "t_uint256"
          },
          {
            "astId": 334,
            "contract": "contracts/POBArequester.sol:POBArequester",
            "label": "s_pendingRequests",
            "offset": 0,
            "slot": "5",
            "type": "t_mapping(t_bytes32,t_address)"
          },
          {
            "astId": 2186,
            "contract": "contracts/POBArequester.sol:POBArequester",
            "label": "pobaKEY",
            "offset": 0,
            "slot": "6",
            "type": "t_uint256"
          },
          {
            "astId": 2188,
            "contract": "contracts/POBArequester.sol:POBArequester",
            "label": "index",
            "offset": 0,
            "slot": "7",
            "type": "t_uint256"
          },
          {
            "astId": 2192,
            "contract": "contracts/POBArequester.sol:POBArequester",
            "label": "currentPobaList",
            "offset": 0,
            "slot": "8",
            "type": "t_array(t_uint256)3_storage"
          },
          {
            "astId": 2194,
            "contract": "contracts/POBArequester.sol:POBArequester",
            "label": "owner",
            "offset": 0,
            "slot": "11",
            "type": "t_address"
          },
          {
            "astId": 2197,
            "contract": "contracts/POBArequester.sol:POBArequester",
            "label": "ORACLE1",
            "offset": 0,
            "slot": "12",
            "type": "t_address"
          },
          {
            "astId": 2202,
            "contract": "contracts/POBArequester.sol:POBArequester",
            "label": "JOBID1",
            "offset": 0,
            "slot": "13",
            "type": "t_bytes32"
          },
          {
            "astId": 2205,
            "contract": "contracts/POBArequester.sol:POBArequester",
            "label": "ORACLE2",
            "offset": 0,
            "slot": "14",
            "type": "t_address"
          },
          {
            "astId": 2210,
            "contract": "contracts/POBArequester.sol:POBArequester",
            "label": "JOBID2",
            "offset": 0,
            "slot": "15",
            "type": "t_bytes32"
          },
          {
            "astId": 2213,
            "contract": "contracts/POBArequester.sol:POBArequester",
            "label": "ORACLE3",
            "offset": 0,
            "slot": "16",
            "type": "t_address"
          },
          {
            "astId": 2218,
            "contract": "contracts/POBArequester.sol:POBArequester",
            "label": "JOBID3",
            "offset": 0,
            "slot": "17",
            "type": "t_bytes32"
          }
        ],
        "types": {
          "t_address": {
            "encoding": "inplace",
            "label": "address",
            "numberOfBytes": "20"
          },
          "t_array(t_uint256)3_storage": {
            "base": "t_uint256",
            "encoding": "inplace",
            "label": "uint256[3]",
            "numberOfBytes": "96"
          },
          "t_bytes32": {
            "encoding": "inplace",
            "label": "bytes32",
            "numberOfBytes": "32"
          },
          "t_contract(ENSInterface)974": {
            "encoding": "inplace",
            "label": "contract ENSInterface",
            "numberOfBytes": "20"
          },
          "t_contract(LinkTokenInterface)1069": {
            "encoding": "inplace",
            "label": "contract LinkTokenInterface",
            "numberOfBytes": "20"
          },
          "t_contract(OperatorInterface)1149": {
            "encoding": "inplace",
            "label": "contract OperatorInterface",
            "numberOfBytes": "20"
          },
          "t_mapping(t_bytes32,t_address)": {
            "encoding": "mapping",
            "key": "t_bytes32",
            "label": "mapping(bytes32 => address)",
            "numberOfBytes": "32",
            "value": "t_address"
          },
          "t_uint256": {
            "encoding": "inplace",
            "label": "uint256",
            "numberOfBytes": "32"
          }
        }
      },
      "userdoc": {
        "kind": "user",
        "methods": {},
        "version": 1
      }
    }
  }
}