{
  "_format": "hh-sol-artifact-1",
  "contractName": "SharedNFTLogic",
  "sourceName": "contracts/SharedNFTLogic.sol",
  "abi": [
    {
      "inputs": [
        {
          "internalType": "bytes",
          "name": "unencoded",
          "type": "bytes"
        }
      ],
      "name": "base64Encode",
      "outputs": [
        {
          "internalType": "string",
          "name": "",
          "type": "string"
        }
      ],
      "stateMutability": "pure",
      "type": "function"
    },
    {
      "inputs": [
        {
          "internalType": "string",
          "name": "name",
          "type": "string"
        },
        {
          "internalType": "string",
          "name": "description",
          "type": "string"
        },
        {
          "internalType": "string",
          "name": "imageUrl",
          "type": "string"
        },
        {
          "internalType": "string",
          "name": "animationUrl",
          "type": "string"
        },
        {
          "internalType": "uint256",
          "name": "tokenOfEdition",
          "type": "uint256"
        },
        {
          "internalType": "uint256",
          "name": "editionSize",
          "type": "uint256"
        }
      ],
      "name": "createMetadataEdition",
      "outputs": [
        {
          "internalType": "string",
          "name": "",
          "type": "string"
        }
      ],
      "stateMutability": "pure",
      "type": "function"
    },
    {
      "inputs": [
        {
          "internalType": "string",
          "name": "name",
          "type": "string"
        },
        {
          "internalType": "string",
          "name": "description",
          "type": "string"
        },
        {
          "internalType": "string",
          "name": "mediaData",
          "type": "string"
        },
        {
          "internalType": "uint256",
          "name": "tokenOfEdition",
          "type": "uint256"
        },
        {
          "internalType": "uint256",
          "name": "editionSize",
          "type": "uint256"
        }
      ],
      "name": "createMetadataJSON",
      "outputs": [
        {
          "internalType": "bytes",
          "name": "",
          "type": "bytes"
        }
      ],
      "stateMutability": "pure",
      "type": "function"
    },
    {
      "inputs": [
        {
          "internalType": "bytes",
          "name": "json",
          "type": "bytes"
        }
      ],
      "name": "encodeMetadataJSON",
      "outputs": [
        {
          "internalType": "string",
          "name": "",
          "type": "string"
        }
      ],
      "stateMutability": "pure",
      "type": "function"
    },
    {
      "inputs": [
        {
          "internalType": "uint256",
          "name": "value",
          "type": "uint256"
        }
      ],
      "name": "numberToString",
      "outputs": [
        {
          "internalType": "string",
          "name": "",
          "type": "string"
        }
      ],
      "stateMutability": "pure",
      "type": "function"
    },
    {
      "inputs": [
        {
          "internalType": "string",
          "name": "imageUrl",
          "type": "string"
        },
        {
          "internalType": "string",
          "name": "animationUrl",
          "type": "string"
        },
        {
          "internalType": "uint256",
          "name": "tokenOfEdition",
          "type": "uint256"
        }
      ],
      "name": "tokenMediaData",
      "outputs": [
        {
          "internalType": "string",
          "name": "",
          "type": "string"
        }
      ],
      "stateMutability": "pure",
      "type": "function"
    }
  ],
  "bytecode": "0x608060405234801561001057600080fd5b50610ce3806100206000396000f3fe608060405234801561001057600080fd5b50600436106100625760003560e01c8063170dc6601461006757806358464f3014610090578063d01fde8c146100a3578063d5fb1b19146100b6578063df30dba0146100c9578063eb111ab6146100dc575b600080fd5b61007a610075366004610515565b6100ef565b604051610087919061058a565b60405180910390f35b61007a61009e366004610649565b610100565b61007a6100b13660046106e3565b61017c565b61007a6100c43660046106e3565b6101ad565b61007a6100d736600461072c565b6101b8565b61007a6100ea3660046107eb565b6101f0565b60606100fa826102a9565b92915050565b606080821561013457610112836100ef565b6040516020016101229190610874565b60405160208183030381529060405290505b8661013e856100ef565b82888861014a896100ef565b8c604051602001610161979695949392919061089d565b60405160208183030381529060405291505095945050505050565b6060610187826101ad565b60405160200161019791906109c6565b6040516020818303038152906040529050919050565b60606100fa826103af565b606060006101c78686866101f0565b905060006101d88989848888610100565b90506101e38161017c565b9998505050505050505050565b825182516060911580159115159082906102075750805b1561024b5785610216856100ef565b86610220876100ef565b6040516020016102339493929190610a0b565b604051602081830303815290604052925050506102a2565b811561026c578561025b856100ef565b604051602001610233929190610ac6565b801561028d578461027c856100ef565b604051602001610233929190610b2c565b60405180602001604052806000815250925050505b9392505050565b6060816102cd5750506040805180820190915260018152600360fc1b602082015290565b8160005b81156102f757806102e181610bb0565b91506102f09050600a83610be1565b91506102d1565b60008167ffffffffffffffff8111156103125761031261059d565b6040519080825280601f01601f19166020018201604052801561033c576020820181803683370190505b5090505b84156103a757610351600183610bf5565b915061035e600a86610c0c565b610369906030610c20565b60f81b81838151811061037e5761037e610c38565b60200101906001600160f81b031916908160001a9053506103a0600a86610be1565b9450610340565b949350505050565b60608151600014156103cf57505060408051602081019091526000815290565b6000604051806060016040528060408152602001610c6e60409139905060006003845160026103fe9190610c20565b6104089190610be1565b610413906004610c4e565b90506000610422826020610c20565b67ffffffffffffffff81111561043a5761043a61059d565b6040519080825280601f01601f191660200182016040528015610464576020820181803683370190505b509050818152600183018586518101602084015b818310156104d0576003830192508251603f8160121c168501518253600182019150603f81600c1c168501518253600182019150603f8160061c168501518253600182019150603f8116850151825350600101610478565b6003895106600181146104ea57600281146104fb57610507565b613d3d60f01b600119830152610507565b603d60f81b6000198301525b509398975050505050505050565b60006020828403121561052757600080fd5b5035919050565b60005b83811015610549578181015183820152602001610531565b83811115610558576000848401525b50505050565b6000815180845261057681602086016020860161052e565b601f01601f19169290920160200192915050565b6020815260006102a2602083018461055e565b634e487b7160e01b600052604160045260246000fd5b600067ffffffffffffffff808411156105ce576105ce61059d565b604051601f8501601f19908116603f011681019082821181831017156105f6576105f661059d565b8160405280935085815286868601111561060f57600080fd5b858560208301376000602087830101525050509392505050565b600082601f83011261063a57600080fd5b6102a2838335602085016105b3565b600080600080600060a0868803121561066157600080fd5b853567ffffffffffffffff8082111561067957600080fd5b61068589838a01610629565b9650602088013591508082111561069b57600080fd5b6106a789838a01610629565b955060408801359150808211156106bd57600080fd5b506106ca88828901610629565b9598949750949560608101359550608001359392505050565b6000602082840312156106f557600080fd5b813567ffffffffffffffff81111561070c57600080fd5b8201601f8101841361071d57600080fd5b6103a7848235602084016105b3565b60008060008060008060c0878903121561074557600080fd5b863567ffffffffffffffff8082111561075d57600080fd5b6107698a838b01610629565b9750602089013591508082111561077f57600080fd5b61078b8a838b01610629565b965060408901359150808211156107a157600080fd5b6107ad8a838b01610629565b955060608901359150808211156107c357600080fd5b506107d089828a01610629565b9350506080870135915060a087013590509295509295509295565b60008060006060848603121561080057600080fd5b833567ffffffffffffffff8082111561081857600080fd5b61082487838801610629565b9450602086013591508082111561083a57600080fd5b5061084786828701610629565b925050604084013590509250925092565b6000815161086a81856020860161052e565b9290920192915050565b602f60f81b81526000825161089081600185016020870161052e565b9190910160010192915050565b693d913730b6b2911d101160b11b815287516000906108c381600a850160208d0161052e565b600160fd1b600a9184019182015288516108e481600b840160208d0161052e565b88519101906108fa81600b840160208c0161052e565b631116101160e11b600b929091019182018190526e3232b9b1b934b83a34b7b7111d101160891b600f830152875161093981601e850160208c0161052e565b601e9201918201526109b86109a96109a361098c61098661095d602287018c610858565b7f70726f70657274696573223a207b226e756d626572223a200000000000000000815260180190565b89610858565b6a1610113730b6b2911d101160a91b8152600b0190565b86610858565b62227d7d60e81b815260030190565b9a9950505050505050505050565b7f646174613a6170706c69636174696f6e2f6a736f6e3b6261736536342c0000008152600082516109fe81601d85016020870161052e565b91909101601d0192915050565b6834b6b0b3b2911d101160b91b81528451600090610a30816009850160208a0161052e565b8083019050633f69643d60e01b8060098301528651610a5681600d850160208b0161052e565b741116101130b734b6b0ba34b7b72fbab936111d101160591b600d93909101928301528551610a8c816022850160208a0161052e565b60229201918201528351610aa781602684016020880161052e565b631116101160e11b60269290910191820152602a019695505050505050565b6834b6b0b3b2911d101160b91b81528251600090610aeb81600985016020880161052e565b633f69643d60e01b6009918401918201528351610b0f81600d84016020880161052e565b631116101160e11b600d9290910191820152601101949350505050565b7030b734b6b0ba34b7b72fbab936111d101160791b81528251600090610b5981601185016020880161052e565b633f69643d60e01b6011918401918201528351610b7d81601584016020880161052e565b631116101160e11b60159290910191820152601901949350505050565b634e487b7160e01b600052601160045260246000fd5b6000600019821415610bc457610bc4610b9a565b5060010190565b634e487b7160e01b600052601260045260246000fd5b600082610bf057610bf0610bcb565b500490565b600082821015610c0757610c07610b9a565b500390565b600082610c1b57610c1b610bcb565b500690565b60008219821115610c3357610c33610b9a565b500190565b634e487b7160e01b600052603260045260246000fd5b6000816000190483118215151615610c6857610c68610b9a565b50029056fe4142434445464748494a4b4c4d4e4f505152535455565758595a6162636465666768696a6b6c6d6e6f707172737475767778797a303132333435363738392b2fa264697066735822122064da4639fda7d6ef150b366f6bb391dc53eb3dae2b4837f90e7c2e1935676b9464736f6c63430008090033",
  "linkReferences": {},
  "deployedLinkReferences": {}
}