{
  "_format": "hh-sol-artifact-1",
  "contractName": "sFactory",
  "sourceName": "contracts/sFactory.sol",
  "abi": [
    {
      "inputs": [
        {
          "internalType": "address",
          "name": "_implementation",
          "type": "address"
        }
      ],
      "stateMutability": "nonpayable",
      "type": "constructor"
    },
    {
      "anonymous": false,
      "inputs": [
        {
          "indexed": true,
          "internalType": "uint256",
          "name": "editionId",
          "type": "uint256"
        },
        {
          "indexed": true,
          "internalType": "address",
          "name": "creator",
          "type": "address"
        },
        {
          "indexed": false,
          "internalType": "uint256",
          "name": "editionSize",
          "type": "uint256"
        },
        {
          "indexed": false,
          "internalType": "address",
          "name": "editionContractAddress",
          "type": "address"
        }
      ],
      "name": "CreatedEdition",
      "type": "event"
    },
    {
      "inputs": [
        {
          "internalType": "string",
          "name": "_name",
          "type": "string"
        },
        {
          "internalType": "string",
          "name": "_symbol",
          "type": "string"
        },
        {
          "internalType": "string",
          "name": "_description",
          "type": "string"
        },
        {
          "internalType": "string",
          "name": "_animationUrl",
          "type": "string"
        },
        {
          "internalType": "string",
          "name": "_imageUrl",
          "type": "string"
        },
        {
          "internalType": "uint256",
          "name": "_editionSize",
          "type": "uint256"
        },
        {
          "internalType": "uint256",
          "name": "_royaltyBPS",
          "type": "uint256"
        }
      ],
      "name": "createEdition",
      "outputs": [
        {
          "internalType": "uint256",
          "name": "",
          "type": "uint256"
        }
      ],
      "stateMutability": "nonpayable",
      "type": "function"
    },
    {
      "inputs": [
        {
          "internalType": "uint256",
          "name": "editionId",
          "type": "uint256"
        }
      ],
      "name": "getEditionAtId",
      "outputs": [
        {
          "internalType": "contract erc721Static",
          "name": "",
          "type": "address"
        }
      ],
      "stateMutability": "view",
      "type": "function"
    },
    {
      "inputs": [],
      "name": "implementation",
      "outputs": [
        {
          "internalType": "address",
          "name": "",
          "type": "address"
        }
      ],
      "stateMutability": "view",
      "type": "function"
    }
  ],
  "bytecode": "0x608060405234801561001057600080fd5b5060405161067338038061067383398101604081905261002f91610054565b600180546001600160a01b0319166001600160a01b0392909216919091179055610084565b60006020828403121561006657600080fd5b81516001600160a01b038116811461007d57600080fd5b9392505050565b6105e0806100936000396000f3fe608060405234801561001057600080fd5b50600436106100415760003560e01c8063213eb47e146100465780635c60da1b1461006c578063ac52edfd14610097575b600080fd5b6100596100543660046103ab565b6100aa565b6040519081526020015b60405180910390f35b60015461007f906001600160a01b031681565b6040516001600160a01b039091168152602001610063565b61007f6100a5366004610490565b6101c5565b6000806100b660005490565b60015460408051602081018490529293506000926100f6926001600160a01b031691016040516020818303038152906040526100f1906104a9565b610264565b6040516339066ec160e11b81529091506001600160a01b0382169063720cdd82906101339033908e908e908e908e908e908e908e9060040161051d565b600060405180830381600087803b15801561014d57600080fd5b505af1158015610161573d6000803e3d6000fd5b5050604080518881526001600160a01b03851660208201523393508592507f152014b245a12a32e125b8a4227ff155636ca7ca6ba15d04c5d07966e55c5cc7910160405180910390a36101b8600080546001019055565b5098975050505050505050565b600154604080516020810184905260009261025e926001600160a01b0390911691016040516020818303038152906040526101ff906104a9565b30604051733d602d80600a3d3981f3363d3d373d3d3d363d7360601b8152606093841b60148201526f5af43d82803e903d91602b57fd5bf3ff60801b6028820152921b6038830152604c8201526037808220606c830152605591012090565b92915050565b6000604051733d602d80600a3d3981f3363d3d373d3d3d363d7360601b81528360601b60148201526e5af43d82803e903d91602b57fd5bf360881b6028820152826037826000f59150506001600160a01b03811661025e5760405162461bcd60e51b815260206004820152601760248201527f455243313136373a2063726561746532206661696c6564000000000000000000604482015260640160405180910390fd5b634e487b7160e01b600052604160045260246000fd5b600082601f83011261032f57600080fd5b813567ffffffffffffffff8082111561034a5761034a610308565b604051601f8301601f19908116603f0116810190828211818310171561037257610372610308565b8160405283815286602085880101111561038b57600080fd5b836020870160208301376000602085830101528094505050505092915050565b600080600080600080600060e0888a0312156103c657600080fd5b873567ffffffffffffffff808211156103de57600080fd5b6103ea8b838c0161031e565b985060208a013591508082111561040057600080fd5b61040c8b838c0161031e565b975060408a013591508082111561042257600080fd5b61042e8b838c0161031e565b965060608a013591508082111561044457600080fd5b6104508b838c0161031e565b955060808a013591508082111561046657600080fd5b506104738a828b0161031e565b93505060a0880135915060c0880135905092959891949750929550565b6000602082840312156104a257600080fd5b5035919050565b805160208083015191908110156104ca576000198160200360031b1b821691505b50919050565b6000815180845260005b818110156104f6576020818501810151868301820152016104da565b81811115610508576000602083870101525b50601f01601f19169290920160200192915050565b6001600160a01b0389168152610100602082018190526000906105428382018b6104d0565b90508281036040840152610556818a6104d0565b9050828103606084015261056a81896104d0565b9050828103608084015261057e81886104d0565b905082810360a084015261059281876104d0565b60c0840195909552505060e00152969550505050505056fea26469706673582212202126620ce80850134a57f864c36e2dbad313a146410e1570f4789862e1e17f4e64736f6c63430008090033",
  "linkReferences": {},
  "deployedLinkReferences": {}
}