{
  "_format": "hh-sol-artifact-1",
  "contractName": "erc721Static",
  "sourceName": "contracts/erc721Static.sol",
  "abi": [
    {
      "inputs": [
        {
          "internalType": "address",
          "name": "marketplaceAddress",
          "type": "address"
        },
        {
          "internalType": "contract SharedNFTLogic",
          "name": "_sharedNFTLogic",
          "type": "address"
        }
      ],
      "stateMutability": "nonpayable",
      "type": "constructor"
    },
    {
      "anonymous": false,
      "inputs": [
        {
          "indexed": true,
          "internalType": "address",
          "name": "owner",
          "type": "address"
        },
        {
          "indexed": true,
          "internalType": "address",
          "name": "approved",
          "type": "address"
        },
        {
          "indexed": true,
          "internalType": "uint256",
          "name": "tokenId",
          "type": "uint256"
        }
      ],
      "name": "Approval",
      "type": "event"
    },
    {
      "anonymous": false,
      "inputs": [
        {
          "indexed": true,
          "internalType": "address",
          "name": "owner",
          "type": "address"
        },
        {
          "indexed": true,
          "internalType": "address",
          "name": "operator",
          "type": "address"
        },
        {
          "indexed": false,
          "internalType": "bool",
          "name": "approved",
          "type": "bool"
        }
      ],
      "name": "ApprovalForAll",
      "type": "event"
    },
    {
      "anonymous": false,
      "inputs": [
        {
          "indexed": false,
          "internalType": "uint256",
          "name": "price",
          "type": "uint256"
        },
        {
          "indexed": false,
          "internalType": "address",
          "name": "owner",
          "type": "address"
        }
      ],
      "name": "EditionSold",
      "type": "event"
    },
    {
      "anonymous": false,
      "inputs": [
        {
          "indexed": true,
          "internalType": "address",
          "name": "previousOwner",
          "type": "address"
        },
        {
          "indexed": true,
          "internalType": "address",
          "name": "newOwner",
          "type": "address"
        }
      ],
      "name": "OwnershipTransferred",
      "type": "event"
    },
    {
      "anonymous": false,
      "inputs": [
        {
          "indexed": false,
          "internalType": "uint256",
          "name": "amount",
          "type": "uint256"
        }
      ],
      "name": "PriceChanged",
      "type": "event"
    },
    {
      "anonymous": false,
      "inputs": [
        {
          "indexed": true,
          "internalType": "address",
          "name": "from",
          "type": "address"
        },
        {
          "indexed": true,
          "internalType": "address",
          "name": "to",
          "type": "address"
        },
        {
          "indexed": true,
          "internalType": "uint256",
          "name": "tokenId",
          "type": "uint256"
        }
      ],
      "name": "Transfer",
      "type": "event"
    },
    {
      "inputs": [
        {
          "internalType": "address",
          "name": "to",
          "type": "address"
        },
        {
          "internalType": "uint256",
          "name": "tokenId",
          "type": "uint256"
        }
      ],
      "name": "approve",
      "outputs": [],
      "stateMutability": "nonpayable",
      "type": "function"
    },
    {
      "inputs": [
        {
          "internalType": "address",
          "name": "owner",
          "type": "address"
        }
      ],
      "name": "balanceOf",
      "outputs": [
        {
          "internalType": "uint256",
          "name": "",
          "type": "uint256"
        }
      ],
      "stateMutability": "view",
      "type": "function"
    },
    {
      "inputs": [
        {
          "internalType": "uint256",
          "name": "tokenId",
          "type": "uint256"
        }
      ],
      "name": "burn",
      "outputs": [],
      "stateMutability": "nonpayable",
      "type": "function"
    },
    {
      "inputs": [],
      "name": "description",
      "outputs": [
        {
          "internalType": "string",
          "name": "",
          "type": "string"
        }
      ],
      "stateMutability": "view",
      "type": "function"
    },
    {
      "inputs": [],
      "name": "editionSize",
      "outputs": [
        {
          "internalType": "uint256",
          "name": "",
          "type": "uint256"
        }
      ],
      "stateMutability": "view",
      "type": "function"
    },
    {
      "inputs": [
        {
          "internalType": "uint256",
          "name": "tokenId",
          "type": "uint256"
        }
      ],
      "name": "getApproved",
      "outputs": [
        {
          "internalType": "address",
          "name": "",
          "type": "address"
        }
      ],
      "stateMutability": "view",
      "type": "function"
    },
    {
      "inputs": [],
      "name": "getURIs",
      "outputs": [
        {
          "internalType": "string",
          "name": "",
          "type": "string"
        },
        {
          "internalType": "string",
          "name": "",
          "type": "string"
        }
      ],
      "stateMutability": "view",
      "type": "function"
    },
    {
      "inputs": [
        {
          "internalType": "address",
          "name": "_owner",
          "type": "address"
        },
        {
          "internalType": "string",
          "name": "_name",
          "type": "string"
        },
        {
          "internalType": "string",
          "name": "_symbol",
          "type": "string"
        },
        {
          "internalType": "string",
          "name": "_description",
          "type": "string"
        },
        {
          "internalType": "string",
          "name": "_animationUrl",
          "type": "string"
        },
        {
          "internalType": "string",
          "name": "_imageUrl",
          "type": "string"
        },
        {
          "internalType": "uint256",
          "name": "_editionSize",
          "type": "uint256"
        },
        {
          "internalType": "uint256",
          "name": "_royaltyBPS",
          "type": "uint256"
        }
      ],
      "name": "initialize",
      "outputs": [],
      "stateMutability": "nonpayable",
      "type": "function"
    },
    {
      "inputs": [
        {
          "internalType": "address",
          "name": "owner",
          "type": "address"
        },
        {
          "internalType": "address",
          "name": "operator",
          "type": "address"
        }
      ],
      "name": "isApprovedForAll",
      "outputs": [
        {
          "internalType": "bool",
          "name": "",
          "type": "bool"
        }
      ],
      "stateMutability": "view",
      "type": "function"
    },
    {
      "inputs": [
        {
          "internalType": "address",
          "name": "to",
          "type": "address"
        }
      ],
      "name": "mintEdition",
      "outputs": [
        {
          "internalType": "uint256",
          "name": "",
          "type": "uint256"
        }
      ],
      "stateMutability": "nonpayable",
      "type": "function"
    },
    {
      "inputs": [
        {
          "internalType": "address[]",
          "name": "recipients",
          "type": "address[]"
        }
      ],
      "name": "mintEditions",
      "outputs": [
        {
          "internalType": "uint256",
          "name": "",
          "type": "uint256"
        }
      ],
      "stateMutability": "nonpayable",
      "type": "function"
    },
    {
      "inputs": [],
      "name": "name",
      "outputs": [
        {
          "internalType": "string",
          "name": "",
          "type": "string"
        }
      ],
      "stateMutability": "view",
      "type": "function"
    },
    {
      "inputs": [],
      "name": "numberCanMint",
      "outputs": [
        {
          "internalType": "uint256",
          "name": "",
          "type": "uint256"
        }
      ],
      "stateMutability": "view",
      "type": "function"
    },
    {
      "inputs": [],
      "name": "owner",
      "outputs": [
        {
          "internalType": "address",
          "name": "",
          "type": "address"
        }
      ],
      "stateMutability": "view",
      "type": "function"
    },
    {
      "inputs": [
        {
          "internalType": "uint256",
          "name": "tokenId",
          "type": "uint256"
        }
      ],
      "name": "ownerOf",
      "outputs": [
        {
          "internalType": "address",
          "name": "",
          "type": "address"
        }
      ],
      "stateMutability": "view",
      "type": "function"
    },
    {
      "inputs": [],
      "name": "purchase",
      "outputs": [
        {
          "internalType": "uint256",
          "name": "",
          "type": "uint256"
        }
      ],
      "stateMutability": "payable",
      "type": "function"
    },
    {
      "inputs": [],
      "name": "renounceOwnership",
      "outputs": [],
      "stateMutability": "nonpayable",
      "type": "function"
    },
    {
      "inputs": [
        {
          "internalType": "uint256",
          "name": "",
          "type": "uint256"
        },
        {
          "internalType": "uint256",
          "name": "_salePrice",
          "type": "uint256"
        }
      ],
      "name": "royaltyInfo",
      "outputs": [
        {
          "internalType": "address",
          "name": "receiver",
          "type": "address"
        },
        {
          "internalType": "uint256",
          "name": "royaltyAmount",
          "type": "uint256"
        }
      ],
      "stateMutability": "view",
      "type": "function"
    },
    {
      "inputs": [
        {
          "internalType": "address",
          "name": "from",
          "type": "address"
        },
        {
          "internalType": "address",
          "name": "to",
          "type": "address"
        },
        {
          "internalType": "uint256",
          "name": "tokenId",
          "type": "uint256"
        }
      ],
      "name": "safeTransferFrom",
      "outputs": [],
      "stateMutability": "nonpayable",
      "type": "function"
    },
    {
      "inputs": [
        {
          "internalType": "address",
          "name": "from",
          "type": "address"
        },
        {
          "internalType": "address",
          "name": "to",
          "type": "address"
        },
        {
          "internalType": "uint256",
          "name": "tokenId",
          "type": "uint256"
        },
        {
          "internalType": "bytes",
          "name": "_data",
          "type": "bytes"
        }
      ],
      "name": "safeTransferFrom",
      "outputs": [],
      "stateMutability": "nonpayable",
      "type": "function"
    },
    {
      "inputs": [],
      "name": "salePrice",
      "outputs": [
        {
          "internalType": "uint256",
          "name": "",
          "type": "uint256"
        }
      ],
      "stateMutability": "view",
      "type": "function"
    },
    {
      "inputs": [
        {
          "internalType": "address",
          "name": "operator",
          "type": "address"
        },
        {
          "internalType": "bool",
          "name": "approved",
          "type": "bool"
        }
      ],
      "name": "setApprovalForAll",
      "outputs": [],
      "stateMutability": "nonpayable",
      "type": "function"
    },
    {
      "inputs": [
        {
          "internalType": "address",
          "name": "minter",
          "type": "address"
        },
        {
          "internalType": "bool",
          "name": "allowed",
          "type": "bool"
        }
      ],
      "name": "setApprovedMinter",
      "outputs": [],
      "stateMutability": "nonpayable",
      "type": "function"
    },
    {
      "inputs": [
        {
          "internalType": "uint256",
          "name": "_salePrice",
          "type": "uint256"
        }
      ],
      "name": "setSalePrice",
      "outputs": [],
      "stateMutability": "nonpayable",
      "type": "function"
    },
    {
      "inputs": [
        {
          "internalType": "bytes4",
          "name": "interfaceId",
          "type": "bytes4"
        }
      ],
      "name": "supportsInterface",
      "outputs": [
        {
          "internalType": "bool",
          "name": "",
          "type": "bool"
        }
      ],
      "stateMutability": "view",
      "type": "function"
    },
    {
      "inputs": [],
      "name": "symbol",
      "outputs": [
        {
          "internalType": "string",
          "name": "",
          "type": "string"
        }
      ],
      "stateMutability": "view",
      "type": "function"
    },
    {
      "inputs": [
        {
          "internalType": "uint256",
          "name": "tokenId",
          "type": "uint256"
        }
      ],
      "name": "tokenURI",
      "outputs": [
        {
          "internalType": "string",
          "name": "",
          "type": "string"
        }
      ],
      "stateMutability": "view",
      "type": "function"
    },
    {
      "inputs": [],
      "name": "totalSupply",
      "outputs": [
        {
          "internalType": "uint256",
          "name": "",
          "type": "uint256"
        }
      ],
      "stateMutability": "view",
      "type": "function"
    },
    {
      "inputs": [
        {
          "internalType": "address",
          "name": "from",
          "type": "address"
        },
        {
          "internalType": "address",
          "name": "to",
          "type": "address"
        },
        {
          "internalType": "uint256",
          "name": "tokenId",
          "type": "uint256"
        }
      ],
      "name": "transferFrom",
      "outputs": [],
      "stateMutability": "nonpayable",
      "type": "function"
    },
    {
      "inputs": [
        {
          "internalType": "address",
          "name": "newOwner",
          "type": "address"
        }
      ],
      "name": "transferOwnership",
      "outputs": [],
      "stateMutability": "nonpayable",
      "type": "function"
    },
    {
      "inputs": [
        {
          "internalType": "string",
          "name": "_imageUrl",
          "type": "string"
        },
        {
          "internalType": "string",
          "name": "_animationUrl",
          "type": "string"
        }
      ],
      "name": "updateEditionURLs",
      "outputs": [],
      "stateMutability": "nonpayable",
      "type": "function"
    },
    {
      "inputs": [],
      "name": "withdraw",
      "outputs": [],
      "stateMutability": "nonpayable",
      "type": "function"
    }
  ],
  "bytecode": "0x60a06040523480156200001157600080fd5b50604051620028fb380380620028fb833981016040819052620000349162000079565b6001600160a01b0390811660805260c980546001600160a01b03191692909116919091179055620000b8565b6001600160a01b03811681146200007657600080fd5b50565b600080604083850312156200008d57600080fd5b82516200009a8162000060565b6020840151909250620000ad8162000060565b809150509250929050565b608051612827620000d460003960006111b601526128276000f3fe6080604052600436106101e35760003560e01c806364edfbf011610102578063a66ff0af11610095578063e985e9c511610064578063e985e9c514610564578063f2fde38b146105ad578063f4ed0f46146105cd578063f51f96dd146105e357600080fd5b8063a66ff0af146104e4578063b88d4fde14610504578063c87b56dd14610524578063e444bfcc1461054457600080fd5b80637284e416116100d15780637284e416146104855780638da5cb5b1461049a57806395d89b41146104af578063a22cb465146104c457600080fd5b806364edfbf01461042857806370a0823114610430578063715018a614610450578063720cdd821461046557600080fd5b806323b872dd1161017a5780633ccfd60b116101495780633ccfd60b146103b357806342842e0e146103c857806342966c68146103e85780636352211e1461040857600080fd5b806323b872dd1461031157806328c5440f1461033157806329ec16dd146103545780632a55205a1461037457600080fd5b80630b65b6e7116101b65780630b65b6e7146102995780630f6a9349146102bc57806318160ddd146102dc5780631919fed7146102f157600080fd5b806301ffc9a7146101e857806306fdde031461021d578063081812fc1461023f578063095ea7b314610277575b600080fd5b3480156101f457600080fd5b50610208610203366004611edf565b6105f9565b60405190151581526020015b60405180910390f35b34801561022957600080fd5b50610232610624565b6040516102149190611f54565b34801561024b57600080fd5b5061025f61025a366004611f67565b6106b6565b6040516001600160a01b039091168152602001610214565b34801561028357600080fd5b50610297610292366004611f9c565b610750565b005b3480156102a557600080fd5b506102ae610866565b604051908152602001610214565b3480156102c857600080fd5b506102ae6102d736600461200d565b61089a565b3480156102e857600080fd5b506102ae6108f9565b3480156102fd57600080fd5b5061029761030c366004611f67565b610906565b34801561031d57600080fd5b5061029761032c3660046120ba565b610970565b34801561033d57600080fd5b506103466109a2565b6040516102149291906120f6565b34801561036057600080fd5b5061029761036f366004612124565b610ac9565b34801561038057600080fd5b5061039461038f366004612160565b610b23565b604080516001600160a01b039093168352602083019190915201610214565b3480156103bf57600080fd5b50610297610b80565b3480156103d457600080fd5b506102976103e33660046120ba565b610bc2565b3480156103f457600080fd5b50610297610403366004611f67565b610bdd565b34801561041457600080fd5b5061025f610423366004611f67565b610c2d565b6102ae610ca4565b34801561043c57600080fd5b506102ae61044b366004612182565b610dbe565b34801561045c57600080fd5b50610297610e45565b34801561047157600080fd5b50610297610480366004612223565b610e7e565b34801561049157600080fd5b50610232610fae565b3480156104a657600080fd5b5061025f61103c565b3480156104bb57600080fd5b50610232611050565b3480156104d057600080fd5b506102976104df366004612124565b61105f565b3480156104f057600080fd5b506102ae6104ff366004612182565b61106e565b34801561051057600080fd5b5061029761051f366004612319565b61112a565b34801561053057600080fd5b5061023261053f366004611f67565b611162565b34801561055057600080fd5b5061029761055f366004612395565b61126a565b34801561057057600080fd5b5061020861057f3660046123f9565b6001600160a01b039182166000908152606a6020908152604080832093909416825291909152205460ff1690565b3480156105b957600080fd5b506102976105c8366004612182565b6112c0565b3480156105d957600080fd5b506102ae60cd5481565b3480156105ef57600080fd5b506102ae60d15481565b600063152a902d60e11b6001600160e01b03198316148061061e575061061e8261135d565b92915050565b6060606580546106339061242c565b80601f016020809104026020016040519081016040528092919081815260200182805461065f9061242c565b80156106ac5780601f10610681576101008083540402835291602001916106ac565b820191906000526020600020905b81548152906001019060200180831161068f57829003601f168201915b5050505050905090565b6000818152606760205260408120546001600160a01b03166107345760405162461bcd60e51b815260206004820152602c60248201527f4552433732313a20617070726f76656420717565727920666f72206e6f6e657860448201526b34b9ba32b73a103a37b5b2b760a11b60648201526084015b60405180910390fd5b506000908152606960205260409020546001600160a01b031690565b600061075b82610c2d565b9050806001600160a01b0316836001600160a01b031614156107c95760405162461bcd60e51b815260206004820152602160248201527f4552433732313a20617070726f76616c20746f2063757272656e74206f776e656044820152603960f91b606482015260840161072b565b336001600160a01b03821614806107e557506107e5813361057f565b6108575760405162461bcd60e51b815260206004820152603860248201527f4552433732313a20617070726f76652063616c6c6572206973206e6f74206f7760448201527f6e6572206e6f7220617070726f76656420666f7220616c6c0000000000000000606482015260840161072b565b61086183836113ad565b505050565b600060cd546000141561087a575060001990565b60ce5460cd5461088b90600161247d565b6108959190612495565b905090565b60006108a461141b565b6108f05760405162461bcd60e51b815260206004820152601d60248201527f4e6565647320746f20626520616e20616c6c6f776564206d696e746572000000604482015260640161072b565b61061e8261148b565b6000600161088b60ce5490565b3361090f61103c565b6001600160a01b0316146109355760405162461bcd60e51b815260040161072b906124ac565b60d18190556040518181527fa6dc15bdb68da224c66db4b3838d9a2b205138e8cff6774e57d0af91e196d6229060200160405180910390a150565b61097b335b8261156c565b6109975760405162461bcd60e51b815260040161072b906124e1565b61086183838361165f565b60608060cc60cb8180546109b59061242c565b80601f01602080910402602001604051908101604052809291908181526020018280546109e19061242c565b8015610a2e5780601f10610a0357610100808354040283529160200191610a2e565b820191906000526020600020905b815481529060010190602001808311610a1157829003601f168201915b50505050509150808054610a419061242c565b80601f0160208091040260200160405190810160405280929190818152602001828054610a6d9061242c565b8015610aba5780601f10610a8f57610100808354040283529160200191610aba565b820191906000526020600020905b815481529060010190602001808311610a9d57829003601f168201915b50505050509050915091509091565b33610ad261103c565b6001600160a01b031614610af85760405162461bcd60e51b815260040161072b906124ac565b6001600160a01b0391909116600090815260d060205260409020805460ff1916911515919091179055565b60008080610b2f61103c565b6001600160a01b03161415610b5157610b4661103c565b600091509150610b79565b610b5961103c565b61271060cf5485610b6a9190612532565b610b749190612551565b915091505b9250929050565b33610b8961103c565b6001600160a01b031614610baf5760405162461bcd60e51b815260040161072b906124ac565b610bc0610bba61103c565b476117fb565b565b6108618383836040518060200160405280600081525061112a565b610be633610975565b610c215760405162461bcd60e51b815260206004820152600c60248201526b139bdd08185c1c1c9bdd995960a21b604482015260640161072b565b610c2a81611914565b50565b6000818152606760205260408120546001600160a01b03168061061e5760405162461bcd60e51b815260206004820152602960248201527f4552433732313a206f776e657220717565727920666f72206e6f6e657869737460448201526832b73a103a37b5b2b760b91b606482015260840161072b565b60008060d15411610ce65760405162461bcd60e51b815260206004820152600c60248201526b4e6f7420666f722073616c6560a01b604482015260640161072b565b60d1543414610d255760405162461bcd60e51b815260206004820152600b60248201526a57726f6e6720707269636560a81b604482015260640161072b565b604080516001808252818301909252600091602080830190803683370190505090503381600081518110610d5b57610d5b612573565b6001600160a01b0390921660209283029190910182015260d1546040805191825233928201929092527f60a6c75698fadb72223808131f9f9bb9db3afa32122db6d94fb8fc985a504baa910160405180910390a1610db88161148b565b91505090565b60006001600160a01b038216610e295760405162461bcd60e51b815260206004820152602a60248201527f4552433732313a2062616c616e636520717565727920666f7220746865207a65604482015269726f206164647265737360b01b606482015260840161072b565b506001600160a01b031660009081526068602052604090205490565b33610e4e61103c565b6001600160a01b031614610e745760405162461bcd60e51b815260040161072b906124ac565b610bc060006119af565b600054610100900460ff16610e995760005460ff1615610e9d565b303b155b610f005760405162461bcd60e51b815260206004820152602e60248201527f496e697469616c697a61626c653a20636f6e747261637420697320616c72656160448201526d191e481a5b9a5d1a585b1a5e995960921b606482015260840161072b565b600054610100900460ff16158015610f22576000805461ffff19166101011790555b610f2c8888611a01565b610f34611a32565b610f3d896112c0565b8551610f509060ca906020890190611e30565b508451610f649060cb906020880190611e30565b508351610f789060cc906020870190611e30565b5060cd83905560cf829055610f9160ce80546001019055565b8015610fa3576000805461ff00191690555b505050505050505050565b60ca8054610fbb9061242c565b80601f0160208091040260200160405190810160405280929190818152602001828054610fe79061242c565b80156110345780601f1061100957610100808354040283529160200191611034565b820191906000526020600020905b81548152906001019060200180831161101757829003601f168201915b505050505081565b60006108956097546001600160a01b031690565b6060606680546106339061242c565b61106a338383611a61565b5050565b600061107861141b565b6110c45760405162461bcd60e51b815260206004820152601d60248201527f4e6565647320746f20626520616e20616c6c6f776564206d696e746572000000604482015260640161072b565b6040805160018082528183019092526000916020808301908036833701905050905082816000815181106110fa576110fa612573565b60200260200101906001600160a01b031690816001600160a01b0316815250506111238161148b565b9392505050565b611134338361156c565b6111505760405162461bcd60e51b815260040161072b906124e1565b61115c84848484611b30565b50505050565b6000818152606760205260409020546060906001600160a01b03166111b45760405162461bcd60e51b81526020600482015260086024820152672737903a37b5b2b760c11b604482015260640161072b565b7f00000000000000000000000000000000000000000000000000000000000000006001600160a01b031663df30dba06111eb610624565b60ca60cc60cb8760cd546040518763ffffffff1660e01b815260040161121696959493929190612629565b60006040518083038186803b15801561122e57600080fd5b505afa158015611242573d6000803e3d6000fd5b505050506040513d6000823e601f3d908101601f1916820160405261061e919081019061268c565b3361127361103c565b6001600160a01b0316146112995760405162461bcd60e51b815260040161072b906124ac565b81516112ac9060cc906020850190611e30565b5080516108619060cb906020840190611e30565b336112c961103c565b6001600160a01b0316146112ef5760405162461bcd60e51b815260040161072b906124ac565b6001600160a01b0381166113545760405162461bcd60e51b815260206004820152602660248201527f4f776e61626c653a206e6577206f776e657220697320746865207a65726f206160448201526564647265737360d01b606482015260840161072b565b610c2a816119af565b60006001600160e01b031982166380ac58cd60e01b148061138e57506001600160e01b03198216635b5e139f60e01b145b8061061e57506301ffc9a760e01b6001600160e01b031983161461061e565b600081815260696020526040902080546001600160a01b0319166001600160a01b03841690811790915581906113e282610c2d565b6001600160a01b03167f8c5be1e5ebec7d5bd14f71427d1e84f3dd0314c0f7b2291e5b200ac8c7c3b92560405160405180910390a45050565b60003361142661103c565b6001600160a01b0316141561143b5750600190565b6000805260d06020527f790dca8aa28f25f1915553dd78bb1fae41686aabbb62ea6516ab2cafb7d258995460ff16156114745750600190565b5033600090815260d0602052604090205460ff1690565b60008061149760ce5490565b9050600060018451836114aa919061247d565b6114b49190612495565b905060cd54600014806114c9575060cd548111155b6115005760405162461bcd60e51b815260206004820152600860248201526714dbdb19081bdd5d60c21b604482015260640161072b565b8061150a60ce5490565b116115605761154d848361151d60ce5490565b6115279190612495565b8151811061153757611537612573565b602002602001015161154860ce5490565b611b63565b61155b60ce80546001019055565b611500565b60ce545b949350505050565b6000818152606760205260408120546001600160a01b03166115e55760405162461bcd60e51b815260206004820152602c60248201527f4552433732313a206f70657261746f7220717565727920666f72206e6f6e657860448201526b34b9ba32b73a103a37b5b2b760a11b606482015260840161072b565b60006115f083610c2d565b9050806001600160a01b0316846001600160a01b0316148061162b5750836001600160a01b0316611620846106b6565b6001600160a01b0316145b8061156457506001600160a01b038082166000908152606a602090815260408083209388168352929052205460ff16611564565b826001600160a01b031661167282610c2d565b6001600160a01b0316146116d65760405162461bcd60e51b815260206004820152602560248201527f4552433732313a207472616e736665722066726f6d20696e636f72726563742060448201526437bbb732b960d91b606482015260840161072b565b6001600160a01b0382166117385760405162461bcd60e51b8152602060048201526024808201527f4552433732313a207472616e7366657220746f20746865207a65726f206164646044820152637265737360e01b606482015260840161072b565b6117436000826113ad565b6001600160a01b038316600090815260686020526040812080546001929061176c908490612495565b90915550506001600160a01b038216600090815260686020526040812080546001929061179a90849061247d565b909155505060008181526067602052604080822080546001600160a01b0319166001600160a01b0386811691821790925591518493918716917fddf252ad1be2c89b69c2b068fc378daa952ba7f163c4a11628f55a4df523b3ef91a4505050565b8047101561184b5760405162461bcd60e51b815260206004820152601d60248201527f416464726573733a20696e73756666696369656e742062616c616e6365000000604482015260640161072b565b6000826001600160a01b03168260405160006040518083038185875af1925050503d8060008114611898576040519150601f19603f3d011682016040523d82523d6000602084013e61189d565b606091505b50509050806108615760405162461bcd60e51b815260206004820152603a60248201527f416464726573733a20756e61626c6520746f2073656e642076616c75652c207260448201527f6563697069656e74206d61792068617665207265766572746564000000000000606482015260840161072b565b600061191f82610c2d565b905061192c6000836113ad565b6001600160a01b0381166000908152606860205260408120805460019290611955908490612495565b909155505060008281526067602052604080822080546001600160a01b0319169055518391906001600160a01b038416907fddf252ad1be2c89b69c2b068fc378daa952ba7f163c4a11628f55a4df523b3ef908390a45050565b609780546001600160a01b038381166001600160a01b0319831681179093556040519116919082907f8be0079c531659141344cd1fd0a4f28419497f9722a3daafe3b4186f6b6457e090600090a35050565b600054610100900460ff16611a285760405162461bcd60e51b815260040161072b906126fa565b61106a8282611ca5565b600054610100900460ff16611a595760405162461bcd60e51b815260040161072b906126fa565b610bc0611cf3565b816001600160a01b0316836001600160a01b03161415611ac35760405162461bcd60e51b815260206004820152601960248201527f4552433732313a20617070726f766520746f2063616c6c657200000000000000604482015260640161072b565b6001600160a01b038381166000818152606a6020908152604080832094871680845294825291829020805460ff191686151590811790915591519182527f17307eab39ab6107e8899845ad3d59bd9653f200f220920489ca2b5937696c31910160405180910390a3505050565b611b3b84848461165f565b611b4784848484611d23565b61115c5760405162461bcd60e51b815260040161072b90612745565b6001600160a01b038216611bb95760405162461bcd60e51b815260206004820181905260248201527f4552433732313a206d696e7420746f20746865207a65726f2061646472657373604482015260640161072b565b6000818152606760205260409020546001600160a01b031615611c1e5760405162461bcd60e51b815260206004820152601c60248201527f4552433732313a20746f6b656e20616c7265616479206d696e74656400000000604482015260640161072b565b6001600160a01b0382166000908152606860205260408120805460019290611c4790849061247d565b909155505060008181526067602052604080822080546001600160a01b0319166001600160a01b03861690811790915590518392907fddf252ad1be2c89b69c2b068fc378daa952ba7f163c4a11628f55a4df523b3ef908290a45050565b600054610100900460ff16611ccc5760405162461bcd60e51b815260040161072b906126fa565b8151611cdf906065906020850190611e30565b508051610861906066906020840190611e30565b600054610100900460ff16611d1a5760405162461bcd60e51b815260040161072b906126fa565b610bc0336119af565b60006001600160a01b0384163b15611e2557604051630a85bd0160e11b81526001600160a01b0385169063150b7a0290611d67903390899088908890600401612797565b602060405180830381600087803b158015611d8157600080fd5b505af1925050508015611db1575060408051601f3d908101601f19168201909252611dae918101906127d4565b60015b611e0b573d808015611ddf576040519150601f19603f3d011682016040523d82523d6000602084013e611de4565b606091505b508051611e035760405162461bcd60e51b815260040161072b90612745565b805181602001fd5b6001600160e01b031916630a85bd0160e11b149050611564565b506001949350505050565b828054611e3c9061242c565b90600052602060002090601f016020900481019282611e5e5760008555611ea4565b82601f10611e7757805160ff1916838001178555611ea4565b82800160010185558215611ea4579182015b82811115611ea4578251825591602001919060010190611e89565b50611eb0929150611eb4565b5090565b5b80821115611eb05760008155600101611eb5565b6001600160e01b031981168114610c2a57600080fd5b600060208284031215611ef157600080fd5b813561112381611ec9565b60005b83811015611f17578181015183820152602001611eff565b8381111561115c5750506000910152565b60008151808452611f40816020860160208601611efc565b601f01601f19169290920160200192915050565b6020815260006111236020830184611f28565b600060208284031215611f7957600080fd5b5035919050565b80356001600160a01b0381168114611f9757600080fd5b919050565b60008060408385031215611faf57600080fd5b611fb883611f80565b946020939093013593505050565b634e487b7160e01b600052604160045260246000fd5b604051601f8201601f1916810167ffffffffffffffff8111828210171561200557612005611fc6565b604052919050565b6000602080838503121561202057600080fd5b823567ffffffffffffffff8082111561203857600080fd5b818501915085601f83011261204c57600080fd5b81358181111561205e5761205e611fc6565b8060051b915061206f848301611fdc565b818152918301840191848101908884111561208957600080fd5b938501935b838510156120ae5761209f85611f80565b8252938501939085019061208e565b98975050505050505050565b6000806000606084860312156120cf57600080fd5b6120d884611f80565b92506120e660208501611f80565b9150604084013590509250925092565b6040815260006121096040830185611f28565b828103602084015261211b8185611f28565b95945050505050565b6000806040838503121561213757600080fd5b61214083611f80565b91506020830135801515811461215557600080fd5b809150509250929050565b6000806040838503121561217357600080fd5b50508035926020909101359150565b60006020828403121561219457600080fd5b61112382611f80565b600067ffffffffffffffff8211156121b7576121b7611fc6565b50601f01601f191660200190565b60006121d86121d38461219d565b611fdc565b90508281528383830111156121ec57600080fd5b828260208301376000602084830101529392505050565b600082601f83011261221457600080fd5b611123838335602085016121c5565b600080600080600080600080610100898b03121561224057600080fd5b61224989611f80565b9750602089013567ffffffffffffffff8082111561226657600080fd5b6122728c838d01612203565b985060408b013591508082111561228857600080fd5b6122948c838d01612203565b975060608b01359150808211156122aa57600080fd5b6122b68c838d01612203565b965060808b01359150808211156122cc57600080fd5b6122d88c838d01612203565b955060a08b01359150808211156122ee57600080fd5b506122fb8b828c01612203565b93505060c0890135915060e089013590509295985092959890939650565b6000806000806080858703121561232f57600080fd5b61233885611f80565b935061234660208601611f80565b925060408501359150606085013567ffffffffffffffff81111561236957600080fd5b8501601f8101871361237a57600080fd5b612389878235602084016121c5565b91505092959194509250565b600080604083850312156123a857600080fd5b823567ffffffffffffffff808211156123c057600080fd5b6123cc86838701612203565b935060208501359150808211156123e257600080fd5b506123ef85828601612203565b9150509250929050565b6000806040838503121561240c57600080fd5b61241583611f80565b915061242360208401611f80565b90509250929050565b600181811c9082168061244057607f821691505b6020821081141561246157634e487b7160e01b600052602260045260246000fd5b50919050565b634e487b7160e01b600052601160045260246000fd5b6000821982111561249057612490612467565b500190565b6000828210156124a7576124a7612467565b500390565b6020808252818101527f4f776e61626c653a2063616c6c6572206973206e6f7420746865206f776e6572604082015260600190565b60208082526031908201527f4552433732313a207472616e736665722063616c6c6572206973206e6f74206f6040820152701ddb995c881b9bdc88185c1c1c9bdd9959607a1b606082015260800190565b600081600019048311821515161561254c5761254c612467565b500290565b60008261256e57634e487b7160e01b600052601260045260246000fd5b500490565b634e487b7160e01b600052603260045260246000fd5b8054600090600181811c90808316806125a357607f831692505b60208084108214156125c557634e487b7160e01b600052602260045260246000fd5b838852602088018280156125e057600181146125f15761261c565b60ff1987168252828201975061261c565b60008981526020902060005b87811015612616578154848201529086019084016125fd565b83019850505b5050505050505092915050565b60c08152600061263c60c0830189611f28565b828103602084015261264e8189612589565b905082810360408401526126628188612589565b905082810360608401526126768187612589565b6080840195909552505060a00152949350505050565b60006020828403121561269e57600080fd5b815167ffffffffffffffff8111156126b557600080fd5b8201601f810184136126c657600080fd5b80516126d46121d38261219d565b8181528560208385010111156126e957600080fd5b61211b826020830160208601611efc565b6020808252602b908201527f496e697469616c697a61626c653a20636f6e7472616374206973206e6f74206960408201526a6e697469616c697a696e6760a81b606082015260800190565b60208082526032908201527f4552433732313a207472616e7366657220746f206e6f6e20455243373231526560408201527131b2b4bb32b91034b6b83632b6b2b73a32b960711b606082015260800190565b6001600160a01b03858116825284166020820152604081018390526080606082018190526000906127ca90830184611f28565b9695505050505050565b6000602082840312156127e657600080fd5b815161112381611ec956fea264697066735822122027a8a181322b979feed137dbcff3c6aad5bf87ecdf7031ec410679263bb3694964736f6c63430008090033",
  "linkReferences": {},
  "deployedLinkReferences": {}
}