{
  "_format": "hh-sol-artifact-1",
  "contractName": "HelloWorld",
  "sourceName": "contracts/HelloWorld.sol",
  "abi": [
    {
      "inputs": [],
      "name": "message",
      "outputs": [
        {
          "internalType": "string",
          "name": "",
          "type": "string"
        }
      ],
      "stateMutability": "view",
      "type": "function"
    },
    {
      "inputs": [
        {
          "internalType": "string",
          "name": "newMessage",
          "type": "string"
        }
      ],
      "name": "update",
      "outputs": [],
      "stateMutability": "nonpayable",
      "type": "function"
    }
  ],
  "bytecode": "0x60c0604052600d60808190526c6669727374206d65737361676560981b60a090815261002e9160009190610041565b5034801561003b57600080fd5b50610115565b82805461004d906100da565b90600052602060002090601f01602090048101928261006f57600085556100b5565b82601f1061008857805160ff19168380011785556100b5565b828001600101855582156100b5579182015b828111156100b557825182559160200191906001019061009a565b506100c19291506100c5565b5090565b5b808211156100c157600081556001016100c6565b600181811c908216806100ee57607f821691505b6020821081141561010f57634e487b7160e01b600052602260045260246000fd5b50919050565b610339806101246000396000f3fe608060405234801561001057600080fd5b50600436106100365760003560e01c80633d7403a31461003b578063e21f37ce14610050575b600080fd5b61004e6100493660046101ac565b61006e565b005b610058610085565b604051610065919061025d565b60405180910390f35b8051610081906000906020840190610113565b5050565b60008054610092906102b2565b80601f01602080910402602001604051908101604052809291908181526020018280546100be906102b2565b801561010b5780601f106100e05761010080835404028352916020019161010b565b820191906000526020600020905b8154815290600101906020018083116100ee57829003601f168201915b505050505081565b82805461011f906102b2565b90600052602060002090601f0160209004810192826101415760008555610187565b82601f1061015a57805160ff1916838001178555610187565b82800160010185558215610187579182015b8281111561018757825182559160200191906001019061016c565b50610193929150610197565b5090565b5b808211156101935760008155600101610198565b6000602082840312156101be57600080fd5b813567ffffffffffffffff808211156101d657600080fd5b818401915084601f8301126101ea57600080fd5b8135818111156101fc576101fc6102ed565b604051601f8201601f19908116603f01168101908382118183101715610224576102246102ed565b8160405282815287602084870101111561023d57600080fd5b826020860160208301376000928101602001929092525095945050505050565b600060208083528351808285015260005b8181101561028a5785810183015185820160400152820161026e565b8181111561029c576000604083870101525b50601f01601f1916929092016040019392505050565b600181811c908216806102c657607f821691505b602082108114156102e757634e487b7160e01b600052602260045260246000fd5b50919050565b634e487b7160e01b600052604160045260246000fdfea26469706673582212200e9575519435dce86c7a5af1355e0199f36324ff2c5b7f2295dd501734fbb6c264736f6c63430008060033",
  "linkReferences": {},
  "deployedLinkReferences": {}
}