{
  "_format": "hh-sol-artifact-1",
  "contractName": "POBArequester",
  "sourceName": "contracts/POBArequester.sol",
  "abi": [
    {
      "inputs": [],
      "stateMutability": "nonpayable",
      "type": "constructor"
    },
    {
      "anonymous": false,
      "inputs": [
        {
          "indexed": true,
          "internalType": "bytes32",
          "name": "id",
          "type": "bytes32"
        }
      ],
      "name": "ChainlinkCancelled",
      "type": "event"
    },
    {
      "anonymous": false,
      "inputs": [
        {
          "indexed": true,
          "internalType": "bytes32",
          "name": "id",
          "type": "bytes32"
        }
      ],
      "name": "ChainlinkFulfilled",
      "type": "event"
    },
    {
      "anonymous": false,
      "inputs": [
        {
          "indexed": true,
          "internalType": "bytes32",
          "name": "id",
          "type": "bytes32"
        }
      ],
      "name": "ChainlinkRequested",
      "type": "event"
    },
    {
      "anonymous": false,
      "inputs": [
        {
          "indexed": true,
          "internalType": "bytes32",
          "name": "requestId",
          "type": "bytes32"
        },
        {
          "indexed": true,
          "internalType": "uint256",
          "name": "pobaKey",
          "type": "uint256"
        }
      ],
      "name": "RequestPobaKeyFulfilled",
      "type": "event"
    },
    {
      "inputs": [
        {
          "internalType": "address",
          "name": "_address",
          "type": "address"
        },
        {
          "internalType": "bytes32",
          "name": "_jobID",
          "type": "bytes32"
        },
        {
          "internalType": "string",
          "name": "_licenseKey",
          "type": "string"
        }
      ],
      "name": "RequestPOBAkey",
      "outputs": [],
      "stateMutability": "nonpayable",
      "type": "function"
    },
    {
      "inputs": [
        {
          "internalType": "uint256",
          "name": "",
          "type": "uint256"
        }
      ],
      "name": "currentPobaList",
      "outputs": [
        {
          "internalType": "uint256",
          "name": "",
          "type": "uint256"
        }
      ],
      "stateMutability": "view",
      "type": "function"
    },
    {
      "inputs": [
        {
          "internalType": "bytes32",
          "name": "_requestId",
          "type": "bytes32"
        },
        {
          "internalType": "uint256",
          "name": "_pobaKey",
          "type": "uint256"
        }
      ],
      "name": "fulfillpobaKey",
      "outputs": [],
      "stateMutability": "nonpayable",
      "type": "function"
    },
    {
      "inputs": [],
      "name": "getPobaKEY",
      "outputs": [
        {
          "internalType": "uint256",
          "name": "",
          "type": "uint256"
        }
      ],
      "stateMutability": "view",
      "type": "function"
    },
    {
      "inputs": [],
      "name": "index",
      "outputs": [
        {
          "internalType": "uint256",
          "name": "",
          "type": "uint256"
        }
      ],
      "stateMutability": "view",
      "type": "function"
    },
    {
      "inputs": [],
      "name": "owner",
      "outputs": [
        {
          "internalType": "address",
          "name": "",
          "type": "address"
        }
      ],
      "stateMutability": "view",
      "type": "function"
    },
    {
      "inputs": [],
      "name": "pobaKEY",
      "outputs": [
        {
          "internalType": "uint256",
          "name": "",
          "type": "uint256"
        }
      ],
      "stateMutability": "view",
      "type": "function"
    },
    {
      "inputs": [
        {
          "internalType": "string",
          "name": "_licenseKey",
          "type": "string"
        }
      ],
      "name": "requestFromAllPOBA",
      "outputs": [],
      "stateMutability": "nonpayable",
      "type": "function"
    },
    {
      "inputs": [
        {
          "internalType": "string",
          "name": "source",
          "type": "string"
        }
      ],
      "name": "stringToBytes32",
      "outputs": [
        {
          "internalType": "bytes32",
          "name": "result",
          "type": "bytes32"
        }
      ],
      "stateMutability": "pure",
      "type": "function"
    }
  ],
  "bytecode": "0x6001600455600c80546001600160a01b031916734f843e820abaa164fedc7e503c510afbe5257f6517905560c0604052602060809081527f346262633461313632623739343538616230633234366665653733393965663260a0526100639061018b565b600d55600e80546001600160a01b03191673deeaa7404d72fb57fb9da21b4b6e71b5e88f44a21790556040805180820190915260208082527f6364633338326562313863623437643838346634323134663066646137333266908201526100c99061018b565b600f55601080546001600160a01b031916731f3cf7a276eaab0b0309b9eae6d48693dcc327f11790556040805180820190915260208082527f36643837626334363734343334613939393335373534383964373539306132349082015261012f9061018b565b60115534801561013e57600080fd5b50600280546001600160a01b03191673b0897686c545045afc77cf20ec7a532e3120e0f1179055600b80546001600160a01b03191633179055600060088190556009819055600a556101a8565b8051600090829061019f5750600092915050565b50506020015190565b610f10806101b76000396000f3fe608060405234801561001057600080fd5b50600436106100935760003560e01c80632986c0e5116100665780632986c0e5146100e4578063454af8e8146100ed5780638da5cb5b14610100578063c2d66d991461012b578063cfb519281461013e57600080fd5b80630e2a73e81461009857806319e1c8cf146100be5780632112b40a146100c757806322e88d24146100dc575b600080fd5b6100ab6100a6366004610c48565b610151565b6040519081526020015b60405180910390f35b6100ab60065481565b6100da6100d5366004610bf1565b610168565b005b6006546100ab565b6100ab60075481565b6100da6100fb366004610c13565b610293565b600b54610113906001600160a01b031681565b6040516001600160a01b0390911681526020016100b5565b6100da610139366004610b6a565b6102e4565b6100ab61014c366004610c13565b6103f2565b6008816003811061016157600080fd5b0154905081565b60008281526005602052604090205482906001600160a01b031633146101e65760405162461bcd60e51b815260206004820152602860248201527f536f75726365206d75737420626520746865206f7261636c65206f6620746865604482015267081c995c5d595cdd60c21b60648201526084015b60405180910390fd5b60008181526005602052604080822080546001600160a01b03191690555182917f7cc135e0cebb02c3480ae5d74d377283180a2601f8f644edf7987b009316c63a91a28160086007546003811061023f5761023f610eae565b0155600754600390610252906001610d3d565b61025c9190610e76565b600755604051829084907feb266ea232c3033750177036d436103c6e9b8957ab98314770f63db8d92d92b590600090a35060065550565b600c54600d546102ad916001600160a01b031690836102e4565b600e54600f546102c7916001600160a01b031690836102e4565b6010546011546102e1916001600160a01b031690836102e4565b50565b600060068190556102fd83306310895a0560e11b61040f565b604080518082019091526008815267195b991c1bda5b9d60c21b602082015290915061032b90829084610434565b6103836040518060400160405280600f81526020016e6167677265676174696f6e5479706560881b815250604051806040016040528060048152602001636d6f646560e01b815250836104349092919063ffffffff16565b6103df604051806040016040528060088152602001670c6dee0f2a0c2e8d60c31b8152506040518060400160405280600f81526020016e646174612e6c6963656e73654b657960881b815250836104349092919063ffffffff16565b6103eb84826000610457565b5050505050565b805160009082906104065750600092915050565b50506020015190565b610417610aa2565b61041f610aa2565b61042b818686866104ea565b95945050505050565b60808301516104439083610530565b60808301516104529082610530565b505050565b600454600090610468816001610d3d565b600455835160408086015160808701515191516000936320214ca360e11b936104a09386938493923092918a91600191602401610cae565b60408051601f198184030181529190526020810180516001600160e01b03166001600160e01b03199093169290921790915290506104e086838684610547565b9695505050505050565b6104f2610aa2565b61050285608001516101006106b4565b50508284526001600160a01b03821660208501526001600160e01b031981166040850152835b949350505050565b61053d826003835161071f565b6104528282610834565b6040516bffffffffffffffffffffffff193060601b1660208201526034810184905260009060540160408051808303601f1901815282825280516020918201206000818152600590925291812080546001600160a01b0319166001600160a01b038a1617905590925082917fb5e6e01e79f91267dc17b4e6314d5d4d03593d2ceee0fbb452b750bd70ea5af99190a2600254604051630200057560e51b81526001600160a01b0390911690634000aea09061060a90889087908790600401610d16565b602060405180830381600087803b15801561062457600080fd5b505af1158015610638573d6000803e3d6000fd5b505050506040513d601f19601f8201168201806040525081019061065c9190610bcf565b6105285760405162461bcd60e51b815260206004820152602360248201527f756e61626c6520746f207472616e73666572416e6443616c6c20746f206f7261604482015262636c6560e81b60648201526084016101dd565b6040805180820190915260608152600060208201526106d4602083610e76565b156106fc576106e4602083610e76565b6106ef906020610e5f565b6106f99083610d3d565b91505b506020808301829052604080518085526000815283019091019052815b92915050565b60178167ffffffffffffffff161161074a576107448360e0600585901b168317610862565b50505050565b60ff8167ffffffffffffffff161161078857610771836018611fe0600586901b1617610862565b506107448367ffffffffffffffff83166001610887565b61ffff8167ffffffffffffffff16116107c7576107b0836019611fe0600586901b1617610862565b506107448367ffffffffffffffff83166002610887565b63ffffffff8167ffffffffffffffff1611610808576107f183601a611fe0600586901b1617610862565b506107448367ffffffffffffffff83166004610887565b61081d83601b611fe0600586901b1617610862565b506107448367ffffffffffffffff83166008610887565b60408051808201909152606081526000602082015261085b838460000151518485516108ad565b9392505050565b60408051808201909152606081526000602082015261085b8384600001515184610997565b6040805180820190915260608152600060208201526105288485600001515185856109f3565b60408051808201909152606081526000602082015282518211156108d057600080fd5b60208501516108df8386610d3d565b11156109125761091285610902876020015187866108fd9190610d3d565b610a74565b61090d906002610e40565b610a8b565b6000808651805187602083010193508088870111156109315787860182525b505050602084015b602084106109715780518252610950602083610d3d565b915061095d602082610d3d565b905061096a602085610e5f565b9350610939565b51815160001960208690036101000a019081169019919091161790525083949350505050565b604080518082019091526060815260006020820152836020015183106109cc576109cc848560200151600261090d9190610e40565b8351805160208583010184815350808514156109e9576001810182525b5093949350505050565b6040805180820190915260608152600060208201526020850151610a178584610d3d565b1115610a2b57610a2b856109028685610d3d565b60006001610a3b84610100610d98565b610a459190610e5f565b9050855183868201018583198251161781525080518487011115610a695783860181525b509495945050505050565b600081831115610a85575081610719565b50919050565b8151610a9783836106b4565b506107448382610834565b6040805160a0810182526000808252602080830182905282840182905260608084018390528451808601909552845283015290608082015290565b600082601f830112610aee57600080fd5b813567ffffffffffffffff80821115610b0957610b09610ec4565b604051601f8301601f19908116603f01168101908282118183101715610b3157610b31610ec4565b81604052838152866020858801011115610b4a57600080fd5b836020870160208301376000602085830101528094505050505092915050565b600080600060608486031215610b7f57600080fd5b83356001600160a01b0381168114610b9657600080fd5b925060208401359150604084013567ffffffffffffffff811115610bb957600080fd5b610bc586828701610add565b9150509250925092565b600060208284031215610be157600080fd5b8151801515811461085b57600080fd5b60008060408385031215610c0457600080fd5b50508035926020909101359150565b600060208284031215610c2557600080fd5b813567ffffffffffffffff811115610c3c57600080fd5b61052884828501610add565b600060208284031215610c5a57600080fd5b5035919050565b6000815180845260005b81811015610c8757602081850181015186830182015201610c6b565b81811115610c99576000602083870101525b50601f01601f19169290920160200192915050565b6001600160a01b0389811682526020820189905260408201889052861660608201526001600160e01b03198516608082015260a0810184905260c0810183905261010060e08201819052600090610d0783820185610c61565b9b9a5050505050505050505050565b60018060a01b038416815282602082015260606040820152600061042b6060830184610c61565b60008219821115610d5057610d50610e98565b500190565b600181815b80851115610d90578160001904821115610d7657610d76610e98565b80851615610d8357918102915b93841c9390800290610d5a565b509250929050565b600061085b8383600082610dae57506001610719565b81610dbb57506000610719565b8160018114610dd15760028114610ddb57610df7565b6001915050610719565b60ff841115610dec57610dec610e98565b50506001821b610719565b5060208310610133831016604e8410600b8410161715610e1a575081810a610719565b610e248383610d55565b8060001904821115610e3857610e38610e98565b029392505050565b6000816000190483118215151615610e5a57610e5a610e98565b500290565b600082821015610e7157610e71610e98565b500390565b600082610e9357634e487b7160e01b600052601260045260246000fd5b500690565b634e487b7160e01b600052601160045260246000fd5b634e487b7160e01b600052603260045260246000fd5b634e487b7160e01b600052604160045260246000fdfea26469706673582212209a148719872b5013b8417825e0113bcdfe178ae6441a9be878a78571c4c590cf64736f6c63430008060033",
  "linkReferences": {},
  "deployedLinkReferences": {}
}